:020000040800F2
:10000000C01A0020DD0B0008B72D0008C90B00083E
:10001000C90B0008C90B0008C90B0008000000004C
:10002000000000000000000000000000110C0008AB
:10003000C90B000800000000B10D0008811700087E
:10004000290E0008290E0008290E0008290E0008B4
:10005000290E0008290E0008290E0008290E0008A4
:10006000290E0008290E0008290E0008290E000894
:10007000290E0008290E0008290E0008290E000884
:10008000290E0008290E0008290E0008290E000874
:10009000290E0008290E0008290E0008290E000864
:1000A000290E0008290E0008290E0008290E000854
:1000B000290E0008290E0008290E0008290E000844
:1000C000290E0008290E0008290E0008290E000834
:1000D000290E0008290E0008290E0008290E000824
:1000E000290E0008290E0008290E0008290E000814
:1000F000290E0008290E0008290E0008290E000804
:10010000290E0008290E0008290E0008290E0008F3
:10011000290E0008290E0008290E0008290E0008E3
:10012000290E0008290E0008290E0008290E0008D3
:10013000290E0008290E0008290E0008290E0008C3
:10014000290E0008290E0008290E0008290E0008B3
:10015000290E0008290E0008290E0008290E0008A3
:1001600053B94AB9002908BF00281CBF4FF0FF311E
:100170004FF0FF3000F00CB8ADF1080C6DE904CE83
:1001800000F008F8DDF804E0DDE9022304B0704770
:10019000704700BF2DE9F0478C468E46089E1546F5
:1001A00004461946002B40F0D080724547D9B2FA78
:1001B00082F74FB1C7F120030EFA07FC20FA03F3D0
:1001C000BD4043EA0C0CBC404FEA154EA8B2BCFB44
:1001D000FEF8230C0EFB18CC08FB00F943EA0C4395
:1001E000994528D9EB1808F1FF3204D2994502D974
:1001F000A8F102022B44A3EB0903A4B2B3FBFEFC5B
:100200000EFB1C330CFB00F044EA0344A04214D95B
:100210002C190CF1FF3304D2A04202D9ACF1020335
:100220002C44241A43EA02401EB1FC4000233460EF
:100230007360BDE8F0874246DDE76346F1E7002AD8
:1002400079D0B2FA82F3002B3FD01946C1F12003D6
:1002500002FA01F52EFA03F20EFA01FE20FA03F378
:1002600043EA0E034FEA154E00FA01F4B2FBFEFC1E
:10027000AFB20EFB1C201A0C0CFB07F842EA00423E
:1002800090455AD9AA180CF1FF3004D2904502D9F2
:10029000ACF102002A44A2EB08029BB2B2FBFEFCC6
:1002A0000EFB1C220CFB07F743EA02439F4246D990
:1002B000EB180CF1FF3204D29F4202D9ACF10202DA
:1002C0002B44DB1B42EA004202E0AEEB02030122B8
:1002D0004FEA154EAFB2B3FBFEFC200C0EFB1C33F5
:1002E0000CFB07F840EA034398452AD9EB180CF1B8
:1002F000FF3004D2984502D9ACF102002B44A3EBA5
:100300000803A4B2B3FBFEFC0EFB1C330CFB07F787
:1003100044EA0344A74216D92C190CF1FF3304D246
:10032000A74202D9ACF102032C44E41B43EA00408B
:100330000F46114678E71F2188E76046ABE7624623
:10034000BFE76046DBE76346EFE7734506D916B9BA
:10035000002108466DE7C6E9000EF9E7B3FA83F716
:1003600087B9734501D3824207D8841A6EEB030321
:1003700001209C461EB900215BE73846FAE7C6E932
:10038000004CF8E7C7F1200CBB4022FA0CF51D43E6
:1003900020FA0CF12EFA0CF30EFA07FE41EA0E01D8
:1003A0004FEA154900FA07F4B3FBF9F81FFA85FE86
:1003B00009FB18300B0C08FB0EFA43EA00439A4580
:1003C00002FA07F240D9EB1808F1FF3004D29A453F
:1003D00002D9A8F102002B44A3EB0A0389B2B3FBB4
:1003E000F9F809FB183308FB0EFE41EA03418E457C
:1003F0002CD9691808F1FF3304D28E4502D9A8F12F
:100400000203294443EA0040A0FB0298A1EB0E013D
:100410004145CE46434602D306D14C4504D2B9EB02
:10042000020E68EB05030138002EA4D0B4EB0E02D7
:1004300061EB030101FA0CFC22FA07F34CEA030317
:10044000F940C6E9003196E74046C5E74346D9E79B
:1004500007B5094C206883681B684BB10DF1070193
:10046000984728B920689DF8071083685B6898470B
:1004700002F090FFEEE700BF3003002038B5054DD5
:10048000441E14F8011F01B938BD286883685B68F1
:100490009847F6E73003002008B50448FFF7EEFF61
:1004A000002144F6206002F0CBFFF6E78A3C00080A
:1004B000F0B5154B154889B0186002F02BFFF8B164
:1004C0000026002700240525CDE90667CDE9035461
:1004D000CDE901440E4B0F4900944FF480620E4861
:1004E00001F09CFC0D4B0E490E480094CDE90667C7
:1004F000CDE90354CDE901444FF4806201F08EFC54
:10050000002009B0F0BD00BF300300208037000894
:1005100099040008C00800200001002051040008D0
:10052000800400208000002008B5024802F086FB0D
:10053000002008BD963C0008014B1B68184700BF0F
:1005400000000020014B1860704700BF0000002031
:1005500030B5044685B00D4610220021684602F0F1
:10056000B1FF02238DF802302A46044B0193214645
:10057000684602F0AFF805B030BD00BF390500088D
:10058000034A536823F0020353600020704700BF02
:10059000002004E038B545680F4C204602F0BAFE52
:1005A00098B1A3681B689BB129462046984700284C
:1005B0000ADB00F037F8094B5A6842F400725A60BF
:1005C0005A689205FCD5002038BD6FF01200FBE799
:1005D0006FF05700F8E700BF4C360008007000408D
:1005E00008B54168054883681B680C311BB1984702
:1005F00000EAE07008BD6FF05700F9E74C360008DC
:10060000072810B502D90024204610BD044B53F82A
:100610002040204602F07EFE0028F5D1F3E700BF1F
:10062000443B0008EFF31180102383F31288BFF3DB
:100630006F8F094B1A683AB9084A116841F4807102
:1006400011601168C905FCD51A6801321A6080F37F
:100650001188BFF36F8F7047940300200070004033
:10066000084B1A6842F480721A601A6842F40072E9
:100670001A601A6842F480621A60034B034A1A60D7
:10068000704700BF003C0240380000200024F40006
:10069000014B036000207047643B000880B50546AD
:1006A0000E461746984601F01FFE034600F0CEFBAB
:1006B000DFF81890044649F8003042463046394683
:1006C000A84754F8090000F05DFB00BF08000000D7
:1006D00008B50348034A0021121A02F064FB08BD62
:1006E00080000020740400200748084A084908B523
:1006F000121A02F05AFB0748074A0849BDE80840A9
:10070000121A02F052BB00BF000000207C00002043
:100710000C42000800000020000000200C420008ED
:1007200038B505460C4699B1D1E901230F4809684F
:1007300002F084FAD4E90423E1680D4802F07EFA5D
:10074000E1690C4802F07AFAA1690B4802F076FAE6
:10075000012D05D1EFF305810848103902F06EFA3A
:1007600021462846BDE8384001F0ACB9513D0008AB
:10077000813D0008B13D0008C13D0008F03D000882
:1007800030BFFFF7FDBF00BF2DE9F0410B4EDFF892
:10079000308006EB0807CC1B054632460949204647
:1007A00002F082FEA01942460021083C02F08AFEB7
:1007B0002C6707F10800BDE8F08100BF00000000D1
:1007C00004000000943A00082DE9F843324D8046B9
:1007D00032488946174602F031FAAB6ADE0622D566
:1007E0002F4802F02BFA1124AB6A1D0703D52D48C0
:1007F00002F024FA1224284DAB6A980715D52A482E
:1008000002F01CFA6E6BAB6A190642D527483146D6
:1008100002F014FAB9F1000F03D0AB6A23F08003A1
:10082000AB62132403E01024DEE76FF015061A4DC7
:10083000AB6ADA0703D51E4802F000FA1424AB6A4B
:100840009B0603D51B4802F0F9F91524124B9A6A4E
:10085000D50602D49A6A90070AD55B68190507D5B0
:100860004146304600F044FA10B180F30988022472
:10087000094B9A6A920642BF5A6A22F400525A629F
:100880009A6A42F0FF029A6200233B702046BDE85C
:10089000F8836FF01506C4E700ED00E0043E0008A1
:1008A0001B3E00084F3E0008633E00087C3E0008E7
:1008B000933E0008B33E000810B51D4C1D4802F0E1
:1008C000BDF9A36A990130D51B4802F0B7F91E2083
:1008D000A36ADA0103D5194802F0B0F91F20144CBD
:1008E000A36A1B0303D5164802F0A8F92120A36AC6
:1008F000590303D5134802F0A1F922200C4CA36A36
:100900009A0303D5104802F099F92320A36ADB0368
:1009100003D50E4802F092F92420054A936A6FEA43
:1009200003436FEA1343936210BD1D20D0E700BF5D
:1009300000ED00E0E33E0008FC3E0008103F000828
:100940002B3F00084A3F0008703F00088B3F00081B
:1009500070B5244C064624480D4602F06FF9A36A90
:10096000D90435D5214802F069F91720A36A1A0580
:1009700003D51F4802F062F918201A4CA36A9B05A0
:100980000FD51C4802F05AF9A16BA36A180407D5C9
:10099000194802F053F91EB1A36A23F40043A3627D
:1009A0001920104CA36A590503D5144802F046F9E2
:1009B0001A20A36ADA050DD5114802F03FF91B2071
:1009C000084A936A43F47F43936200232B7070BDFF
:1009D0001620CBE7A36A9B04F2D50A4802F02EF951
:1009E0001C20EDE700ED00E0B73F0008CE3F000817
:1009F0004F3E0008E03F0008FA3F000810400008A2
:100A00002C400008B33E00082DE9F0415D4B5F68C3
:100A10008AB00446C7F30806002585F31188BFF3A2
:100A20006F8F02F07F43B3F17F4F06D102F00C03CA
:100A3000082B13D1544802F001F900252C464FF041
:100A40000008F31E8DF80780092B00F28C80DFE888
:100A500003F00A80847C8A8A8A8A8A8810074CBFBD
:100A60000C460125EBE74948464E02F0E7F88DF8C1
:100A70000780F36A9A0704D5454802F0DFF800239F
:100A80002AE0F36A002B01DA4248F6E7F36A5B00DA
:100A9000F5D5414802F0D2F87369A26943F4807336
:100AA0007361BFF34F8FBFF36F8F32F8023C7269EF
:100AB00022F480727261BFF34F8FBFF36F8F03F424
:100AC0007F42B2F55F4F27D1DBB2022B24D12168E0
:100AD000324802F0B3F823689DF80720CAB902AE85
:100AE00004F1200720686168324603C20834BC4222
:100AF0001646F7D1099A002D41D0C2F3080121B959
:100B00006FEA52226FEA4222099202A91846FFF7C1
:100B100007FE0AB0BDE8F0811A4B9A6AD2B232B130
:100B20000DF1070201212046FFF74EFE0FE09A6A01
:100B300012F47F4F05D00DF107010120FFF708FFE8
:100B400005E09B6AB3F5803F99D3FFF7B5FE0346F6
:100B5000C2E70DF107020021E5E70DF107010020D2
:100B6000ECE70F4889E70F4B0F49104817F4F87F5F
:100B7000A6F1100208BF194602F060F87FE76FF394
:100B80000802C1E700ED00E0734000089F40000844
:100B9000B7400008D9400008E840000808410008B4
:100BA00025410008454000085A4000084A41000815
:100BB000044B5A6942F010025A615A6922F0080245
:100BC0005A61704700ED00E0EFF30880EFF3098110
:100BD00001B57246FFF718FF01BD00BF0A4880F358
:100BE0000888102080F3118808484FF404614018E9
:100BF00080F30988EFF314800221084380F31488FE
:100C0000BFF36F8F00F03CF8C01A0020000D0020E9
:100C10001EF0040F0CBFEFF30880EFF30980816929
:100C200011F8021C0229FFD001B5724602F0BFF88C
:100C300001BD00BF40B20028A8BF00F1604001F133
:100C40000101B8BF064B4FEA0111ACBF00F561408E
:100C500000F00F00C9B2B4BF195480F800137047F8
:100C600014ED00E0044B054A23F07F039360BFF3CB
:100C70004F8FBFF36F8F70470000000800ED00E05A
:100C800008B5FFF7EFFF0B4AD2F8883023F4700362
:100C9000C2F88830EFF3148323F0040383F314883D
:100CA000BFF36F8FFFF714FDFFF71EFD00F0B0F8E4
:100CB00000F0CEFF00ED00E042F8203C009B42F83F
:100CC0001C3C0A49019B42F8183C029B42F8143C28
:100CD00021F001014FF0807342F8043C42F8081CF7
:100CE0000023203A02654367704700BF9D06000855
:100CF000094A0346906870B113F1160F006E05D0D3
:100D0000A0F14002934205D3834203D2814228BF1F
:100D100000207047002070474404002008B51546A5
:100D20000B4A0C4B9060026F1A600E4600F0A0F860
:100D30002C4686F309880020034B98472046002163
:100D400000220023014C2047D32D00089D060008F7
:100D50004404002098030020014B10221A617047C0
:100D600000ED00E0054B5A699B689A421FBF044A98
:100D7000536843F080535360704700BF4404002021
:100D800000ED00E0084B9B6883420BD1EFF3058335
:100D900043B1064B5A6842F080525A605A6A22F4B4
:100DA00000425A6202F0D7BA4404002000ED00E08D
:100DB00014498A684FF030001044EFF3098C80E842
:100DC000F01F102080F31288BFF36F8F0E4F4FF08B
:100DD00000664A698A603E60106F0C4C2060506F5C
:100DE0000023536780F3118804B5104600F040F8E3
:100DF000BDE8044002F1300090E8F01F8CF3098850
:100E0000704700004404002004ED00E09803002037
:100E1000044800231021C2180133482B82F8001324
:100E2000F9D1704700E100E008B5EFF30583064A09
:100E3000103B02EBC30152F8330049688847BDE814
:100E40000840FFF78FBF00BFF03700080148006877
:100E50007047000098030020024B034A0348012119
:100E600000F076B80000022000000020643B00087B
:100E7000036E054A403B1360044B4021C2E9011355
:100E80001046012100F06EB89C03002000000B15F5
:100E9000084AC2F898000B6823F01F03034343F08D
:100EA0001003C2F89C308B6843F00103C2F8A030F5
:100EB000704700BF00ED00E02DE9F043DFF86080EF
:100EC00085B00E461F4604464FF00009B14523DAAF
:100ED0006068D8B13FB1411E08421BD11F2819D903
:100EE0002368194216D12368019301F086FFA36895
:100EF00003430393D8F89050C5F30725D0B2013DC2
:100F0000A84207D801A9FFF7C3FF421C09F1010954
:100F10000C34DBE76FF01502104605B0BDE8F08336
:100F200000ED00E0044B0522C3F89420BFF34F8F7F
:100F3000BFF36F8F704700BF00ED00E0BFF35F8F1E
:100F4000024B0022C3F89420704700BF00ED00E080
:100F500010B5034C01232278FFF7AEFF207010BDBF
:100F60007004002008B50B4A00231278FFF7A4FF95
:100F700010F1160F07D0084A0021D2F89030C3F3C1
:100F80000723984200DB08BDC2F89800C2F8A01001
:100F90000130F2E77004002000ED00E02DE9F0439D
:100FA0005A4B5B4DD3F890302C68C3F307239C4217
:100FB00085B000F2A780FFF7C1FF00200C26844215
:100FC0001AD1544EDFF8449134706846FFF760FB45
:100FD000514C524D80460027B84514D133784B49C7
:100FE0000020D1F89020C2F307229342C0F28480FF
:100FF000FFF798FF002045E0696806FB0011FFF746
:1010000047FF0130DBE7009800EB07114FEA071CB0
:10101000CB682340B3F5000F4DD00AD8B3F5001FBD
:1010200033D0B3F5800F3BD0B3F5801F13D0013719
:10103000D2E7B3F1007F47D0B3F1805F4DD0B3F179
:10104000807FF4D150F80C3088684A6801F0D5FEF2
:1010500040F0887009E050F80C3088684A6801F068
:10106000CCFE40F0885040F43020CDE901230390BD
:10107000D9F890303078C3F30723013B984234D934
:101080006FF0150005B0BDE8F08350F80C308868AB
:101090004A6801F0B2FE40F0885040F40020E4E7D6
:1010A00050F80C3088684A6801F0A7FE40F0C06034
:1010B00040F40030D9E750F80C3088684A6801F0F5
:1010C0009CFE40F08270D0E750F80C3088684A6887
:1010D00001F093FE40F48020C7E750F80C30886898
:1010E0004A6801F08AFE2843BFE701A9FFF7D0FE56
:1010F0003378013333709AE7C1F89830C1F8A00013
:1011000001336EE74FF0FF30BCE700BF00ED00E0B9
:10111000703B0008700400200000F0FF0000021186
:1011200008B5024B1B689847002008BDA8030020A3
:10113000034B044A1860937843F00203937070479E
:10114000A80300200400002008B50649064821F045
:101150000701C1F1005202F5003201F02CFD002020
:1011600008BD00BF071B0020AC03002007B5084ADC
:1011700092E80300CDE9000106488268126822B1B6
:101180006946904703B05DF804FB6FF05700F9E73C
:10119000943A00084C3600081F2809D8012303FAA6
:1011A00000F0044B5B6998430CBF0120002070479E
:1011B00000207047003C014000F01F021F284FF044
:1011C000010303FA02F39DBF024A002053616FF04E
:1011D00015007047003C0140044B184400230133C4
:1011E0008B4200F8012BFADB704700BF4C00002057
:1011F0002DE9F041104F054600264FF001086B78AD
:10120000F4B2A34201D8BDE8F0812B781C442046FB
:10121000FFF7C2FF68B12046FFF7CEFF57F8343022
:101220003BB107EBC40204F01F04516808FA04F054
:1012300098470136E3E700BFB803002038B52B4BD1
:1012400018680B88C3F30B03162B14460D464FEAA0
:10125000900219D80BB3013B152B1ED8DFE803F021
:101260000D3A0B3A36242C1D1D1D1D1D1D1D1D1D67
:101270001D1D1D1D380D4FF4FA4020602B68B3F57D
:10128000805F2BD2002038BD402B25D008D823F01A
:101290000402302AF1D0382BEFD06FF08500F2E74E
:1012A000442B07D0A82BF7E700F0D4F84FF4A8732D
:1012B000C00858434008E0E700F0CCF84FF4A873AA
:1012C000C00858430723B0FBF3F0D6E70848D4E73B
:1012D0005000D2E70020D0E71046CEE7C3F3133327
:1012E0000133B0FBF3F02060CCE700BF38000020F2
:1012F00000127A00162808D8054BC34013F0010FDE
:101300000CBF6FF08500002070476FF085007047BC
:10131000EA006000F8B54A4E4A4F00F0BFF8304688
:1013200001F040FE00F0F2FABB68474AC3F3031332
:101330001478D35C46FA04F420FA03F5A54202D2ED
:10134000204600F02BFB3B6843F480233B603B6866
:1013500043F480333B603B4B1A689103FCD55A6FD2
:1013600042F001025A675A6F9207FCD59A6802F060
:101370000C02082A17D11A68970707D41A6842F096
:1013800001021A602F4A13689807FCD52D4B9A6802
:1013900022F003029A609A6812F00C0FFBD19A684F
:1013A00022F0F0029A60274F3B6823F080733B6085
:1013B0003B689901FCD4254AD2F8043823F4403321
:1013C000C2F80438D2F8043823F0706343F0E063C5
:1013D000C2F8043800F042F83B6843F080733B6089
:1013E000184B1A689201FCD59A6822F0F0029A60B4
:1013F0009A6822F0030242F002029A609A6802F0B0
:101400000C02082AFAD1A54202D3204600F0C6FAFF
:101410000F4B1E600B4B9A6822F4E05242F4A0522C
:101420009A609A6822F4604242F400429A60D3F8CB
:101430008C2022F08072C3F88C200020F8BD00BF01
:10144000007A030A00380240FB41000800300240E5
:10145000380000200048704700127A000A4B0B4900
:101460005A6811400A4A0A435A605A68094922F4E4
:1014700040325A605A6822F0E0425A605A6811407D
:10148000054A0A435A607047003802400080BFFF97
:10149000085440000080BFF008544007064B1A6C07
:1014A00042F0805282B01A641B6C03F080530193A7
:1014B000019B02B0704700BF0038024008B50748E2
:1014C00001F028FF38B10648FFF732FE0448FFF765
:1014D00039F8002008BD6FF01200FBE780370008E4
:1014E000E51400080A2838B5074D044604D1AB6856
:1014F0000D215B6828469847AB6803485B68E1B2FA
:101500009847204638BD00BF80370008F8B50C4624
:10151000036941681E682379012B35D09A1E554214
:101520005541AD026279022A9CBF384F37F812C08C
:10153000A27988BF4FF4005C042A28D0003B18BF72
:1015400001231B03E279012A0A680CBF4FF440779C
:101550000027A642D1681DD121F4B05129430B4385
:10156000D360136923F4405343EA0C0313614368C7
:101570001A68536923F440733B43536131684068F0
:10158000BDE8F84001F0AEBD4FF4C065CAE74FF4C6
:101590008053D7E701F4C0618D421FBFD16821F4A9
:1015A000C0612943D160426811680A6902F440525F
:1015B00094451FBF0A6922F4405242EA0C020A61B4
:1015C00042681168CA6802F4805293421FBFCA6819
:1015D00022F480521343CB6043681A68536903F4C2
:1015E00040739F421FBF536923F440733B435361D1
:1015F00021683368994206D0406801F073FD08B94C
:1016000023683360F8BD0020FCE700BF843C00087D
:10161000F8B543681C6803691E680B79012B0D46F9
:101620001AD0991E4A424A41920295F805C0AF79F4
:10163000BCF1020F96BF32494FF4005131F81C1033
:10164000042F00D083B1A3F1030EBEF1010F06D821
:101650006FF085031846F8BD4FF4C062E5E70BB1A3
:10166000042FF5D04FF48053B1F5805F3ED0B1F533
:10167000405F3DD000290CBF012103218C45E7D1FB
:10168000002B37D0002A0CBF042303239F42DFD155
:10169000EB79C3B1012BDBD11A4B9C4213D0A3F5DC
:1016A0004C439C420FD003F580639C420BD003F562
:1016B00080639C4207D003F580639C4203D003F50E
:1016C00044439C42C4D1E36823F40053E3602946B9
:1016D000FFF71CFF03460028BAD1E26842F400522B
:1016E000E26095E8030086E80300B3E70021C5E760
:1016F0000221C3E7002A0CBF03230223C6E700BF71
:10170000843C0008001001404FF0E0230D4A996925
:10171000126818699B69002908BF1146002B08BF91
:10172000134610F4803F084801D1994205D2016860
:10173000114401604FF0E021096900681044C01AAB
:10174000704700BF4004002038040020094B1022DD
:1017500083F82320084B44F2A0121A60074B0020A4
:1017600018604FF0E02344F29F125A6107229861FB
:101770001A61704700ED00E04004002038040020AA
:10178000684620F007018D46F1B501F0A3FD04463F
:10179000FFF7BAFF124A1348D2E9005103685B19F8
:1017A000114D41F10001C2E90031D5E9006144F277
:1017B000A012002707609B1BB3FBF2F002FB00F3B3
:1017C0009B1941F10001C5E90031084B21461F601A
:1017D00000F000FFFFF7C6FABDE8F140854670470C
:1017E0008801002038040020800100203C040020F3
:1017F0002DE9F041344E804669B1B0F1FF3F0AD186
:101800004FF0E022136923F0010313614FF07F438F
:101810003360BDE8F081FFF777FF2C492C4A35682B
:101820004FF0E0239C69D1E90037C31847F1000766
:101830000020B8F1FF3FC1E90037106025D02548EE
:10184000D0E90020B3EB020C67EB0007002F37DB79
:10185000214B1B6844F2A01E13EB08034FEAE8700B
:1018600040F10000A3FB0E320EFB0022B3EB0C0391
:1018700040F21B4062EB0702834272F100001FDB63
:10188000B3F1807F72F1000201DB6FF07F434FF014
:10189000E0223360013B96695361002393610F4B53
:1018A0004FF000725A60B442D1E900023ABF6319A6
:1018B0009B1BA31B1B1842F10002C1E90032A8E7E1
:1018C00040F21A43E3E700BF4004002088010020F3
:1018D00038040020800100203C04002000ED00E0DE
:1018E00010B5074B1C68074B1B68E41AFFF70CFF89
:1018F00044F2A0132044B0FBF3F0034B186010BD7A
:1019000088010020800100203C04002008B5204907
:101910008B6803F00C03082B07D00C2B20D01D483C
:101920001D4A042B18BF104608BD4A684B68496819
:1019300013F4800314BF17481748C1F3881118BF68
:10194000002302F03F02A1FB0001FEF709FC104B4F
:101950005B68C3F3014301335B00B0FBF3F0E3E7E3
:101960004A684B68496813F4800314BF09480A4861
:10197000C1F3881118BF002302F03F02A1FB000150
:10198000FEF7EEFB024B5B68C3F30273E5E700BFB3
:101990000038024000127A000024F400002800F011
:1019A0008180424B1B6803F44043B3F5404F30D174
:1019B00003F10F6303F58C53984207D83C4B9842D0
:1019C00009D83C4B984208D9032300E00523012B9A
:1019D00038BF012309E00423F9E7374B98421AD8AE
:1019E000364B98424FF00003F1D8304A126802F4A7
:1019F0004042B2F5004F28D102F10F6202F5A34236
:101A000090420AD9002B08BF0523012B38BF0123C0
:101A10001BE00023E9E70223E7E7254A904203D9C8
:101A2000002B08BF0423F0E7224A904203D9002B81
:101A300008BF0323E9E7204A904203D9002BE4D1F1
:101A4000022302E01D4A9042DFD8184A126802F4CD
:101A50004042B2F5804F13D1164A904206D9002B6E
:101A600008BF0323012B38BF012309E0124A90422B
:101A700003D9002BF6D1022302E0104A9042F1D89C
:101A80000F490A6822F00F021A430A600A6802F03E
:101A90000F02934208D0086800F00F00C01A18BF68
:101AA00001207047012070470020704700700040FF
:101AB000000E2707804A5D050087930380C3C90194
:101AC000003C024038B5EFF31185102383F31288F0
:101AD000BFF36F8F064B9C6801F02FFC85F31188D4
:101AE000BFF36F8F2046BDE83840FFF74BB900BF0A
:101AF0004404002038B50A4B53F82040013053F815
:101B00002050A54200D838BD606830B1037EDB07A5
:101B100001D401F0E7FB0834F3E723689847FAE7BC
:101B20006C3C000870B5294B294C2A4D86B0012227
:101B300003201A70FFF7DEFF0420FFF7DBFF2646C5
:101B4000AE4204F130040FD300F0AAFB204CAC42AB
:101B500026D300F0B9FBFEF7ABFC1F4A938923F0B4
:101B60000103938106B070BD54F80C3C059354F802
:101B7000103C049354F8143C039354F8183C02931B
:101B800054F81C3C019354F8203C009354E90A2378
:101B900054E90C0100F0C2F854F8303C5E65CEE721
:101BA000D4E90A23B3F1FF3F08BFB2F1FF3F05D0EC
:101BB00052EA0301206803D100F00CF93034C6E783
:101BC0000649183000F026FCF8E700BF7104002039
:101BD000303A0008303A0008100200200B340008A8
:101BE00070B5002386B00122CDE90423134E144DB5
:101BF00001930F22CDE902321249142303FB005551
:101C000006EBC01604464FF4C07000FB04110E4BE7
:101C100000954FF4A072304600F080F8337C0B4AF8
:101C2000EE6023F0040333744FF4046304FB0333C6
:101C300013442C746B6006B070BD00BF900100208F
:101C4000440400204015002041330008000D00200E
:101C50007FB50020FFF74EFF284B83F30888284C00
:101C6000636943F4007363610025F02384F8223034
:101C7000E57725766576A57684F82050636A43F487
:101C8000E0236362FEF794FFFFF766F84FF0FF333F
:101C9000A362E362FFF782F9FFF7DEF819481A4CF6
:101CA00000F08CF8FEF7DCFC0120FFF723FF022098
:101CB000FFF720FF00F0ECFA144B15495C61154B5F
:101CC000059301234FF48062CDE90353CDE901551B
:101CD000114B0095204600F021F8237C064623F0A6
:101CE00004032046237401F069FB2846FFF778FFC0
:101CF000094A31462046FFF711F800BF4015002081
:101D000000ED00E0900200201002002044040020BA
:101D1000C0160020D9410008251B00082DE9F0431A
:101D2000073285B01F4622F0070200F15803C0E9D0
:101D300016337F32109B838100250E4622F03F022E
:101D40000F9981730423C0E9065504468560037426
:101D5000C573002100203F2AC4E90A0106F14009A9
:101D6000A2F1400805D885F31188BFF36F8F18469C
:101D700002DFB51829462046FEF706FD07300E9B08
:101D800020F00700A066C4E9189802930D9B019308
:101D90002D1A0C9B00932A463B4631462046FEF7FF
:101DA0008BFF00236365044B9B6803B1DB6EE36626
:101DB000284605B0BDE8F0834404002001230374E5
:101DC00083810023C0E91833C366014B98607047D4
:101DD0004404002038B50446EFF31185102383F343
:101DE0001288BFF36F8F037C5B070FD5183000F0AC
:101DF000A9FB237C23F004032046237401F0EDFAB1
:101E000029460548BDE8384001F017BB85F3118825
:101E1000BFF36F8F38BD00BF72040020F0B587B0EC
:101E200000250595109D04950F9D03950E9D029527
:101E3000DDE912760D9D01950C9D00950446FFF796
:101E40006DFFB6F1FF3F08BFB7F1FF3F05D056EA7F
:101E5000070305D12046FFF7BDFF204607B0F0BDC0
:101E60003A46334604F11800014900F0D3FAF4E78A
:101E70000B340008094A93686FF00A019967084912
:101E800058674B6843F080534B60002383F31188FD
:101E9000BFF36F8F9368986F704700BF44040020B2
:101EA00000ED00E038B590F91020037C002A0146CF
:101EB00004DA03F07F03037401F06EFA0D4D2A4635
:101EC000AB6852F8184F944200D004B9EC688B42CA
:101ED00007D01A7CD20604D1DA897F2A01D9A269F7
:101EE0002AB1A34202D0204600F034FA23466B61A7
:101EF00038BD00BF4404002070B590F91020037C69
:101F0000002A2FDBD9062DD11A4C63F07F0322461D
:101F1000037452F8183FE169934207D1C0E90021E8
:101F20000860E0610FE09942F8D01B68002BF5D003
:101F300093F90E6090F90E50AE42F4DD5968C0E995
:101F4000003108605860A569954200D005B9E56880
:101F5000A3681A7CD20606D1DA897F2A03D9AA6936
:101F60000AB9636170BDAB4202D0284600F0F2F9B5
:101F70006561F7E744040020034648B9EFF30582A2
:101F800032B9064A51699268914201D0FFF772BF97
:101F900083F31188BFF36F8F704700BF44040020A4
:101FA00038B5184CA168E0690B68814214BF1A4625
:101FB000002249680B605960A368E1692AB9124A96
:101FC000C3E900210B60E3610AE092F90E5093F936
:101FD0000E00854212DD5168C3E900210B60536099
:101FE000A569094B9D4200D005B9E568A3689D42EB
:101FF00002D0284600F0AEF9656138BD8A42DED0D5
:102000001268DBE7440400205C0400202DE9F0475F
:10201000002A027C0CBF4FF010094FF0080919EAA2
:10202000020F04460E460F4628D149EA0203D209A0
:1020300046D10374B9F1080F48D04FF00008DFF81B
:10204000F0A0534653F8185F9D4200D00DB9DAF85E
:102050000C50DAF80830AB4202D0284600F07AF98A
:10206000B9F1100FCAF8145008D0204600F0AEFEA7
:10207000B8F1000F02D02F48FFF7A0FE2C4B9B6851
:10208000A3424FD1EFF30583002B4BD1A289D20796
:1020900011D586F31188BFF36F8F83F31188BFF3D7
:1020A0006F8F0423184602DFEFF31187102383F3A9
:1020B0001288BFF36F8F3846BDE8F047FFF7DABEEE
:1020C00003F07F03037401F067F9B3E7A36813B16A
:1020D000204601F069F904F1180000F033FAA56D0B
:1020E00004F15808A84511D04FF0000A75B12846F0
:1020F00001F05AF905F1180000F024FAC5F878A0AB
:102100002846FFF7F9FEA56DA845EFD1084B9B685F
:102110009C4292D1EFF30588B8F1000818BF4FF048
:1021200001088CE786F31188BFF36F8FBDE8F08755
:10213000440400209002002070B50F4D2B46064647
:1021400053F8184F9C4200D004B9EC68AB681A7C75
:10215000D20604D1DA897F2A01D9A2692AB1A34221
:1021600002D0204600F0F6F823466B613046BDE809
:102170007040FFF701BF00BF4404002070B5EFF3CB
:102180001186102383F31288BFF36F8F1A4CA16856
:10219000E0690B68814214BF1A46002249680B604F
:1021A0005960A368E1692AB9144AC3E900210B60A8
:1021B000E3610AE092F90E5093F90E00854216DDB4
:1021C0005168C3E900210B605360A5690B4B9D4228
:1021D00000D005B9E568A3689D4202D0284600F00A
:1021E000B9F865613046BDE87040FFF743BE8A42EA
:1021F000DAD01268D7E700BF440400205C04002056
:10220000F8B550EA010306460C4603D101F0C2F8C6
:102210000020F8BDEFF31187102383F31288BFF37A
:102220006F8F174D174BA868186001F0D8F8A86891
:10223000154932462346183000F0ECF8AB681A7C9A
:102240005F6742F004021A746FF00A029A670F4A3D
:10225000536843F0805353600446002383F311888E
:10226000BFF36F8FAA68D2E90A12B2F1004F08BF1C
:102270009942CDD101F014F9201A20EAE070C8E7A4
:1022800044040020640400200B34000800ED00E04A
:10229000024B03F11802C3E90622704744040020F0
:1022A000EFF31181102383F31288BFF36F8F054B77
:1022B0009A68D37B013BD37381F31188BFF36F8F8F
:1022C000704700BF44040020EFF31180102383F314
:1022D0001288BFF36F8F034B9A68D37B0133D3739C
:1022E000FFF72ABF44040020014B9868704700BFE5
:1022F00044040020027C12F01F02034610D10A4958
:1023000088420DD00949086868B1D9897F2909D860
:1023100093F90E20064B1B689A42B8BF0020704705
:102320000020704710467047900100203C000020BC
:1023300068040020044BC01A044BC0105843044BDF
:1023400001221A54704700BF10030020ABAAAAAAAA
:1023500072040020F8B50C4B0C4D1E7C0C4FFFF79F
:10236000C9FF182303FB06550446284600F0EAF887
:1023700034B1BB5D0749E21AD317284600F04AF88A
:102380000023BB55F8BD00BF44040020100300200B
:10239000720400203523000870B5EFF31186102376
:1023A00083F31288BFF36F8F0F4D104BAC68186822
:1023B000A04202D1FFF7CEFF11E000221A602B7C71
:1023C0000B4AD35C5BB12046FFF794FF38B1237C06
:1023D000DB0604D1FFF7E4FD6869A042EAD086F38A
:1023E0001188BFF36F8F70BD440400206404002087
:1023F00072040020024B1868984208BF0020704702
:1024000044000020024B186808B1FFF769BA704712
:1024100040000020B3F1FF3F08BFB2F1FF3F2DE9BC
:10242000F84F0446994615461F4600F081808160AA
:10243000EFF31188102383F31288BFF36F8FB9F184
:10244000000FDFF8F4A025DBFFF7DCFF3B4B1B6838
:10245000003B18BF0123451949EBE0795B19DAE924
:10246000005749F10002C4E904325D19064642EB07
:1024700007074FF00109FFF7BDFFDFF8C4E0DEF802
:1024800004A00346EBB9C4E900EACAF80040CEF85C
:10249000044028E0DAE900126FF001035B1A4FF004
:1024A000FF3161EB02025B1B62EB0902012B72F14F
:1024B0000001BCBF01230022C0E904324FF0000933
:1024C000D9E7D3E9041CD4E904208A4270EB0C0B51
:1024D00025DA891A5A686CEB0000C3E90410C4E9D4
:1024E000003214605C60FFF785FF84420FD1134B0C
:1024F0001B6801330BD1B9F1000F02D1FFF782FF46
:102500000646304600F0B5FF0021FFF771F988F369
:102510001188BFF36F8F28463946BDE8F88F521AED
:1025200060EB0C005345C4E90420ACD01B68A9E75C
:1025300000252F46EFE700BF2803002040000020C1
:1025400044000020F8B50246EFF31185102383F311
:102550001288BFF36F8F016851B3FFF74BFF1C4B1D
:102560005B689A4208D0D1E90434D2E90476DB19D9
:1025700044EB0604C1E90434D2E90031002400260A
:102580004FF0004790420B605960C2E90044C2E935
:10259000046705D0002085F31188BFF36F8FF8BD65
:1025A000FFF730FF00F065FF2146FFF721F9F1E763
:1025B000D0E90413B3F1004F08BF012904D1002072
:1025C0004FF00041C2E904016FF01500E3E700BFDE
:1025D000440000202DE9F84FDFF8BC902F4CC9F8DB
:1025E000000000232360FFF705FFDFF8B4800D46ED
:1025F00001264FF00047D9F80020D8E900CE4FEA75
:10260000E27A50B1D0E904319A427AEB010B1EDA3A
:102610009B1A61EB0A01C0E9043112EB0C024EEB8C
:102620000A030026C8E9002330464FF0FF33236039
:10263000C9F8006000F01DFF3146FFF7D9F885F3B7
:102640001188BFF36F8FBDE8F84FFFF7A5BE13EBFE
:102650000C0CA2EB0303C9F80030D0E90032D0F82B
:1026600008A0136041EB0E015A600023C8E900C1C5
:10267000C0E90033C0E9046785F31188BFF36F8FA9
:10268000D047EFF31185102383F31288BFF36F8FC8
:10269000FFF7B0FEAFE700BF6C0400204000002051
:1026A0002803002010B5EFF31184102383F3128860
:1026B000BFF36F8FFFF7A6FE054A0346D2E900017C
:1026C000181841EBE37184F31188BFF36F8F10BDCD
:1026D000280300202DE9F04F8BB0436800938378E6
:1026E0009C078046924640F1F98000250878002832
:1026F00000F0F68025280AD04B1C01930135414695
:10270000009B98470028C0F2E3800199EEE74E78DD
:102710008B1C252E0193F1D00027B9463C460A2296
:102720001F2C22D8A6F12003102B20D8DFE803F0BD
:10273000141F1F1A1F1F1F0B1F1F1F121F171F1FE2
:10274000090044F00104019B13F8016B0193002E72
:10275000E6D13AE044F0020444F00404F3E744F024
:102760000804F0E744F01004EDE77F2C24D8A6F12C
:102770003003092B08D860064EBF02FB073702FB67
:10278000093944F02004DEE72A2E0DD161065AF8FB
:10279000043B53D4002BA7BF44F020049946C3F157
:1027A000000944F02804CEE72E2E05D1630600F17F
:1027B000978044F04004C6E76C2E2ED028D8682EAF
:1027C00032D06A2E37D04C2E35D0002F46F0200361
:1027D000B8BF24F04004A3F16502BCBFA4B2002737
:1027E000022A01D9612B2BD10AF1070A2AF0070A24
:1027F0009C4E0AF1080A0727210760D506EB070B54
:1028000034465C455DD1AE1BA219A9EB070959E11D
:10281000742E98D07A2E96D0D7E7260648BF44F477
:10282000007444F080048EE7E00548BF44F400746F
:1028300044F4807487E744F4207484E71F4682E7F9
:10284000A6F16302122A00F2D880DFE812F013002A
:102850004D00D600D600D600D6004D00D600D600DA
:10286000D600D600D600E800D100D600D6001A0067
:10287000D600A0005AF8043B8DF81030012704AEB2
:10288000BAE75AF8046B784B002E08BF1E4614F0C6
:10289000400F14BF39464FF0FF31304600F01AFEAA
:1028A0000746A9E7009B41462020984700280FDBF8
:1028B000013CA742F6D34D442D1BA1469EE74C4652
:1028C000F7E714F8010B009B41469847002898DA77
:1028D00098F8023043F0040388F802304FF0FF35D7
:1028E00028460BB0BDE8F08F220630D5A3052AD5C7
:1028F0000AF1070A2AF007039A4659685AF8080BA2
:1029000024F0100B00291FFA8BFB2FDA404261EBF9
:1029100041014BF4806B04AC0A23224600F0E6FD33
:102920001BF0400FA0EB040200F08E802BF001049E
:102930009742A4B240F38F80002E40F08E802BF09F
:102940001104A4B21DE05AF8040BC117D8E7E00542
:102950005AF8041B01D40846F7E7A2054BBF48B25A
:1029600008B241F3C01141F3C031C9E750EA010395
:10297000D1D16306CFD5002FCDD124F01104A4B25C
:102980003A463B4640F206410C4262D124E024F034
:102990001004A4B20A2314F0800243D014F400718E
:1029A0001FBF0AF1070A2AF007029246516814BFB6
:1029B0005AF8080B5AF8040B50EA01023ED124F0F1
:1029C000160B62061FFA8BFB3CD5002F3AD124F080
:1029D0001704A4B23A463B4621075AD4E10705D56D
:1029E000994572DDA9EB03039F184B469B464AE0CD
:1029F00044F0100410237826CDE7782B04D1C6F1DB
:102A0000780343F01003C6E7009B41462520984712
:102A10000028FFF65DAF02354146304670E60823D8
:102A20000026B8E714F480715AF8040BC4D014F4EB
:102A300000711ABFC0B2114680B2BDE724F006048F
:102A40001FFA84FB04AC68E713465C46E10699D59F
:102A50002EB90133C0E71346F8E73B46F6E70233E9
:102A6000BAE700BFE5410008DE410008CDE90232C7
:102A70004146009B202098470028FFF629AFDDE95A
:102A800002320BF1010BD945F0DCEB1A03EB0B051D
:102A90005B46E10627D5CDE902324146009B302056
:102AA00098470028FFF614AFDDE902327EB9013500
:102AB0002F44791B8A4229DB144604AE9CBB2A446E
:102AC000A9EB03091546914442E017468EE7CDE98C
:102AD0000232023541463046009B98470028DDE926
:102AE0000232E5DAF4E640F206410C42E0D014F09E
:102AF000020F14BF2B20202014F4806FCDE9023286
:102B000005F10105414618BF2D20E5E7CDE9023268
:102B10004146009B302098470028DDE9023205F14C
:102B20000105C6DAD4E6013CCDE90232305D009BF6
:102B3000414698470028DDE90232BFDAC8E6009B2B
:102B4000414620209847002805F10105FFF6C0AE58
:102B5000A9EB0503002BF2DCD7E500BF704700EBC3
:102B6000C100408840087047F8B50346FFF7F7FFFB
:102B7000B0FA80F0C0F11F0003EB800CCA00DCF853
:102B80001060171D0C4606328DB256B9012101FAAC
:102B900000F0D9680143D960CCF81040DD539D5254
:102BA000F8BDF1000431585AD85303EBC0009E52CF
:102BB000C5805D52F4E7043A2DE9F843CC1D114479
:102BC00024F0070421F00706A6EB04084FEAD80713
:102BD000B7FA87F2C2F12405AD004FF000090735BE
:102BE000C2F12002ED0804604946A760C4F80C90C9
:102BF000920004F1100000F065FCAAB2530043F00B
:102C0000010363807B1B9BB204EBC5015800A4F851
:102C10000090488024F83520A6F8029024F8083067
:102C200004EBC70329465A8842F001025A80204625
:102C3000BDE8F843FFF798BF002070470FB407B511
:102C400004A951F8040B0191FDF782FC03B05DF873
:102C500004EB04B0704770476FF0570070476FF097
:102C6000570070476FF0570070476FF0570070477C
:102C70006FF0570070476FF057007047F0B540682D
:102C800002F4C0454468B5F5804F4FF0010000FAEA
:102C900001F074D10729C2F343255AD890FAA0F362
:102CA000B3FA83F3266A9B000F2707FA03F326EA99
:102CB000030690FAA0F3B3FA83F39B0005FA03F33B
:102CC000334323626568C2F3C0338B4025EA0001B9
:102CD0000B43636090FAA0F1B1FA81F1A568032675
:102CE000490006FA01F125EA010590FAA0F1B1FACE
:102CF00081F1C2F3014349008B402B43A36090FA5A
:102D0000A0F1B1FA81F1E568490006FA01F125EA7E
:102D1000010590FAA0F1B1FA81F1C2F381434900B3
:102D20008B402B43E36090FAA0F3B3FA83F321685E
:102D300090FAA0F05B00B0FA80F006FA03F34000CE
:102D4000C2F3413221EA030382401A432260002089
:102D5000F0BD030A93FAA3F6B6FA86F6676A93FA09
:102D6000A3F3B6004FF00F0CB3FA83F30CFA06F698
:102D70009B0027EA06069D4035436562A2E7B5F54C
:102D8000005FA7D16668C2F3C03505FA01F126EAF3
:102D9000000529436160002B9CD0D30256BF030479
:102DA000A061A36196E700F08DBB00F07DBB0146FA
:102DB0000068FDF7B5BC08B5FDF7E2FCBDE80840CA
:102DC000FDF7D0BF00210120FDF7AABC6FF0850000
:102DD000704761B662B680F31188BFF36F8F70479A
:102DE00072B6002383F31188BFF36F8FBFF34F8F49
:102DF00030BF62B6BFF36F8F7047202809D9B0F19A
:102E0000004F08D80138B0FA80F0C0F11F00400030
:102E10007047082070473E20704708B5FEF780F9DC
:102E2000002008BD08B5062201210020FEF7D4F9D4
:102E3000002211460620FDF7FDFE0121084607226B
:102E4000FEF7CAF9002211460720FDF7F3FE08221B
:102E500001210220FEF7C0F9002211460820FDF7EB
:102E6000E9FE092201210320FEF7B6F900221146EE
:102E70000920FDF7DFFE0A2201210420FEF7ACF94C
:102E8000002211460A20FDF7D5FE0521084617222B
:102E9000FEF7A2F9002211461720FDF7CBFE2822EB
:102EA00006210A20FEF798F9002211462820FDF796
:102EB000C1FE002008BD0B88C3F30B0303F57D6240
:102EC000C2F30B02782A82B014D803F1804303F5D1
:102ED0000E3348681A6802431A600B88C3F30B0369
:102EE00003F1804303F50E3300201B680193019B1F
:102EF00002B070476FF08500FAE70B88C3F30B034D
:102F000003F57D62C2F30B02782A9FBF03F1804371
:102F100003F50E3349681A689DBF8A4300201A6082
:102F20006FF08500704770B508884A68C0F30B00E1
:102F300094B2C2F30445FEF7DDF9A0B9FF2A11D01F
:102F400004F18041C2F3415601F50E3101360123EF
:102F5000B3400C68013BAB40120E24EA0303AA40C5
:102F600013430B6070BD6FF08500FBE70888C0F36A
:102F70000B0008B500F57D63C3F30B03782B0AD86B
:102F800000F1804000F50E304B68026893430CBF9F
:102F90000220012008BDFEF7ADF900280CBF022079
:102FA0000120F7E7704730B50368136005790468BE
:102FB00004EBC504A34202D36FF0010030BD5C797D
:102FC0008C4203F10803F0D10020F7E7F8B504467E
:102FD00000EB8105AC4201D100200FE054F8046BF6
:102FE00006F01F00C6F34317FDF70AFB38B10123B3
:102FF00032463946FFF742FE0028EBDAF8BD6FF0A3
:103000001200FBE74368C1F34B101B6801F01F017E
:10301000C05801238B400340003B18BF01231370AD
:103020000020704710B54368C1F34B101A6801F0D7
:103030001F01845801238B4023438350002010BD7F
:1030400010B54368C1F34B14186801F01F012358F1
:1030500001228A4023EA02032350002010BD38B524
:1030600004460D46FFF7DEFF29462046FFF7E8FF3E
:10307000002038BD82B003680193019B436801932F
:10308000019B02B0704708B543681868026803687E
:10309000C2F3C00203F0010342EA430203689B0744
:1030A000036848BF42F004025907036848BF42F072
:1030B0002002DB0542BF6FF4807342F00802036018
:1030C000D10701D5FFF7D6FF930701D5FFF7D2FF50
:1030D000510701D5FFF7CEFF930601D5FFF7CAFFD1
:1030E000104608BD37B5034604680D4619B96FF0A0
:1030F000150003B030BD406819698368DB6803B30D
:1031000001AA98470028F4DBE368019923F40043FF
:103110001920E360AA00AB0FA1FB0001FDF720F826
:103120006422B0FBF2F102FB11031B013233B3FB4B
:10313000F2F303EB01130F2BD9D99BB2A36000204C
:10314000D7E76FF05700D4E708B5436818680368FD
:103150001A0701D5FFF78EFF03689B0643BF43683C
:103160000B7000204FF0FF3008BD10B543681B689E
:1031700010201A681206FCD5EFF3118280F3128832
:10318000BFF36F8F1C68240604D482F31188BFF349
:103190006F8FEEE7596082F31188BFF36F8F10BD18
:1031A000F7B5446805466068216983681B68002B91
:1031B00040D0984700283BDB606A01AA0021FFF756
:1031C000F2FE002834DB019B002219791868FFF712
:1031D000FDFE00282CDB6E682B6934681F68E368ED
:1031E00023F40053E360B06800F094F828B3D6E904
:1031F00002018368DB6803B1984704F10C0353E8CC
:10320000003F43F00C0304F10C0141E80032002AB6
:10321000F3D139462846FEF779F988B9337E1BB1D8
:10322000636943F008036361E36843F40053E360B8
:1032300003B0F0BD6FF05700FAE76FF01200F7E748
:103240006FF01500F4E703691B681B680B604368A7
:103250001B68DB6803F4C063B3F5806F2FD0A3F560
:10326000C06CDCF1000343EB0C030B7143681B687B
:103270001B6903F44053B3F5805F22D0B3F5405F80
:1032800021D0002B0CBF012303234B7143681B6823
:10329000DA68DB68D20403F4C06316D5002B0CBFD8
:1032A000042303238B7143681B685B6903F4407339
:1032B000A3F5407253425341CB7100207047022363
:1032C000D3E70023E1E70223DFE7002B0CBF032352
:1032D0000223E7E7EFF31180102383F31288BFF393
:1032E0006F8F704710B5436904463BB90020E26810
:1032F000537843F001035370404210BD98470028B3
:10330000F4D00028B8BF4042E368FF28A8BFFF20E0
:103310001870ECE740B1C368587810F001001EBF88
:103320001878B0FA80F040097047EFF3118310234A
:1033300083F31288BFF36F8FFEE708B5FFF7F5FF41
:1033400010B51024EFF3118384F31288BFF36F8F4D
:10335000FFF746FDF6E738B58589EFF311811022B6
:1033600082F31288BFF36F8F037C13F0080404D03C
:1033700081F31188BFF36F8F38BD0122FEF746FE3F
:10338000EB07F9D584F31188BFF36F8F0423184638
:1033900002DFF1E7FEF7F2BED0E9003213605A60B7
:1033A0000023C0E90033704708B5FFF7F5FF037C41
:1033B00023F0020303740023836008BD10B5EFF30C
:1033C0001184102383F31288BFF36F8FFEF794FDEF
:1033D00084F31188BFF36F8F10BDFEF78DBDFEF72C
:1033E00061BD08B5037C13F0280F01460CD183683A
:1033F0000BB1FFF7D9FF0B7C23F004030B740846D5
:10340000BDE80840FEF778BD08BD10B5EFF31184A4
:10341000102383F31288BFF36F8FD0E90423B3F135
:10342000004F08BF012A04D084F31188BFF36F8FC7
:1034300010BD1838FFF7D5FFF6E70846FEF79CBD2C
:1034400038B505460C46FEF7DBFEB4F1FF3F08BF7A
:10345000B5F1FF3F0AD0C11709304FF00A024FF013
:10346000000341F10001FCF77BFE38BD4FF0FF3057
:10347000FBE708B50246FEF7BDFF70B1D0E90431A5
:103480009B1A61EBE272B3F1004F72F1000104DAB2
:10349000002AACBF1846002008BD6FF00040FBE7D3
:1034A00008B5FFF7FFF808BD0A44914200F1FF3369
:1034B00000D1704710B511F8014B03F8014F91424C
:1034C000F9D110BD02440346934200D1704703F87E
:1034D000011BF9E710B5024601448A42134603D0A6
:1034E0001C780132002CF8D1181A10BDF0B5C3F1C8
:1034F00037070446FFB203F01F031046082BE6B25D
:1035000033D0102B3ED06508A40844EA817445EA04
:10351000C1752D194FEA910242EB5102290941EA86
:1035200002716D1842EB1212290A41EA02616D180C
:1035300042EB1222290C41EA02416D1842EB124281
:10354000AD1842F10002EC0844EA4274D10804EBE1
:103550008402A6EB4205EDB2092D0CD90134A5F188
:103560000A0541F10001EDB212E0E40844EA4174B9
:1035700006F00705C908303554EA010200F8015B7E
:10358000BCD1F0BD240944EA017406F00F05090915
:0C359000092D84BFED19EDB2EDE700003D
:08359C00F8CBFF7F01000000E5
:1035A400000000004C3600088105000800000000FF
:1035B4000000000068360008000000001037000812
:1035C400000000002C370008000000004837000805
:1035D400000000006437000800000000F436000812
:1035E40000000000D836000800000000BC360008C7
:1035F40000000000A0360008000000008436000827
:10360400252E00080000000000000000B837000864
:103614000000000080370008000000009C3700080C
:10362400BD1400080000000000000000D4370008AA
:103634004D170008000000004911000800000000B8
:08364400290500080000000048
:10364C008B41000800000000403A00087000002088
:10365C00000000001513000800000000984100084D
:10366C00903B0008303A0008720000200000000077
:10367C000000000000000000E13C0008A43A000833
:10368C005C3A00085E00002034030020E1050008CD
:10369C0000000000EF3C0008B83A00085C3A000853
:1036AC006000002040030020E1050008000000003D
:1036BC00FD3C0008CC3A00085C3A0008620000208F
:1036CC004C030020E1050008000000000B3D000841
:1036DC00E03A00085C3A000864000020580300201F
:1036EC00E105000800000000193D0008F43A00084C
:1036FC005C3A00086600002064030020E105000825
:10370C0000000000273D0008083B00085C3A000858
:10371C006800002070030020E10500080000000094
:10372C00353D00081C3B00085C3A00086A0000208C
:10373C007C030020E105000800000000433D000868
:10374C00303B00085C3A00086C0000208803002025
:10375C00E1050008000000006D41000800000000B9
:10376C00000000006E000020000000006D11000839
:10377C0000000000A9410008943B0008803A0008B2
:10378C007400002014000020A1310008000000008B
:10379C00B9410008DC3B0008803A000876000020A4
:1037AC0020000020A131000800000000C9410008E1
:1037BC00243C0008803A0008780000202C000020EF
:1037CC00A131000800000000D13C00089C3A000820
:1037DC00000000005C0000200000000095050008BF
:0437EC0000000000D9
:1037F00000000000C52D000800000000C52D0008D5
:1038000000000000C52D000800000000C52D0008C4
:1038100000000000C52D000800000000C52D0008B4
:10382000F9410008F1110008F7410008F111000802
:10383000F5410008F1110008F3410008F1110008FA
:10384000F1410008F111000800000000C52D00083A
:1038500000000000C52D000800000000C52D000874
:1038600000000000C52D000800000000C52D000864
:1038700000000000C52D000800000000C52D000854
:1038800000000000C52D000800000000C52D000844
:1038900000000000C52D000800000000C52D000834
:1038A00000000000C52D0008EF410008F1110008DC
:1038B00000000000C52D000800000000C52D000814
:1038C00000000000C52D000800000000C52D000804
:1038D00000000000C52D000800000000C52D0008F4
:1038E00000000000C52D000800000000C52D0008E4
:1038F00000000000C52D000800000000C52D0008D4
:1039000000000000C52D000800000000C52D0008C3
:1039100000000000C52D000800000000C52D0008B3
:1039200000000000C52D000800000000C52D0008A3
:10393000ED410008F111000800000000C52D00084D
:1039400000000000C52D000800000000C52D000883
:1039500000000000C52D000800000000C52D000873
:1039600000000000C52D000800000000C52D000863
:1039700000000000C52D000800000000C52D000853
:1039800000000000C52D000800000000C52D000843
:1039900000000000C52D000800000000C52D000833
:1039A00000000000C52D000800000000C52D000823
:1039B00000000000C52D000800000000C52D000813
:1039C00000000000C52D000800000000C52D000803
:1039D00000000000C52D000800000000C52D0008F3
:1039E00000000000C52D000800000000C52D0008E3
:1039F00000000000C52D000800000000C52D0008D3
:103A000000000000C52D000800000000C52D0008C2
:103A100000000000C52D000800000000C52D0008B2
:103A200000000000C52D000800000000C52D0008A2
:103A30000530000825300008413000085F300008DC
:103A4000B72E0008FB2E0008000000003D12000801
:103A50006D2F000800000000272F0008592C0008D7
:103A60005F2C0008652C00086B2C0008772C0008E0
:103A7000712C0008000000000000000000000000A1
:103A8000493100086B310008873000081116000822
:043A900047320008B1
:103A9400440000000040000030000000000004006A
:103AA400FFFF0000001C024007000000300000007F
:103AB40080000000FFFF0000001802400600000024
:103AC4003000000040000000FFFF0000001402402E
:103AD400050000003000000020000000FFFF00008F
:103AE400001002400400000030000000100000003C
:103AF400FFFF0000000C0240030000003000000043
:103B040008000000FFFF000000080240020000005F
:103B14003000000004000000FFFF00000004024029
:103B2400010000003000000002000000FFFF000060
:103B3400000002400000000030000000010000000E
:103B4400483700082C37000810370008F4360008FE
:103B5400D8360008BC360008A036000884360008B1
:103B6400000000200000000000000B06020000001E
:103B7400783B0008000000085E41000824000206AB
:103B8400000000206641000820000B1100380240AC
:103B9400004800404C360008683600081204000053
:103BA400BC3B000801000000000000000000000011
:103BB40000000000C43B00084000000000000400B6
:103BC400CC3B000801000000D43B000802000000C8
:103BD400034F0400234F0000001401404C3600083A
:103BE4006836000885040000043C00080100000059
:103BF4000000000000000000000000000C3C000871
:103C04004400000020000000143C000801000000F3
:103C14001C3C000802000000C651040026510000AC
:103C2400004400404C3600086836000811040000C7
:103C34004C3C0008010000000000000000000000EF
:103C440000000000543C0008400000000000020096
:103C54005C3C000801000000643C00080200000015
:103C6400A34E0400C34E0000A4350008A435000888
:103C7400343600083C360008443600084C36000848
:103C84000010000000304865617274626561740D53
:103C94000A002A2A2A20426F6F74696E67205A65C7
:103CA40070687972204F53206275696C6420763491
:103CB4002E342E302D343533352D67643266386515
:103CC40033303862646334202A2A2A0A006D656D11
:103CD4006F7279403430303234303030006770697C
:103CE4006F403430303231633030006770696F4078
:103CF4003430303231383030006770696F403430DE
:103D0400303231343030006770696F4034303032D3
:103D140031303030006770696F4034303032306396
:103D24003030006770696F403430303230383030B2
:103D3400006770696F40343030323034303000679F
:103D440070696F4034303032303030300072302F90
:103D540061313A2020307825303878202072312F94
:103D640061323A2020307825303878202072322F82
:103D740061333A20203078253038780A0072332FA6
:103D840061343A2020307825303878207231322F4F
:103D940069703A2020307825303878207231342FF9
:103DA4006C723A20203078253038780A00207870F8
:103DB40073723A20203078253038780A00466175CD
:103DC4006C74696E6720696E737472756374696F5D
:103DD4006E206164647265737320287231352F70AC
:103DE40063293A203078253038780A00556E6861A6
:103DF4006E646C6564204952516E3A2025640A0051
:103E04002A2A2A2A2A204D5055204641554C54200E
:103E14002A2A2A2A2A0A002020537461636B696EB5
:103E240067206572726F722028636F6E7465787490
:103E34002061726561206D69676874206265206E17
:103E44006F742076616C6964290A002020556E73B2
:103E54007461636B696E67206572726F720A002009
:103E64002044617461204163636573732056696FF4
:103E74006C6174696F6E0A0020204D4D46415220DA
:103E8400416464726573733A20307825780A00209F
:103E940020496E737472756374696F6E2041636335
:103EA4006573732056696F6C6174696F6E0A0020C4
:103EB40020466C6F6174696E672D706F696E742033
:103EC4006C617A79207374617465207072657365AE
:103ED40072766174696F6E206572726F720A002A5D
:103EE4002A2A2A2A205553414745204641554C54F5
:103EF400202A2A2A2A2A0A0020204469766973691A
:103F04006F6E206279207A65726F0A002020556EE8
:103F1400616C69676E6564206D656D6F727920618F
:103F240063636573730A0020204E6F20636F7072A1
:103F34006F636573736F7220696E737472756374E3
:103F4400696F6E730A002020496C6C6567616C2090
:103F54006C6F6164206F66204558435F5245545529
:103F6400524E20696E746F2050430A002020496C21
:103F74006C6567616C20757365206F662074686575
:103F840020455053520A002020417474656D7074AA
:103F940020746F206578656375746520756E64653B
:103FA40066696E656420696E737472756374696F93
:103FB4006E0A002A2A2A2A2A2042555320464155AD
:103FC4004C54202A2A2A2A2A0A0020205374616386
:103FD4006B696E67206572726F720A0020205072DE
:103FE400656369736520646174612062757320651B
:103FF40072726F720A00202042464152204164646A
:10400400726573733A20307825780A002020496D50
:10401400707265636973652064617461206275738D
:10402400206572726F720A002020496E7374727573
:104034006374696F6E20627573206572726F720AA1
:1040440000526573657276656420457863657074A3
:10405400696F6E20280053707572696F75732069DB
:104064006E74657272757074202849525120005321
:104074005053454C20696E20746872656164206DEC
:104084006F646520646F6573206E6F7420696E645D
:104094006963617465205053500A002A2A2A2A2A27
:1040A4002048415244204641554C54202A2A2A2A69
:1040B4002A0A002020427573206661756C74206F93
:1040C4006E20766563746F72207461626C65207211
:1040D4006561640A00202044656275672065766521
:1040E4006E740A0020204661756C742065736361E8
:1040F4006C6174696F6E20287365652062656C6FEE
:1041040077290A00415243485F455843455054209B
:104114007769746820726561736F6E2025780A0A66
:10412400002A2A2A2A2A204465627567206D6F6E48
:1041340069746F7220657863657074696F6E202A84
:104144002A2A2A2A0A002A2A2A2A2A2025732025EA
:104154006429202A2A2A2A2A0A00464C4153485F05
:1041640030005352414D5F3000696E746572727550
:1041740070742D636F6E74726F6C6C657240343042
:104184003031336330300072636340343030323363
:104194003830300072657365742D636F6E74726F9E
:1041A4006C6C65720073657269616C4034303030D8
:1041B400343830300073657269616C4034303031AA
:1041C400313430300073657269616C4034303030A2
:1041D40034343030006D61696E00286E756C6C2962
:1041E400002A666C6F61742A000A0605050401033F
:1041F40001020101010001000000000000000001B3
:0842040002030406070809008B
:10420C00392C0008000000001B2E000800000000E4
:10421C00000000001800002000C201000001030093
:10422C002400002000C20100000103003000002027
:10423C0000C20100000103000024F400C8000000CB
:10424C00FFFFFFFF4400002044000020FFFFFFFFA2
:0C425C00FFFFFFFFFFFFFFFFFFFFFFFF62
:104268000000000000000000000000000000000046
:104278000000000000000000000000000000000036
:0442880015E015E048
:0400000508000BDD07
:00000001FF
