:020000040800F2
:1000000080110020410B0008FF2D00082D0B000877
:100010002D0B00082D0B00082D0B00080000000020
:10002000000000000000000000000000750B000848
:100030002D0B000800000000150D0008E516000853
:100040008D0D00088D0D00088D0D00088D0D000828
:100050008D0D00088D0D00088D0D00088D0D000818
:100060008D0D00088D0D00088D0D00088D0D000808
:100070008D0D00088D0D00088D0D00088D0D0008F8
:100080008D0D00088D0D00088D0D00088D0D0008E8
:100090008D0D00088D0D00088D0D00088D0D0008D8
:1000A0008D0D00088D0D00088D0D00088D0D0008C8
:1000B0008D0D00088D0D00088D0D00088D0D0008B8
:1000C0008D0D00088D0D00088D0D00088D0D0008A8
:1000D0008D0D00088D0D00088D0D00088D0D000898
:1000E0008D0D00088D0D00088D0D00088D0D000888
:1000F0008D0D00088D0D00088D0D00088D0D000878
:100100008D0D00088D0D00088D0D00088D0D000867
:100110008D0D00088D0D00088D0D00088D0D000857
:100120008D0D00088D0D00088D0D00088D0D000847
:100130008D0D00088D0D00088D0D00088D0D000837
:100140008D0D00088D0D00088D0D00088D0D000827
:100150008D0D00088D0D00088D0D00088D0D000817
:1001600053B94AB9002908BF00281CBF4FF0FF311E
:100170004FF0FF3000F00CB8ADF1080C6DE904CE83
:1001800000F008F8DDF804E0DDE9022304B0704770
:10019000704700BF2DE9F0478C468E46089E1546F5
:1001A00004461946002B40F0D080724547D9B2FA78
:1001B00082F74FB1C7F120030EFA07FC20FA03F3D0
:1001C000BD4043EA0C0CBC404FEA154EA8B2BCFB44
:1001D000FEF8230C0EFB18CC08FB00F943EA0C4395
:1001E000994528D9EB1808F1FF3204D2994502D974
:1001F000A8F102022B44A3EB0903A4B2B3FBFEFC5B
:100200000EFB1C330CFB00F044EA0344A04214D95B
:100210002C190CF1FF3304D2A04202D9ACF1020335
:100220002C44241A43EA02401EB1FC4000233460EF
:100230007360BDE8F0874246DDE76346F1E7002AD8
:1002400079D0B2FA82F3002B3FD01946C1F12003D6
:1002500002FA01F52EFA03F20EFA01FE20FA03F378
:1002600043EA0E034FEA154E00FA01F4B2FBFEFC1E
:10027000AFB20EFB1C201A0C0CFB07F842EA00423E
:1002800090455AD9AA180CF1FF3004D2904502D9F2
:10029000ACF102002A44A2EB08029BB2B2FBFEFCC6
:1002A0000EFB1C220CFB07F743EA02439F4246D990
:1002B000EB180CF1FF3204D29F4202D9ACF10202DA
:1002C0002B44DB1B42EA004202E0AEEB02030122B8
:1002D0004FEA154EAFB2B3FBFEFC200C0EFB1C33F5
:1002E0000CFB07F840EA034398452AD9EB180CF1B8
:1002F000FF3004D2984502D9ACF102002B44A3EBA5
:100300000803A4B2B3FBFEFC0EFB1C330CFB07F787
:1003100044EA0344A74216D92C190CF1FF3304D246
:10032000A74202D9ACF102032C44E41B43EA00408B
:100330000F46114678E71F2188E76046ABE7624623
:10034000BFE76046DBE76346EFE7734506D916B9BA
:10035000002108466DE7C6E9000EF9E7B3FA83F716
:1003600087B9734501D3824207D8841A6EEB030321
:1003700001209C461EB900215BE73846FAE7C6E932
:10038000004CF8E7C7F1200CBB4022FA0CF51D43E6
:1003900020FA0CF12EFA0CF30EFA07FE41EA0E01D8
:1003A0004FEA154900FA07F4B3FBF9F81FFA85FE86
:1003B00009FB18300B0C08FB0EFA43EA00439A4580
:1003C00002FA07F240D9EB1808F1FF3004D29A453F
:1003D00002D9A8F102002B44A3EB0A0389B2B3FBB4
:1003E000F9F809FB183308FB0EFE41EA03418E457C
:1003F0002CD9691808F1FF3304D28E4502D9A8F12F
:100400000203294443EA0040A0FB0298A1EB0E013D
:100410004145CE46434602D306D14C4504D2B9EB02
:10042000020E68EB05030138002EA4D0B4EB0E02D7
:1004300061EB030101FA0CFC22FA07F34CEA030317
:10044000F940C6E9003196E74046C5E74346D9E79B
:10045000014802F017BC00BFF63C000807B5084889
:1004600002F010FC44F6206200230648CDE9002388
:1004700002F02CF90021044803F017F8FAE700BF56
:10048000043D000880000020A086010008B5024855
:1004900002F0F8FB002008BD173D0008014B1B6867
:1004A000184700BF00000020014B1860704700BFD4
:1004B0000000002030B5044685B00D461022002112
:1004C000684603F036F802238DF802302A46044BC2
:1004D00001932146684602F021F905B030BD00BF06
:1004E0009D040008034A536823F002035360002070
:1004F000704700BF002004E038B545680F4C204627
:1005000002F02CFF98B1A3681B689BB129462046D6
:10051000984700280ADB00F037F8094B5A6842F484
:1005200000725A605A689205FCD5002038BD6FF001
:100530001200FBE76FF05700F8E700BFB83600087D
:100540000070004008B54168054883681B680C319D
:100550001BB1984700EAE07008BD6FF05700F9E75B
:10056000B8360008072810B502D90024204610BD6F
:10057000044B53F82040204602F0F0FE0028F5D14D
:10058000F3E700BFB03B0008EFF31180102383F3C3
:100590001288BFF36F8F094B1A683AB9084A11687D
:1005A00041F4807111601168C905FCD51A680132E7
:1005B0001A6080F31188BFF36F8F7047C802002064
:1005C00000700040084B1A6842F480721A601A6882
:1005D00042F400721A601A6842F480621A60034B97
:1005E000034A1A60704700BF003C024038000020F8
:1005F0000024F400014B036000207047D03B00084A
:1006000080B505460E461746984601F0F3FD0346B1
:1006100000F0CEFBDFF81890044649F8003042465F
:1006200030463946A84754F8090000F05DFB00BF8A
:100630000800000008B50348034A0021121A02F01E
:10064000D6FB08BDB8000020A80300200748084AD0
:10065000084908B5121A02F0CCFB0748074A0849B6
:10066000BDE80840121A02F0C4BB00BF0000002021
:10067000B80000208C42000800000020000000208C
:100680008C42000838B505460C4699B1D1E90123E2
:100690000F48096802F0F6FAD4E90423E1680D482E
:1006A00002F0F0FAE1690C4802F0ECFAA1690B489B
:1006B00002F0E8FA012D05D1EFF305810848103961
:1006C00002F0E0FA21462846BDE8384001F0ACB916
:1006D000D23D0008023E0008323E0008423E0008BB
:1006E000713E000830BFFFF7FDBF00BF2DE9F041AC
:1006F0000B4EDFF8308006EB0807CC1B0546324670
:100700000949204602F007FFA01942460021083C93
:1007100002F00FFF2C6707F10800BDE8F08100BF71
:100720000000000004000000003B00082DE9F84331
:10073000324D804632488946174602F0A3FAAB6A2A
:10074000DE0622D52F4802F09DFA1124AB6A1D0760
:1007500003D52D4802F096FA1224284DAB6A98076B
:1007600015D52A4802F08EFA6E6BAB6A190642D58F
:100770002748314602F086FAB9F1000F03D0AB6A80
:1007800023F08003AB62132403E01024DEE76FF054
:1007900015061A4DAB6ADA0703D51E4802F072FA45
:1007A0001424AB6A9B0603D51B4802F06BFA152490
:1007B000124B9A6AD50602D49A6A90070AD55B68EA
:1007C000190507D54146304600F044FA10B180F3D0
:1007D00009880224094B9A6A920642BF5A6A22F497
:1007E00000525A629A6A42F0FF029A6200233B70FA
:1007F0002046BDE8F8836FF01506C4E700ED00E081
:10080000853E00089C3E0008D03E0008E43E0008FB
:10081000FD3E0008143F0008343F000810B51D4C91
:100820001D4802F02FFAA36A990130D51B4802F047
:1008300029FA1E20A36ADA0103D5194802F022FA28
:100840001F20144CA36A1B0303D5164802F01AFAA2
:100850002120A36A590303D5134802F013FA22207A
:100860000C4CA36A9A0303D5104802F00BFA23201C
:10087000A36ADB0303D50E4802F004FA2420054ADC
:10088000936A6FEA03436FEA1343936210BD1D201E
:10089000D0E700BF00ED00E0643F00087D3F0008A6
:1008A000913F0008AC3F0008CB3F0008F13F000833
:1008B0000C40000870B5244C064624480D4602F052
:1008C000E1F9A36AD90435D5214802F0DBF91720F4
:1008D000A36A1A0503D51F4802F0D4F918201A4C50
:1008E000A36A9B050FD51C4802F0CCF9A16BA36A43
:1008F000180407D5194802F0C5F91EB1A36A23F4FC
:100900000043A3621920104CA36A590503D514486B
:1009100002F0B8F91A20A36ADA050DD5114802F0E1
:10092000B1F91B20084A936A43F47F439362002382
:100930002B7070BD1620CBE7A36A9B04F2D50A4842
:1009400002F0A0F91C20EDE700ED00E038400008BF
:100950004F400008D03E0008614000087B4000087E
:1009600091400008AD400008343F00082DE9F041F7
:100970005D4B5F688AB00446C7F30806002585F31F
:100980001188BFF36F8F02F07F43B3F17F4F06D121
:1009900002F00C03082B13D1544802F073F9002520
:1009A0002C464FF00008F31E8DF80780092B00F24B
:1009B0008C80DFE803F00A80847C8A8A8A8A8A88AD
:1009C00010074CBF0C460125EBE74948464E02F0A4
:1009D00059F98DF80780F36A9A0704D5454802F063
:1009E00051F900232AE0F36A002B01DA4248F6E7C6
:1009F000F36A5B00F5D5414802F044F97369A269D6
:100A000043F480737361BFF34F8FBFF36F8F32F87E
:100A1000023C726922F480727261BFF34F8FBFF3A0
:100A20006F8F03F47F42B2F55F4F27D1DBB2022B09
:100A300024D12168324802F025F923689DF8072067
:100A4000CAB902AE04F1200720686168324603C2C9
:100A50000834BC421646F7D1099A002D41D0C2F3A2
:100A6000080121B96FEA52226FEA4222099202A9D3
:100A70001846FFF707FE0AB0BDE8F0811A4B9A6AE4
:100A8000D2B232B10DF1070201212046FFF74EFE2E
:100A90000FE09A6A12F47F4F05D00DF10701012093
:100AA000FFF708FF05E09B6AB3F5803F99D3FFF796
:100AB000B5FE0346C2E70DF107020021E5E70DF19F
:100AC00007010020ECE70F4889E70F4B0F4910485A
:100AD00017F4F87FA6F1100208BF194602F0D2F809
:100AE0007FE76FF30802C1E700ED00E0F440000883
:100AF00020410008384100085A41000869410008B7
:100B000089410008A6410008C6400008DB400008F3
:100B1000CB410008044B5A6942F010025A615A69ED
:100B200022F008025A61704700ED00E0EFF3088000
:100B3000EFF3098101B57246FFF718FF01BD00BF51
:100B40000A4880F30888102080F3118808484FF481
:100B50000461401880F30988EFF3148002210843F0
:100B600080F31488BFF36F8F00F03CF880110020F1
:100B7000C00300201EF0040F0CBFEFF30880EFF35A
:100B80000980816911F8021C0229FFD001B5724663
:100B900002F031F901BD00BF40B20028A8BF00F14A
:100BA000604001F10101B8BF064B4FEA0111ACBF33
:100BB00000F5614000F00F00C9B2B4BF195480F8CD
:100BC0000013704714ED00E0044B054A23F07F0347
:100BD0009360BFF34F8FBFF36F8F70470000000823
:100BE00000ED00E008B5FFF7EFFF0B4AD2F88830C0
:100BF00023F47003C2F88830EFF3148323F0040366
:100C000083F31488BFF36F8FFFF714FDFFF71EFD0A
:100C100000F0B0F800F0CEFF00ED00E042F8203C1C
:100C2000009B42F81C3C0A49019B42F8183C029B7D
:100C300042F8143C21F001014FF0807342F8043C6B
:100C400042F8081C0023203A02654367704700BF42
:100C500001060008094A0346906870B113F1160FA7
:100C6000006E05D0A0F14002934205D3834203D227
:100C7000814228BF00207047002070477803002081
:100C800008B515460B4A0C4B9060026F1A600E4671
:100C900000F0A0F82C4686F309880020034B984703
:100CA0002046002100220023014C20471B2E000873
:100CB0000106000878030020CC020020014B10221E
:100CC0001A61704700ED00E0054B5A699B689A4233
:100CD0001FBF044A536843F080535360704700BFFE
:100CE0007803002000ED00E0084B9B6883420BD1A5
:100CF000EFF3058343B1064B5A6842F080525A60C5
:100D00005A6A22F400425A6202F049BB780300207A
:100D100000ED00E014498A684FF030001044EFF312
:100D2000098C80E8F01F102080F31288BFF36F8FCA
:100D30000E4F4FF000664A698A603E60106F0C4C9F
:100D40002060506F0023536780F3118804B510466C
:100D500000F040F8BDE8044002F1300090E8F01FD8
:100D60008CF30988704700007803002004ED00E050
:100D7000CC020020044800231021C2180133482B64
:100D800082F80013F9D1704700E100E008B5EFF3F5
:100D90000583064A103B02EBC30152F83300496851
:100DA0008847BDE80840FFF78FBF00BF5C380008E8
:100DB0000148006870470000CC020020024B034A43
:100DC0000348012100F076B8000002200000002056
:100DD000D03B0008036E054A403B1360044B4021A2
:100DE000C2E901131046012100F06EB8D0020020C4
:100DF00000000B15084AC2F898000B6823F01F0387
:100E0000034343F01003C2F89C308B6843F00103A6
:100E1000C2F8A030704700BF00ED00E02DE9F043BC
:100E2000DFF8608085B00E461F4604464FF000098B
:100E3000B14523DA6068D8B13FB1411E08421BD1E9
:100E40001F2819D92368194216D12368019301F08C
:100E5000F8FFA36803430393D8F89050C5F3072520
:100E6000D0B2013DA84207D801A9FFF7C3FF421C39
:100E700009F101090C34DBE76FF01502104605B0EB
:100E8000BDE8F08300ED00E0044B0522C3F8942098
:100E9000BFF34F8FBFF36F8F704700BF00ED00E0CF
:100EA000BFF35F8F024B0022C3F89420704700BF4E
:100EB00000ED00E010B5034C01232278FFF7AEFFF0
:100EC000207010BDA403002008B50B4A002312783F
:100ED000FFF7A4FF10F1160F07D0084A0021D2F83F
:100EE0009030C3F30723984200DB08BDC2F8980096
:100EF000C2F8A0100130F2E7A403002000ED00E0EA
:100F00002DE9F0435A4B5B4DD3F890302C68C3F376
:100F100007239C4285B000F2A780FFF7C1FF0020A5
:100F20000C2684421AD1544EDFF84491347068463E
:100F3000FFF760FB514C524D80460027B84514D155
:100F400033784B490020D1F89020C2F30722934216
:100F5000C0F28480FFF798FF002045E0696806FB37
:100F60000011FFF747FF0130DBE7009800EB0711A6
:100F70004FEA071CCB682340B3F5000F4DD00AD8C9
:100F8000B3F5001F33D0B3F5800F3BD0B3F5801F0E
:100F900013D00137D2E7B3F1007F47D0B3F1805FC0
:100FA0004DD0B3F1807FF4D150F80C3088684A6896
:100FB00001F047FF40F0887009E050F80C30886875
:100FC0004A6801F03EFF40F0885040F43020CDE9FF
:100FD00001230390D9F890303078C3F30723013B05
:100FE000984234D96FF0150005B0BDE8F08350F891
:100FF0000C3088684A6801F024FF40F0885040F4C3
:101000000020E4E750F80C3088684A6801F019FFC6
:1010100040F0C06040F40030D9E750F80C308868E8
:101020004A6801F00EFF40F08270D0E750F80C30B3
:1010300088684A6801F005FF40F48020C7E750F84F
:101040000C3088684A6801F0FCFE2843BFE701A91C
:10105000FFF7D0FE3378013333709AE7C1F8983048
:10106000C1F8A00001336EE74FF0FF30BCE700BFCE
:1010700000ED00E0DC3B0008A40300200000F0FFCE
:101080000000021108B5024B1B689847002008BDFC
:10109000DC020020034B044A1860937843F00203FB
:1010A00093707047DC0200200400002008B5064958
:1010B000064821F00701C1F1005202F5003201F0AB
:1010C0009EFD002008BD00BFC7110020E0020020E7
:1010D00007B5084A92E80300CDE900010648826896
:1010E000126822B16946904703B05DF804FB6FF0C7
:1010F0005700F9E7003B0008B83600081F2809D858
:10110000012303FA00F0044B5B6998430CBF0120F4
:101110000020704700207047003C014000F01F0293
:101120001F284FF0010303FA02F39DBF024A00207B
:1011300053616FF015007047003C0140044B1844A8
:10114000002301338B4200F8012BFADB704700BF0C
:101150004C0000202DE9F041104F054600264FF0CD
:1011600001086B78F4B2A34201D8BDE8F0812B7876
:101170001C442046FFF7C2FF68B12046FFF7CEFFB0
:1011800057F834303BB107EBC40204F01F04516838
:1011900008FA04F098470136E3E700BFEC020020AC
:1011A00038B52B4B18680B88C3F30B03162B14466A
:1011B0000D464FEA900219D80BB3013B152B1ED8F0
:1011C000DFE803F00D3A0B3A36242C1D1D1D1D1DC2
:1011D0001D1D1D1D1D1D1D1D380D4FF4FA402060E5
:1011E0002B68B3F5805F2BD2002038BD402B25D073
:1011F00008D823F00402302AF1D0382BEFD06FF05A
:101200008500F2E7442B07D0A82BF7E700F0D4F8CD
:101210004FF4A873C00858434008E0E700F0CCF84A
:101220004FF4A873C00858430723B0FBF3F0D6E788
:101230000848D4E75000D2E70020D0E71046CEE7B8
:10124000C3F313330133B0FBF3F02060CCE700BFEE
:101250003800002000127A00162808D8054BC34039
:1012600013F0010F0CBF6FF08500002070476FF086
:1012700085007047EA006000F8B54A4E4A4F00F01A
:10128000BFF8304601F0B2FE00F0F2FABB68474A00
:10129000C3F303131478D35C46FA04F420FA03F57D
:1012A000A54202D2204600F02BFB3B6843F480238A
:1012B0003B603B6843F480333B603B4B1A689103CF
:1012C000FCD55A6F42F001025A675A6F9207FCD55B
:1012D0009A6802F00C02082A17D11A68970707D4F7
:1012E0001A6842F001021A602F4A13689807FCD569
:1012F0002D4B9A6822F003029A609A6812F00C0F44
:10130000FBD19A6822F0F0029A60274F3B6823F0E5
:1013100080733B603B689901FCD4254AD2F80438BD
:1013200023F44033C2F80438D2F8043823F0706351
:1013300043F0E063C2F8043800F042F83B6843F041
:1013400080733B60184B1A689201FCD59A6822F0B2
:10135000F0029A609A6822F0030242F002029A6058
:101360009A6802F00C02082AFAD1A54202D320465C
:1013700000F0C6FA0F4B1E600B4B9A6822F4E05245
:1013800042F4A0529A609A6822F4604242F4004209
:101390009A60D3F88C2022F08072C3F88C20002051
:1013A000F8BD00BF007A030A003802407C42000802
:1013B00000300240380000200048704700127A00D8
:1013C0000A4B0B495A6811400A4A0A435A605A6844
:1013D000094922F440325A605A6822F0E0425A60C9
:1013E0005A681140054A0A435A6070470038024063
:1013F0000080BFFF085440000080BFF00854400741
:10140000064B1A6C42F0805282B01A641B6C03F0D7
:1014100080530193019B02B0704700BF0038024027
:1014200008B5074801F09AFF38B10648FFF732FEC9
:101430000448FFF739F8002008BD6FF01200FBE701
:10144000EC370008491400080A2838B5074D04464F
:1014500004D1AB680D215B6828469847AB68034808
:101460005B68E1B29847204638BD00BFEC37000802
:10147000F8B50C46036941681E682379012B35D005
:101480009A1E55425541AD026279022A9CBF384FDF
:1014900037F812C0A27988BF4FF4005C042A28D024
:1014A000003B18BF01231B03E279012A0A680CBF25
:1014B0004FF440770027A642D1681DD121F4B051E6
:1014C00029430B43D360136923F4405343EA0C03CD
:1014D000136143681A68536923F440733B435361B3
:1014E00031684068BDE8F84001F020BE4FF4C065A7
:1014F000CAE74FF48053D7E701F4C0618D421FBFA4
:10150000D16821F4C0612943D160426811680A6939
:1015100002F4405294451FBF0A6922F4405242EA45
:101520000C020A6142681168CA6802F48052934250
:101530001FBFCA6822F480521343CB6043681A6805
:10154000536903F440739F421FBF536923F44073F0
:101550003B43536121683368994206D0406801F0EB
:10156000E5FD08B923683360F8BD0020FCE700BF43
:10157000F03C0008F8B543681C6803691E680B79E5
:10158000012B0D461AD0991E4A424A41920295F803
:1015900005C0AF79BCF1020F96BF32494FF400513C
:1015A00031F81C10042F00D083B1A3F1030EBEF15B
:1015B000010F06D86FF085031846F8BD4FF4C062DE
:1015C000E5E70BB1042FF5D04FF48053B1F5805F00
:1015D0003ED0B1F5405F3DD000290CBF0121032171
:1015E0008C45E7D1002B37D0002A0CBF04230323FE
:1015F0009F42DFD1EB79C3B1012BDBD11A4B9C4267
:1016000013D0A3F54C439C420FD003F580639C425A
:101610000BD003F580639C4207D003F580639C42A6
:1016200003D003F544439C42C4D1E36823F4005340
:10163000E3602946FFF71CFF03460028BAD1E268A1
:1016400042F40052E26095E8030086E80300B3E745
:101650000021C5E70221C3E7002A0CBF03230223B0
:10166000C6E700BFF03C0008001001404FF0E02347
:101670000D4A9969126818699B69002908BF1146CB
:10168000002B08BF134610F4803F084801D199424F
:1016900005D20168114401604FF0E021096900683A
:1016A0001044C01A704700BF740300206C03002070
:1016B000094B102283F82320084B44F2A0121A6031
:1016C000074B002018604FF0E02344F29F125A614C
:1016D000072298611A61704700ED00E07403002052
:1016E0006C030020684620F007018D46F1B501F03B
:1016F00015FE0446FFF7BAFF124A1348D2E900511B
:1017000003685B19114D41F10001C2E90031D5E9CF
:10171000006144F2A012002707609B1BB3FBF2F0AC
:1017200002FB00F39B1941F10001C5E90031084BB0
:1017300021461F6000F0D4FEFFF7C6FABDE8F14075
:1017400085467047C00000206C030020B8000020D0
:10175000700300202DE9F041344E804669B1B0F1AC
:10176000FF3F0AD14FF0E022136923F00103136118
:101770004FF07F433360BDE8F081FFF777FF2C49DE
:101780002C4A35684FF0E0239C69D1E90037C31833
:1017900047F100070020B8F1FF3FC1E900371060B2
:1017A00025D02548D0E90020B3EB020C67EB0007F9
:1017B000002F37DB214B1B6844F2A01E13EB0803FC
:1017C0004FEAE87040F10000A3FB0E320EFB00224E
:1017D000B3EB0C0340F21B4062EB0702834272F151
:1017E00000001FDBB3F1807F72F1000201DB6FF0BC
:1017F0007F434FF0E0223360013B96695361002341
:1018000093610F4B4FF000725A60B442D1E900026D
:101810003ABF63199B1BA31B1B1842F10002C1E9CD
:101820000032A8E740F21A43E3E700BF7403002048
:10183000C00000206C030020B800002070030020CE
:1018400000ED00E010B5074B1C68074B1B68E41A5D
:10185000FFF70CFF44F2A0132044B0FBF3F0034B5E
:10186000186010BDC0000020B800002070030020E8
:1018700008B520498B6803F00C03082B07D00C2B0C
:1018800020D01D481D4A042B18BF104608BD4A68C9
:101890004B68496813F4800314BF17481748C1F315
:1018A000881118BF002302F03F02A1FB0001FEF7E0
:1018B00057FC104B5B68C3F3014301335B00B0FB83
:1018C000F3F0E3E74A684B68496813F4800314BFF8
:1018D00009480A48C1F3881118BF002302F03F02EB
:1018E000A1FB0001FEF73CFC024B5B68C3F30273F3
:1018F000E5E700BF0038024000127A000024F4003F
:10190000002800F08180424B1B6803F44043B3F58C
:10191000404F30D103F10F6303F58C53984207D841
:101920003C4B984209D83C4B984208D9032300E02D
:101930000523012B38BF012309E00423F9E7374BC6
:1019400098421AD8364B98424FF00003F1D8304AEB
:10195000126802F44042B2F5004F28D102F10F6242
:1019600002F5A34290420AD9002B08BF0523012BA0
:1019700038BF01231BE00023E9E70223E7E7254AFC
:10198000904203D9002B08BF0423F0E7224A90427B
:1019900003D9002B08BF0323E9E7204A904203D96B
:1019A000002BE4D1022302E01D4A9042DFD8184AFE
:1019B000126802F44042B2F5804F13D1164A9042A9
:1019C00006D9002B08BF0323012B38BF012309E0F0
:1019D000124A904203D9002BF6D1022302E0104AAA
:1019E0009042F1D80F490A6822F00F021A430A60A8
:1019F0000A6802F00F02934208D0086800F00F0056
:101A0000C01A18BF0120704701207047002070479E
:101A100000700040000E2707804A5D050087930391
:101A200080C3C901003C024038B5EFF31185102393
:101A300083F31288BFF36F8F064B9C6801F0A1FC03
:101A400085F31188BFF36F8F2046BDE83840FFF75C
:101A50004BB900BF7803002038B50A4B53F820403B
:101A6000013053F82050A54200D838BD606830B12D
:101A7000037EDB0701D401F059FC0834F3E7236847
:101A80009847FAE7D83C000870B5294B294C2A4DF5
:101A900086B0012203201A70FFF7DEFF0420FFF753
:101AA000DBFF2646AE4204F130040FD300F07EFB8C
:101AB000204CAC4226D300F08DFBFEF7CFFC1F4A32
:101AC000938923F00103938106B070BD54F80C3C58
:101AD000059354F8103C049354F8143C039354F8C1
:101AE000183C029354F81C3C019354F8203C00939A
:101AF00054E90A2354E90C0100F0C2F854F8303CD0
:101B00005E65CEE7D4E90A23B3F1FF3F08BFB2F127
:101B1000FF3F05D052EA0301206803D100F00CF921
:101B20003034C6E70649183000F0FAFBF8E700BF8A
:101B3000A50300209C3A00089C3A000848010020B8
:101B40007534000870B5002386B00122CDE9042366
:101B5000134E144D01930F22CDE902321249142382
:101B600003FB005506EBC01604464FF4C07000FBA3
:101B700004110E4B00954FF4A072304600F080F82F
:101B8000337C0B4AEE6023F0040333744FF4046398
:101B900004FB033313442C746B6006B070BD00BFAC
:101BA000C800002078030020000C002089330008C2
:101BB000C00300207FB50020FFF74EFF284B83F3C2
:101BC0000888284C636943F4007363610025F0239F
:101BD00084F82230E57725766576A57684F820505E
:101BE000636A43F4E0236362FEF794FFFFF766F84D
:101BF0004FF0FF33A362E362FFF782F9FFF7DEF8ED
:101C000019481A4C00F08CF8FEF7DCFC0120FFF7B5
:101C100023FF0220FFF720FF00F0C0FA144B154904
:101C20005C61154B059301234FF48062CDE90353AA
:101C3000CDE90155114B0095204600F021F8237C99
:101C4000064623F004032046237401F0DBFB2846FC
:101C5000FFF778FF094A31462046FFF711F800BF29
:101C6000000C002000ED00E0C80100204801002029
:101C700078030020800D00205A420008891A0008CD
:101C80002DE9F043073285B01F4622F0070200F12C
:101C90005803C0E916337F32109B838100250E461E
:101CA00022F03F020F9981730423C0E906550446D0
:101CB00085600374C573002100203F2AC4E90A012E
:101CC00006F14009A2F1400805D885F31188BFF359
:101CD0006F8F184602DFB51829462046FEF706FD2D
:101CE00007300E9B20F00700A066C4E91898029305
:101CF0000D9B01932D1A0C9B00932A463B463146BF
:101D00002046FEF78BFF00236365044B9B6803B1FD
:101D1000DB6EE366284605B0BDE8F083780300205B
:101D20000123037483810023C0E91833C366014B88
:101D3000986070477803002038B50446EFF31185AA
:101D4000102383F31288BFF36F8F037C5B070FD5DB
:101D5000183000F07DFB237C23F00403204623741D
:101D600001F05FFB29460548BDE8384001F09ABB09
:101D700085F31188BFF36F8F38BD00BFA603002025
:101D8000094A93686FF00A019967084958674B68D8
:101D900043F080534B60002383F31188BFF36F8FB0
:101DA0009368986F704700BF7803002000ED00E053
:101DB00038B590F91020037C002A014604DA03F0BC
:101DC0007F03037401F00CFB0D4D2A46AB6852F8FB
:101DD000184F944200D004B9EC688B4207D01A7CAB
:101DE000D20604D1DA897F2A01D9A2692AB1A34295
:101DF00002D0204600F034FA23466B6138BD00BFA4
:101E00007803002070B590F91020037C002A2FDBA6
:101E1000D9062DD11A4C63F07F032246037452F881
:101E2000183FE169934207D1C0E900210860E061F1
:101E30000FE09942F8D01B68002BF5D093F90E60A3
:101E400090F90E50AE42F4DD5968C0E900310860E7
:101E50005860A569954200D005B9E568A3681A7C69
:101E6000D20606D1DA897F2A03D9AA690AB9636141
:101E700070BDAB4202D0284600F0F2F96561F7E789
:101E800078030020034648B9EFF3058232B9064AC9
:101E900051699268914201D0FFF772BF83F31188B4
:101EA000BFF36F8F704700BF7803002038B5184C20
:101EB000A168E0690B68814214BF1A460022496894
:101EC0000B605960A368E1692AB9124AC3E900218D
:101ED0000B60E3610AE092F90E5093F90E0085421F
:101EE00012DD5168C3E900210B605360A569094BFD
:101EF0009D4200D005B9E568A3689D4202D02846FE
:101F000000F0AEF9656138BD8A42DED01268DBE7C9
:101F100078030020900300202DE9F047002A027C7E
:101F20000CBF4FF010094FF0080919EA020F0446E0
:101F30000E460F4628D149EA0203D20946D103745E
:101F4000B9F1080F48D04FF00008DFF8F0A0534671
:101F500053F8185F9D4200D00DB9DAF80C50DAF84A
:101F60000830AB4202D0284600F07AF9B9F1100FE0
:101F7000CAF8145008D0204600F04CFFB8F1000F0A
:101F800002D02F48FFF7CCFE2C4B9B68A3424FD1C9
:101F9000EFF30583002B4BD1A289D20711D586F32D
:101FA0001188BFF36F8F83F31188BFF36F8F042302
:101FB000184602DFEFF31187102383F31288BFF373
:101FC0006F8F3846BDE8F047FFF7DABE03F07F03B6
:101FD000037401F005FAB3E7A36813B1204601F0DA
:101FE00007FA04F1180000F033FAA56D04F158085F
:101FF000A84511D04FF0000A75B1284601F0F8F954
:1020000005F1180000F024FAC5F878A02846FFF77B
:10201000F9FEA56DA845EFD1084B9B689C4292D173
:10202000EFF30588B8F1000818BF4FF001088CE7FE
:1020300086F31188BFF36F8FBDE8F0877803002027
:10204000C801002070B50F4D2B46064653F8184FB7
:102050009C4200D004B9EC68AB681A7CD20604D16B
:10206000DA897F2A01D9A2692AB1A34202D0204687
:1020700000F0F6F823466B613046BDE87040FFF78C
:1020800001BF00BF7803002070B5EFF31186102365
:1020900083F31288BFF36F8F1A4CA168E0690B6855
:1020A000814214BF1A46002249680B605960A36838
:1020B000E1692AB9144AC3E900210B60E3610AE02F
:1020C00092F90E5093F90E00854216DD5168C3E96E
:1020D00000210B605360A5690B4B9D4200D005B9F0
:1020E000E568A3689D4202D0284600F0B9F8656112
:1020F0003046BDE87040FFF743BE8A42DAD012682E
:10210000D7E700BF7803002090030020F8B550EA1D
:10211000010306460C4603D101F060F90020F8BD2A
:10212000EFF31187102383F31288BFF36F8F174DDE
:10213000174BA868186001F076F9A868154932466F
:102140002346183000F0ECF8AB681A7C5F6742F069
:1021500004021A746FF00A029A670F4A536843F038
:10216000805353600446002383F31188BFF36F8FBD
:10217000AA68D2E90A12B2F1004F08BF9942CDD144
:1021800001F0C3F9201A20EAE070C8E778030020C4
:10219000980300207534000800ED00E0024B03F1C5
:1021A0001802C3E90622704778030020EFF311817B
:1021B000102383F31288BFF36F8F054B9A68D37B8C
:1021C000013BD37381F31188BFF36F8F704700BF5A
:1021D00078030020EFF31180102383F31288BFF3FC
:1021E0006F8F034B9A68D37B0133D373FFF72ABFFA
:1021F00078030020014B9868704700BF78030020E7
:10220000027C12F01F02034610D10A4988420DD009
:102210000949086868B1D9897F2909D893F90E203E
:10222000064B1B689A42B8BF0020704700207047D9
:1022300010467047C80000203C0000209C0300208E
:10224000044BC01A044BC0105843044B01221A54CB
:10225000704700BF48020020ABAAAAAAA60300202C
:10226000F8B50C4B0C4D1E7C0C4FFFF7C9FF182323
:1022700003FB06550446284600F0EAF834B1BB5D7E
:102280000749E21AD317284600F04AF80023BB5545
:10229000F8BD00BF7803002048020020A6030020FC
:1022A0004122000870B5EFF31186102383F31288E2
:1022B000BFF36F8F0F4D104BAC681868A04202D16E
:1022C000FFF7CEFF11E000221A602B7C0B4AD35C93
:1022D0005BB12046FFF794FF38B1237CDB0604D1C5
:1022E000FFF7E4FD6869A042EAD086F31188BFF3E6
:1022F0006F8F70BD7803002098030020A603002094
:10230000024B1868984208BF002070474400002024
:10231000024B186808B1FFF795BA704740000020DB
:10232000B3F1FF3F08BFB2F1FF3F2DE9F84F04467C
:10233000994615461F4600F081808160EFF31188B1
:10234000102383F31288BFF36F8FB9F1000FDFF80A
:10235000F4A025DBFFF7DCFF3B4B1B68003B18BFFD
:102360000123451949EBE0795B19DAE9005749F196
:102370000002C4E904325D19064642EB07074FF03C
:102380000109FFF7BDFFDFF8C4E0DEF804A0034653
:10239000EBB9C4E900EACAF80040CEF8044028E0EE
:1023A000DAE900126FF001035B1A4FF0FF3161EBC5
:1023B00002025B1B62EB0902012B72F10001BCBF40
:1023C00001230022C0E904324FF00009D9E7D3E924
:1023D000041CD4E904208A4270EB0C0B25DA891A1C
:1023E0005A686CEB0000C3E90410C4E900321460C1
:1023F0005C60FFF785FF84420FD1134B1B680133EC
:102400000BD1B9F1000F02D1FFF782FF064630462B
:1024100001F064F80021FFF79DF988F31188BFF3FC
:102420006F8F28463946BDE8F88F521A60EB0C00D2
:102430005345C4E90420ACD01B68A9E700252F460A
:10244000EFE700BF600200204000002044000020B1
:10245000F8B50246EFF31185102383F31288BFF31A
:102460006F8F016851B3FFF74BFF1C4B5B689A42BB
:1024700008D0D1E90434D2E90476DB1944EB060430
:10248000C1E90434D2E90031002400264FF00047AE
:1024900090420B605960C2E90044C2E9046705D06C
:1024A000002085F31188BFF36F8FF8BDFFF730FF71
:1024B00001F014F82146FFF74DF9F1E7D0E90413D4
:1024C000B3F1004F08BF012904D100204FF00041B3
:1024D000C2E904016FF01500E3E700BF44000020EB
:1024E0002DE9F84FDFF8BC902F4CC9F8000000230D
:1024F0002360FFF705FFDFF8B4800D4601264FF09B
:102500000047D9F80020D8E900CE4FEAE27A50B16E
:10251000D0E904319A427AEB010B1EDA9B1A61EB87
:102520000A01C0E9043112EB0C024EEB0A0300264B
:10253000C8E9002330464FF0FF332360C9F800603C
:1025400000F0CCFF3146FFF705F985F31188BFF3A2
:102550006F8FBDE8F84FFFF7A5BE13EB0C0CA2EB95
:102560000303C9F80030D0E90032D0F808A01360A6
:1025700041EB0E015A600023C8E900C1C0E90033F5
:10258000C0E9046785F31188BFF36F8FD047EFF37D
:102590001185102383F31288BFF36F8FFFF7B0FE0E
:1025A000AFE700BFA0030020400000206002002031
:1025B00010B5EFF31184102383F31288BFF36F8FEC
:1025C000FFF7A6FE054A0346D2E90001181841EBC1
:1025D000E37184F31188BFF36F8F10BD6002002098
:1025E0002DE9F0410446EFF31187102383F312889D
:1025F000BFF36F8FD0E904234FF00046B34208BF0A
:10260000012A05D087F31188BFF36F8FBDE8F081F1
:10261000D0E90A586A1C48F10003022A73F100034A
:1026200024D300F076FF281848EB0101012871F14E
:10263000000141DB00F06DFF6FF00203281848EB4A
:10264000010183426FF000438B413ADB00F061FFF0
:102650006FF001022D1848EB01084FF0FF33521BB9
:1026600063EB080318492046FFF75AFE236B01333A
:102670002363236A63B187F31188BFF36F8F20460A
:102680009847EFF31187102383F31288BFF36F8FFE
:1026900054F8185FA542B5D0002DB3D0284600F0FD
:1026A000C4FE0023AB6787F31188BFF36F8F284602
:1026B000BDE8F04100F0A6BE6FF001024FF0FF331D
:1026C000D0E700223346CDE7E1250008F8B50446FF
:1026D00016461D46EFF31187102383F31288BFF3CC
:1026E0006F8FB5F1FF3F08BFB2F1FF3F04D187F311
:1026F0001188BFF36F8FF8BDFFF7AAFEDDE9060171
:102700000023C4E90A01236332462B4620460249CE
:10271000FFF706FEEBE700BFE12500082DE9F04FCB
:102720008BB04368009383789C078046924640F1C3
:10273000F98000250878002800F0F68025280AD0C6
:102740004B1C019301354146009B98470028C0F27D
:10275000E3800199EEE74E788B1C252E0193F1D092
:102760000027B9463C460A221F2C22D8A6F1200396
:10277000102B20D8DFE803F0141F1F1A1F1F1F0B98
:102780001F1F1F121F171F1F090044F00104019B88
:1027900013F8016B0193002EE6D13AE044F00204F5
:1027A00044F00404F3E744F00804F0E744F01004B4
:1027B000EDE77F2C24D8A6F13003092B08D860065A
:1027C0004EBF02FB073702FB093944F02004DEE765
:1027D0002A2E0DD161065AF8043B53D4002BA7BF13
:1027E00044F020049946C3F1000944F02804CEE7E0
:1027F0002E2E05D1630600F1978044F04004C6E711
:102800006C2E2ED028D8682E32D06A2E37D04C2E7F
:1028100035D0002F46F02003B8BF24F04004A3F1C8
:102820006502BCBFA4B20027022A01D9612B2BD1BB
:102830000AF1070A2AF0070A9C4E0AF1080A07273C
:10284000210760D506EB070B34465C455DD1AE1B16
:10285000A219A9EB070959E1742E98D07A2E96D0C7
:10286000D7E7260648BF44F4007444F080048EE79E
:10287000E00548BF44F4007444F4807487E744F4EE
:10288000207484E71F4682E7A6F16302122A00F251
:10289000D880DFE812F013004D00D600D600D60035
:1028A000D6004D00D600D600D600D600D600E800EF
:1028B000D100D600D6001A00D600A0005AF8043B7A
:1028C0008DF81030012704AEBAE75AF8046B784B44
:1028D000002E08BF1E4614F0400F14BF39464FF0BB
:1028E000FF31304600F02DFE0746A9E7009B414628
:1028F0002020984700280FDB013CA742F6D34D4427
:102900002D1BA1469EE74C46F7E714F8010B009BF0
:1029100041469847002898DA98F8023043F00403BB
:1029200088F802304FF0FF3528460BB0BDE8F08F35
:10293000220630D5A3052AD50AF1070A2AF0070393
:102940009A4659685AF8080B24F0100B00291FFA10
:102950008BFB2FDA404261EB41014BF4806B04ACFE
:102960000A23224600F0F9FD1BF0400FA0EB040201
:1029700000F08E802BF001049742A4B240F38F80C8
:10298000002E40F08E802BF01104A4B21DE05AF806
:10299000040BC117D8E7E0055AF8041B01D4084618
:1029A000F7E7A2054BBF48B208B241F3C01141F3AB
:1029B000C031C9E750EA0103D1D16306CFD5002F5A
:1029C000CDD124F01104A4B23A463B4640F2064170
:1029D0000C4262D124E024F01004A4B20A2314F0C3
:1029E000800243D014F400711FBF0AF1070A2AF0D5
:1029F00007029246516814BF5AF8080B5AF8040BA4
:102A000050EA01023ED124F0160B62061FFA8BFB3E
:102A10003CD5002F3AD124F01704A4B23A463B46E5
:102A200021075AD4E10705D5994572DDA9EB0303C7
:102A30009F184B469B464AE044F01004102378262A
:102A4000CDE7782B04D1C6F1780343F01003C6E735
:102A5000009B4146252098470028FFF65DAF0235D0
:102A60004146304670E608230026B8E714F480712A
:102A70005AF8040BC4D014F400711ABFC0B2114646
:102A800080B2BDE724F006041FFA84FB04AC68E7BB
:102A900013465C46E10699D52EB90133C0E71346CB
:102AA000F8E73B46F6E70233BAE700BF66420008A4
:102AB0005F420008CDE902324146009B2020984742
:102AC0000028FFF629AFDDE902320BF1010BD945F1
:102AD000F0DCEB1A03EB0B055B46E10627D5CDE9ED
:102AE00002324146009B302098470028FFF614AF81
:102AF000DDE902327EB901352F44791B8A4229DB98
:102B0000144604AE9CBB2A44A9EB03091546914424
:102B100042E017468EE7CDE90232023541463046A3
:102B2000009B98470028DDE90232E5DAF4E640F23E
:102B300006410C42E0D014F0020F14BF2B202020DD
:102B400014F4806FCDE9023205F10105414618BF4A
:102B50002D20E5E7CDE902324146009B3020984721
:102B60000028DDE9023205F10105C6DAD4E6013CB0
:102B7000CDE90232305D009B414698470028DDE9EF
:102B80000232BFDAC8E6009B414620209847002861
:102B900005F10105FFF6C0AEA9EB0503002BF2DC41
:102BA000D7E500BF704700EBC10040884008704780
:102BB000F8B50346FFF7F7FFB0FA80F0C0F11F0049
:102BC00003EB800CCA00DCF81060171D0C460632BF
:102BD0008DB256B9012101FA00F0D9680143D960DC
:102BE000CCF81040DD539D52F8BDF1000431585A25
:102BF000D85303EBC0009E52C5805D52F4E7043AFF
:102C00002DE9F843CC1D114424F0070421F00706F8
:102C1000A6EB04084FEAD807B7FA87F2C2F12405F9
:102C2000AD004FF000090735C2F12002ED08046045
:102C30004946A760C4F80C90920004F1100000F01F
:102C400078FCAAB2530043F0010363807B1B9BB264
:102C500004EBC5015800A4F80090488024F8352002
:102C6000A6F8029024F8083004EBC70329465A88D6
:102C700042F001025A802046BDE8F843FFF798BFB2
:102C8000002070470FB407B504A951F8040B019157
:102C9000FDF710FC03B05DF804EB04B0704770471B
:102CA0006FF0570070476FF0570070476FF0570094
:102CB00070476FF0570070476FF0570070476FF024
:102CC00057007047F0B5406802F4C0454468B5F558
:102CD000804F4FF0010000FA01F074D10729C2F3D0
:102CE00043255AD890FAA0F3B3FA83F3266A9B00DF
:102CF0000F2707FA03F326EA030690FAA0F3B3FAC4
:102D000083F39B0005FA03F3334323626568C2F340
:102D1000C0338B4025EA00010B43636090FAA0F1B9
:102D2000B1FA81F1A5680326490006FA01F125EA06
:102D3000010590FAA0F1B1FA81F1C2F30143490013
:102D40008B402B43A36090FAA0F1B1FA81F1E568C2
:102D5000490006FA01F125EA010590FAA0F1B1FA5D
:102D600081F1C2F3814349008B402B43E36090FA29
:102D7000A0F3B3FA83F3216890FAA0F05B00B0FAF5
:102D800080F006FA03F34000C2F3413221EA030364
:102D900082401A4322600020F0BD030A93FAA3F692
:102DA000B6FA86F6676A93FAA3F3B6004FF00F0CF3
:102DB000B3FA83F30CFA06F69B0027EA06069D4059
:102DC00035436562A2E7B5F5005FA7D16668C2F337
:102DD000C03505FA01F126EA000529436160002BA0
:102DE0009CD0D30256BF0304A061A36196E700F014
:102DF000A0BB00F090BB01460068FDF743BC08B5DE
:102E0000FDF770FCBDE80840FDF75EBF0021012022
:102E1000FDF738BC6FF08500704761B662B680F38D
:102E20001188BFF36F8F704772B6002383F3118848
:102E3000BFF36F8FBFF34F8F30BF62B6BFF36F8F9B
:102E40007047202809D9B0F1004F08D80138B0FAEE
:102E500080F0C0F11F0040007047082070473E20FE
:102E6000704708B5FEF70EF9002008BD08B5062228
:102E700001210020FEF762F9002211460620FDF72D
:102E80008BFE012108460722FEF758F90022114661
:102E90000720FDF781FE082201210220FEF74EF9EE
:102EA000002211460820FDF777FE092201210320A8
:102EB000FEF744F9002211460920FDF76DFE0A22B3
:102EC00001210420FEF73AF9002211460A20FDF7FD
:102ED00063FE052108461722FEF730F9002211464D
:102EE0001720FDF759FE282206210A20FEF726F9B1
:102EF000002211462820FDF74FFE002008BD0B8858
:102F0000C3F30B0303F57D62C2F30B02782A82B090
:102F100014D803F1804303F50E3348681A6802435E
:102F20001A600B88C3F30B0303F1804303F50E33E0
:102F300000201B680193019B02B070476FF0850071
:102F4000FAE70B88C3F30B0303F57D62C2F30B02B0
:102F5000782A9FBF03F1804303F50E3349681A684E
:102F60009DBF8A4300201A606FF08500704770B5DE
:102F700008884A68C0F30B0094B2C2F30445FEF718
:102F80006BF9A0B9FF2A11D004F18041C2F3415678
:102F900001F50E3101360123B3400C68013BAB4013
:102FA000120E24EA0303AA4013430B6070BD6FF0B6
:102FB0008500FBE70888C0F30B0008B500F57D63CA
:102FC000C3F30B03782B0AD800F1804000F50E30D4
:102FD0004B68026893430CBF0220012008BDFEF736
:102FE0003BF900280CBF02200120F7E7704730B5FD
:102FF000036813600579046804EBC504A34202D397
:103000006FF0010030BD5C798C4203F10803F0D110
:103010000020F7E7F8B5044600EB8105AC4201D18A
:1030200000200FE054F8046B06F01F00C6F34317AE
:10303000FDF798FA38B1012332463946FFF742FED0
:103040000028EBDAF8BD6FF01200FBE74368C1F32C
:103050004B101B6801F01F01C05801238B40034037
:10306000003B18BF012313700020704710B5436860
:10307000C1F34B101A6801F01F01845801238B40E3
:1030800023438350002010BD10B54368C1F34B1497
:10309000186801F01F01235801228A4023EA020325
:1030A0002350002010BD38B504460D46FFF7DEFF63
:1030B00029462046FFF7E8FF002038BD82B00368AC
:1030C0000193019B43680193019B02B0704708B5CF
:1030D0004368186802680368C2F3C00203F0010382
:1030E00042EA430203689B07036848BF42F00402B8
:1030F0005907036848BF42F02002DB0542BF6FF466
:10310000807342F008020360D10701D5FFF7D6FFB4
:10311000930701D5FFF7D2FF510701D5FFF7CEFF87
:10312000930601D5FFF7CAFF104608BD37B5034621
:1031300004680D4619B96FF0150003B030BD406842
:1031400019698368DB6803B301AA98470028F4DB98
:10315000E368019923F400431920E360AA00AB0F50
:10316000A1FB0001FCF7FCFF6422B0FBF2F102FBC3
:1031700011031B013233B3FBF2F303EB01130F2BEB
:10318000D9D99BB2A3600020D7E76FF05700D4E7EE
:1031900008B54368186803681A0701D5FFF78EFF62
:1031A00003689B0643BF43680B7000204FF0FF305D
:1031B00008BD10B543681B6810201A681206FCD5BC
:1031C000EFF3118280F31288BFF36F8F1C6824061F
:1031D00004D482F31188BFF36F8FEEE7596082F356
:1031E0001188BFF36F8F10BDF7B54468054660685E
:1031F000216983681B68002B40D0984700283BDB7F
:10320000606A01AA0021FFF7F2FE002834DB019B6F
:10321000002219791868FFF7FDFE00282CDB6E6884
:103220002B6934681F68E36823F40053E360B068D7
:1032300000F094F828B3D6E902018368DB6803B193
:10324000984704F10C0353E8003F43F00C0304F1EA
:103250000C0141E80032002AF3D139462846FEF736
:1032600007F988B9337E1BB1636943F008036361D2
:10327000E36843F40053E36003B0F0BD6FF0570020
:10328000FAE76FF01200F7E76FF01500F4E7036953
:103290001B681B680B6043681B68DB6803F4C06332
:1032A000B3F5806F2FD0A3F5C06CDCF1000343EBC6
:1032B0000C030B7143681B681B6903F44053B3F59F
:1032C000805F22D0B3F5405F21D0002B0CBF0123DB
:1032D00003234B7143681B68DA68DB68D20403F48C
:1032E000C06316D5002B0CBF042303238B714368E6
:1032F0001B685B6903F44073A3F54072534253416A
:10330000CB71002070470223D3E70023E1E70223BB
:10331000DFE7002B0CBF03230223E7E7EFF3118065
:10332000102383F31288BFF36F8F704710B5436982
:1033300004463BB90020E268537843F00103537020
:10334000404210BD98470028F4D00028B8BF404242
:10335000E368FF28A8BFFF201870ECE740B1C368FE
:10336000587810F001001EBF1878B0FA80F04009BC
:103370007047EFF31183102383F31288BFF36F8F2D
:10338000FEE708B5FFF7F5FF10B51024EFF3118342
:1033900084F31288BFF36F8FFFF746FDF6E738B569
:1033A0008589EFF31181102282F31288BFF36F8FAA
:1033B000037C13F0080404D081F31188BFF36F8FEE
:1033C00038BD0122FEF7A8FDEB07F9D584F311887B
:1033D000BFF36F8F0423184602DFF1E7FEF754BEF8
:1033E000D0E9003213605A600023C0E9003370470F
:1033F00008B5FFF7F5FF037C23F0020303740023F5
:10340000836008BD10B5EFF31184102383F3128895
:10341000BFF36F8FFEF7F6FC84F31188BFF36F8F55
:1034200010BDFEF7EFBCFEF7C3BC08B5EFF311818A
:10343000102282F31288BFF36F8F83680BB1FFF7FE
:10344000D7FF81F31188BFF36F8F08BD08B5037CE8
:1034500013F0280F01460CD183680BB1FFF7C8FFAA
:103460000B7C23F004030B740846BDE80840FEF70C
:10347000C9BC08BD10B5EFF31184102383F3128883
:10348000BFF36F8FD0E90423B3F1004F08BF012AC7
:1034900004D084F31188BFF36F8F10BD1838FFF785
:1034A000D5FFF6E70846FEF7EDBC38B505460C46F5
:1034B000FEF72CFEB4F1FF3F08BFB5F1FF3F0AD085
:1034C000C11709304FF00A024FF0000341F100012B
:1034D000FCF746FE38BD4FF0FF30FBE708B502466B
:1034E000FEF70EFF70B1D0E904319B1A61EBE27276
:1034F000B3F1004F72F1000104DA002AACBF1846A4
:10350000002008BD6FF00040FBE708B5FFF750F85A
:1035100008BDFFF74DB80A44914200F1FF3300D1D6
:10352000704710B511F8014B03F8014F9142F9D1E2
:1035300010BD02440346934200D1704703F8011BBB
:10354000F9E710B5024601448A42134603D01C78BD
:103550000132002CF8D1181A10BDF0B5C3F13707AD
:103560000446FFB203F01F031046082BE6B233D027
:10357000102B3ED06508A40844EA817445EAC17561
:103580002D194FEA910242EB5102290941EA0271D9
:103590006D1842EB1212290A41EA02616D1842EBE2
:1035A0001222290C41EA02416D1842EB1242AD1879
:1035B00042F10002EC0844EA4274D10804EB8402B0
:1035C000A6EB4205EDB2092D0CD90134A5F10A058F
:1035D00041F10001EDB212E0E40844EA417406F062
:1035E0000705C908303554EA010200F8015BBCD177
:1035F000F0BD240944EA017406F00F050909092DFC
:0836000084BFED19EDB2EDE706
:083608008CCBFF7F01000000E4
:1036100000000000B8360008E504000800000000C3
:1036200000000000D4360008000000007C370008CD
:10363000000000009837000800000000B4370008C0
:1036400000000000D03700080000000060370008CC
:103650000000000044370008000000002837000880
:10366000000000000C37000800000000F0360008E1
:103670006D2E000800000000000000002438000843
:1036800000000000EC3700080000000008380008C7
:10369000211400080000000000000000403800086D
:1036A000B116000800000000AD1000080000000086
:0836B0008D0400080000000079
:1036B8000C42000800000000AC3A0008700000202E
:1036C80000000000791200080000000019420008FC
:1036D800FC3B00089C3A0008720000200000000033
:1036E8000000000000000000623D0008103B0008D8
:1036F800C83A00085E00002068020020450500085E
:1037080000000000703D0008243B0008C83A00088B
:103718006000002074020020450500080000000039
:103728007E3D0008383B0008C83A000862000020C7
:103738008002002045050008000000008C3D0008BC
:103748004C3B0008C83A0008640000208C020020A6
:1037580045050008000000009A3D0008603B00088D
:10376800C83A0008660000209802002045050008B5
:1037780000000000A83D0008743B0008C83A000893
:1037880068000020A4020020450500080000000091
:10379800B63D0008883B0008C83A00086A000020C7
:1037A800B00200204505000800000000C43D0008E4
:1037B8009C3B0008C83A00086C000020BC020020AE
:1037C8004505000800000000EE4100080000000068
:1037D800000000006E00002000000000D11000086A
:1037E800000000002A420008003C0008EC3A0008EB
:1037F8007400002014000020E931000800000000D7
:103808003A420008483C0008EC3A000876000020DC
:1038180020000020E9310008000000004A420008AA
:10382800903C0008EC3A0008780000202C000020AA
:10383800E931000800000000523D0008083B00087C
:10384800000000005C00002000000000F9040008EF
:04385800000000006C
:10385C00000000000D2E0008000000000D2E0008D6
:10386C00000000000D2E0008000000000D2E0008C6
:10387C00000000000D2E0008000000000D2E0008B6
:10388C007A420008551100087842000855110008CA
:10389C0076420008551100087442000855110008C2
:1038AC007242000855110008000000000D2E00089F
:1038BC00000000000D2E0008000000000D2E000876
:1038CC00000000000D2E0008000000000D2E000866
:1038DC00000000000D2E0008000000000D2E000856
:1038EC00000000000D2E0008000000000D2E000846
:1038FC00000000000D2E0008000000000D2E000836
:10390C00000000000D2E0008704200085511000840
:10391C00000000000D2E0008000000000D2E000815
:10392C00000000000D2E0008000000000D2E000805
:10393C00000000000D2E0008000000000D2E0008F5
:10394C00000000000D2E0008000000000D2E0008E5
:10395C00000000000D2E0008000000000D2E0008D5
:10396C00000000000D2E0008000000000D2E0008C5
:10397C00000000000D2E0008000000000D2E0008B5
:10398C00000000000D2E0008000000000D2E0008A5
:10399C006E42000855110008000000000D2E0008B2
:1039AC00000000000D2E0008000000000D2E000885
:1039BC00000000000D2E0008000000000D2E000875
:1039CC00000000000D2E0008000000000D2E000865
:1039DC00000000000D2E0008000000000D2E000855
:1039EC00000000000D2E0008000000000D2E000845
:1039FC00000000000D2E0008000000000D2E000835
:103A0C00000000000D2E0008000000000D2E000824
:103A1C00000000000D2E0008000000000D2E000814
:103A2C00000000000D2E0008000000000D2E000804
:103A3C00000000000D2E0008000000000D2E0008F4
:103A4C00000000000D2E0008000000000D2E0008E4
:103A5C00000000000D2E0008000000000D2E0008D4
:103A6C00000000000D2E0008000000000D2E0008C4
:103A7C00000000000D2E0008000000000D2E0008B4
:103A8C00000000000D2E0008000000000D2E0008A4
:103A9C004D3000086D30000889300008A730000850
:103AAC00FF2E0008432F000800000000A1110008A1
:103ABC00B52F0008000000006F2F0008A12C000893
:103ACC00A72C0008AD2C0008B32C0008BF2C000854
:103ADC00B92C0008000000000000000000000000ED
:103AEC0091310008B3310008CF300008751500087B
:043AFC008F320008FD
:103B000044000000004000003000000000000400FD
:103B1000FFFF0000001C0240070000003000000012
:103B200080000000FFFF00000018024006000000B7
:103B30003000000040000000FFFF000000140240C1
:103B4000050000003000000020000000FFFF000022
:103B500000100240040000003000000010000000CF
:103B6000FFFF0000000C02400300000030000000D6
:103B700008000000FFFF00000008024002000000F3
:103B80003000000004000000FFFF000000040240BD
:103B9000010000003000000002000000FFFF0000F4
:103BA00000000240000000003000000001000000A2
:103BB000B4370008983700087C37000860370008E1
:103BC00044370008283700080C370008F036000892
:103BD000000000200000000000000B0602000000B2
:103BE000E43B000800000008DF4100082400020652
:103BF00000000020E741000820000B1100380240BF
:103C000000480040B8360008D4360008120400000E
:103C1000283C000801000000000000000000000037
:103C200000000000303C00084000000000000400DC
:103C3000383C000801000000403C00080200000081
:103C4000034F0400234F000000140140B836000861
:103C5000D436000885040000703C00080100000014
:103C6000000000000000000000000000783C000898
:103C70004400000020000000803C0008010000001B
:103C8000883C000802000000C651040026510000D4
:103C900000440040B8360008D43600081104000083
:103CA000B83C000801000000000000000000000017
:103CB00000000000C03C00084000000000000200BE
:103CC000C83C000801000000D03C000802000000D1
:103CD000A34E0400C34E0000103600081036000842
:103CE000A0360008A8360008B0360008B83600082C
:103CF00000100000003054696D65722046697265DD
:103D000064210A005374617274696E672054696D8E
:103D100065722E2E2E0A002A2A2A20426F6F74699D
:103D20006E67205A6570687972204F5320627569FA
:103D30006C642076342E342E302D343533352D6797
:103D4000643266386533303862646334202A2A2A44
:103D50000A006D656D6F7279403430303234303026
:103D600030006770696F403430303231633030007A
:103D70006770696F403430303231383030006770EE
:103D8000696F403430303231343030006770696FE1
:103D9000403430303231303030006770696F403439
:103DA00030303230633030006770696F403430300B
:103DB0003230383030006770696F40343030323024
:103DC000343030006770696F40343030323030301A
:103DD000300072302F61313A202030782530387829
:103DE000202072312F61323A202030782530387807
:103DF000202072322F61333A2020307825303878F5
:103E00000A0072332F61343A202030782530387818
:103E1000207231322F69703A20203078253038787E
:103E2000207231342F6C723A202030782530387867
:103E30000A0020787073723A202030782530387864
:103E40000A004661756C74696E6720696E737472DE
:103E5000756374696F6E2061646472657373202882
:103E60007231352F7063293A203078253038780A3E
:103E700000556E68616E646C6564204952516E3AFB
:103E80002025640A002A2A2A2A2A204D5055204635
:103E900041554C54202A2A2A2A2A0A0020205374E9
:103EA00061636B696E67206572726F722028636F41
:103EB0006E746578742061726561206D69676874DD
:103EC000206265206E6F742076616C6964290A0037
:103ED0002020556E737461636B696E672065727222
:103EE0006F720A002020446174612041636365732E
:103EF000732056696F6C6174696F6E0A0020204DE3
:103F00004D46415220416464726573733A203078A3
:103F100025780A002020496E737472756374696F86
:103F20006E204163636573732056696F6C617469B9
:103F30006F6E0A002020466C6F6174696E672D7089
:103F40006F696E74206C617A792073746174652076
:103F5000707265736572766174696F6E20657272D6
:103F60006F720A002A2A2A2A2A20555341474520DF
:103F70004641554C54202A2A2A2A2A0A0020204445
:103F800069766973696F6E206279207A65726F0A4B
:103F9000002020556E616C69676E6564206D656DEB
:103FA0006F7279206163636573730A0020204E6F1E
:103FB00020636F70726F636573736F7220696E73C5
:103FC0007472756374696F6E730A002020496C6C9B
:103FD0006567616C206C6F6164206F662045584393
:103FE0005F52455455524E20696E746F2050430AFB
:103FF000002020496C6C6567616C20757365206FCB
:10400000662074686520455053520A002020417490
:1040100074656D707420746F206578656375746560
:1040200020756E646566696E656420696E7374726E
:10403000756374696F6E0A002A2A2A2A2A2042555B
:1040400053204641554C54202A2A2A2A2A0A002065
:1040500020537461636B696E67206572726F720AB8
:10406000002020507265636973652064617461206B
:10407000627573206572726F720A00202042464199
:104080005220416464726573733A20307825780A4F
:10409000002020496D7072656369736520646174E6
:1040A0006120627573206572726F720A0020204968
:1040B0006E737472756374696F6E206275732065B8
:1040C00072726F720A00526573657276656420457C
:1040D0007863657074696F6E20280053707572691B
:1040E0006F757320696E74657272757074202849DB
:1040F00052512000535053454C20696E2074687211
:10410000656164206D6F646520646F6573206E6FF8
:104110007420696E646963617465205053500A00AD
:104120002A2A2A2A2A2048415244204641554C54E2
:10413000202A2A2A2A2A0A00202042757320666132
:10414000756C74206F6E20766563746F7220746175
:10415000626C6520726561640A00202044656275A6
:1041600067206576656E740A0020204661756C7460
:1041700020657363616C6174696F6E202873656577
:104180002062656C6F77290A00415243485F4558A9
:1041900043455054207769746820726561736F6E6F
:1041A0002025780A0A002A2A2A2A2A2044656275CC
:1041B00067206D6F6E69746F7220657863657074C7
:1041C000696F6E202A2A2A2A2A0A002A2A2A2A2ADB
:1041D00020257320256429202A2A2A2A2A0A004613
:1041E0004C4153485F30005352414D5F3000696E7F
:1041F000746572727570742D636F6E74726F6C6C0F
:104200006572403430303133633030007263634064
:1042100034303032333830300072657365742D635A
:104220006F6E74726F6C6C65720073657269616C2D
:104230004034303030343830300073657269616C2E
:104240004034303031313430300073657269616C24
:10425000403430303034343030006D61696E0028C5
:104260006E756C6C29002A666C6F61742A000A06F0
:104270000505040103010201010100010000000025
:0C4280000000000001020304060708090A
:10428C00812C000800000000632E000800000000D4
:10429C00000000001800002000C201000001030013
:1042AC002400002000C201000001030030000020A7
:1042BC0000C20100000103000024F400C80000004B
:1042CC00FFFFFFFF4400002044000020FFFFFFFF22
:0C42DC00FFFFFFFFFFFFFFFFFFFFFFFFE2
:1042E80000000000000000000000000000000000C6
:1042F80000000000000000000000000000000000B6
:10430C000000000000000000E12500080000000093
:10431C000000000000000000980000209800002021
:10432C005104000800000000000000000000000024
:08433C00000000000000000079
:0443440015E015E08B
:0400000508000B41A3
:00000001FF
