:020000040800F2
:1000000000120020910B00089F3000087D0B0008B3
:100010007D0B00087D0B00087D0B00080000000030
:10002000000000000000000000000000C50B0008F8
:100030007D0B000800000000810D00084919000830
:10004000F90D0008F90D0008F90D0008F90D000878
:10005000F90D0008F90D0008F90D0008F90D000868
:10006000F90D0008F90D0008F90D0008F90D000858
:10007000F90D0008F90D0008F90D0008F90D000848
:10008000F90D0008F90D0008F90D0008F90D000838
:10009000F90D0008F90D0008F90D0008F90D000828
:1000A000F90D0008F90D0008F90D0008F90D000818
:1000B000F90D0008F90D0008F90D0008F90D000808
:1000C000F90D0008F90D0008F90D0008F90D0008F8
:1000D000F90D0008F90D0008F90D0008F90D0008E8
:1000E000F90D0008F90D0008F90D0008F90D0008D8
:1000F000F90D0008F90D0008F90D0008F90D0008C8
:10010000F90D0008F90D0008F90D0008F90D0008B7
:10011000F90D0008F90D0008F90D0008F90D0008A7
:10012000F90D0008F90D0008F90D0008F90D000897
:10013000F90D0008F90D0008F90D0008F90D000887
:10014000F90D0008F90D0008F90D0008F90D000877
:10015000F90D0008F90D0008F90D0008F90D000867
:1001600053B94AB9002908BF00281CBF4FF0FF311E
:100170004FF0FF3000F00CB8ADF1080C6DE904CE83
:1001800000F008F8DDF804E0DDE9022304B0704770
:10019000704700BF2DE9F0478C468E46089E1546F5
:1001A00004461946002B40F0D080724547D9B2FA78
:1001B00082F74FB1C7F120030EFA07FC20FA03F3D0
:1001C000BD4043EA0C0CBC404FEA154EA8B2BCFB44
:1001D000FEF8230C0EFB18CC08FB00F943EA0C4395
:1001E000994528D9EB1808F1FF3204D2994502D974
:1001F000A8F102022B44A3EB0903A4B2B3FBFEFC5B
:100200000EFB1C330CFB00F044EA0344A04214D95B
:100210002C190CF1FF3304D2A04202D9ACF1020335
:100220002C44241A43EA02401EB1FC4000233460EF
:100230007360BDE8F0874246DDE76346F1E7002AD8
:1002400079D0B2FA82F3002B3FD01946C1F12003D6
:1002500002FA01F52EFA03F20EFA01FE20FA03F378
:1002600043EA0E034FEA154E00FA01F4B2FBFEFC1E
:10027000AFB20EFB1C201A0C0CFB07F842EA00423E
:1002800090455AD9AA180CF1FF3004D2904502D9F2
:10029000ACF102002A44A2EB08029BB2B2FBFEFCC6
:1002A0000EFB1C220CFB07F743EA02439F4246D990
:1002B000EB180CF1FF3204D29F4202D9ACF10202DA
:1002C0002B44DB1B42EA004202E0AEEB02030122B8
:1002D0004FEA154EAFB2B3FBFEFC200C0EFB1C33F5
:1002E0000CFB07F840EA034398452AD9EB180CF1B8
:1002F000FF3004D2984502D9ACF102002B44A3EBA5
:100300000803A4B2B3FBFEFC0EFB1C330CFB07F787
:1003100044EA0344A74216D92C190CF1FF3304D246
:10032000A74202D9ACF102032C44E41B43EA00408B
:100330000F46114678E71F2188E76046ABE7624623
:10034000BFE76046DBE76346EFE7734506D916B9BA
:10035000002108466DE7C6E9000EF9E7B3FA83F716
:1003600087B9734501D3824207D8841A6EEB030321
:1003700001209C461EB900215BE73846FAE7C6E932
:10038000004CF8E7C7F1200CBB4022FA0CF51D43E6
:1003900020FA0CF12EFA0CF30EFA07FE41EA0E01D8
:1003A0004FEA154900FA07F4B3FBF9F81FFA85FE86
:1003B00009FB18300B0C08FB0EFA43EA00439A4580
:1003C00002FA07F240D9EB1808F1FF3004D29A453F
:1003D00002D9A8F102002B44A3EB0A0389B2B3FBB4
:1003E000F9F809FB183308FB0EFE41EA03418E457C
:1003F0002CD9691808F1FF3304D28E4502D9A8F12F
:100400000203294443EA0040A0FB0298A1EB0E013D
:100410004145CE46434602D306D14C4504D2B9EB02
:10042000020E68EB05030138002EA4D0B4EB0E02D7
:1004300061EB030101FA0CFC22FA07F34CEA030317
:10044000F940C6E9003196E74046C5E74346D9E79B
:100450002DE9FF411B4D1C48286003F0D1FB0446E9
:1004600040B31A4802F05EFD0026194802F05AFD1A
:1004700008240227CDE9016628688DF80C709DF8E4
:100480000C3043F002038DF80C3083680122D3F85E
:10049000088001A9A3B2C04718B90E48214602F04E
:1004A00041FD0134782CE5D100214CF2503003F0AD
:1004B0006FFCDAE7084802F035FD204604B0BDE8DD
:1004C000F08100BF300200206C410008C0460008E7
:1004D000D5460008E3460008AA46000808B50248C9
:1004E00002F020FD002008BDFB460008014B1B6800
:1004F000184700BF00000020014B1860704700BF84
:100500000000002030B5044685B00D4610220021C1
:10051000684603F07FFC02238DF802302A46044B24
:1005200001932146684602F049FA05B030BD00BF8C
:10053000ED040008034A536823F0020353600020CF
:10054000704700BF002004E038B545680F4C2046D6
:1005500003F056FB98B1A3681B689BB1294620465F
:10056000984700280ADB00F037F8094B5A6842F434
:1005700000725A605A689205FCD5002038BD6FF0B1
:100580001200FBE76FF05700F8E700BFAC3F000830
:100590000070004008B54168054883681B680C314D
:1005A0001BB1984700EAE07008BD6FF05700F9E70B
:1005B000AC3F0008072810B502D90024204610BD22
:1005C000044B53F82040204603F01AFB0028F5D1D5
:1005D000F3E700BFF4440008EFF31180102383F326
:1005E0001288BFF36F8F094B1A683AB9084A11682D
:1005F00041F4807111601168C905FCD51A68013297
:100600001A6080F31188BFF36F8F70479402002047
:1006100000700040084B1A6842F480721A601A6831
:1006200042F400721A601A6842F480621A60034B46
:10063000034A1A60704700BF003C024038000020A7
:100640000024F400014B03600020704714450008AB
:1006500080B505460E461746984601F0B9FF034699
:1006600000F0DCFBDFF81890044649F80030424601
:1006700030463946A84754F8090000F06BFB00BF2C
:100680000800000008B50348034A0021121A02F0CE
:10069000FEFC08BD800000201C0400200748084A1A
:1006A000084908B5121A02F0F4FC0748074A08493D
:1006B000BDE80840121A02F0ECBC00BF00000020A8
:1006C000800000208C4C000800000020000000206A
:1006D0008C4C000838B505460C4699B1D1E9012388
:1006E0000F48096802F01EFCD4E90423E1680D48B4
:1006F00002F018FCE1690C4802F014FCA1690B48F7
:1007000002F010FC012D05D1EFF3058108481039E6
:1007100002F008FC21462846BDE8384001F0B6BA90
:10072000B6470008E64700081648000826480008B3
:100730005548000830BFFFF7FDBF00BF2DE9F0416D
:100740000B4EDFF8308006EB0807CC1B054632461F
:100750000949204603F050FBA01942460021083CFD
:1007600003F058FB2C6707F10800BDE8F08100BFDB
:100770000000000004000000444400082DE9F84394
:10078000324D804632488946174602F0CBFBAB6AB1
:10079000DE0622D52F4802F0C5FB1124AB6A1D07E7
:1007A00003D52D4802F0BEFB1224284DAB6A9807F2
:1007B00015D52A4802F0B6FB6E6BAB6A190642D516
:1007C0002748314602F0AEFBB9F1000F03D0AB6A07
:1007D00023F08003AB62132403E01024DEE76FF004
:1007E00015061A4DAB6ADA0703D51E4802F09AFBCC
:1007F0001424AB6A9B0603D51B4802F093FB152417
:10080000124B9A6AD50602D49A6A90070AD55B6899
:10081000190507D54146304600F052FA10B180F371
:1008200009880224094B9A6A920642BF5A6A22F446
:1008300000525A629A6A42F0FF029A6200233B70A9
:100840002046BDE8F8836FF01506C4E700ED00E030
:100850006948000880480008B4480008C8480008F3
:10086000E1480008F84800081849000810B51D4C78
:100870001D4802F057FBA36A990130D51B4802F0CE
:1008800051FB1E20A36ADA0103D5194802F04AFB86
:100890001F20144CA36A1B0303D5164802F042FB29
:1008A0002120A36A590303D5134802F03BFB222001
:1008B0000C4CA36A9A0303D5104802F033FB2320A3
:1008C000A36ADB0303D50E4802F02CFB2420054A63
:1008D000936A6FEA03436FEA1343936210BD1D20CE
:1008E000D0E700BF00ED00E048490008614900087A
:1008F0007549000890490008AF490008D54900082B
:10090000F049000870B5244C064624480D4602F014
:1009100009FBA36AD90435D5214802F003FB17204F
:10092000A36A1A0503D51F4802F0FCFA18201A4CD6
:10093000A36A9B050FD51C4802F0F4FAA16BA36AC9
:10094000180407D5194802F0EDFA1EB1A36A23F482
:100950000043A3621920104CA36A590503D514481B
:1009600002F0E0FA1A20A36ADA050DD5114802F068
:10097000D9FA1B20084A936A43F47F439362002309
:100980002B7070BD1620CBE7A36A9B04F2D50A48F2
:1009900002F0C8FA1C20EDE700ED00E01C4A000858
:1009A000334A0008B4480008454A00085F4A000876
:1009B000754A0008914A0008184900082DE9F041DD
:1009C0005D4B5F688AB00446C7F30806002585F3CF
:1009D0001188BFF36F8F02F07F43B3F17F4F06D1D1
:1009E00002F00C03082B13D1544802F09BFA0025A7
:1009F0002C464FF00008F31E8DF80780092B00F2FB
:100A00008C80DFE803F00A80847C8A8A8A8A8A885C
:100A100010074CBF0C460125EBE74948464E02F053
:100A200081FA8DF80780F36A9A0704D5454802F0E9
:100A300079FA00232AE0F36A002B01DA4248F6E74C
:100A4000F36A5B00F5D5414802F06CFA7369A2695C
:100A500043F480737361BFF34F8FBFF36F8F32F82E
:100A6000023C726922F480727261BFF34F8FBFF350
:100A70006F8F03F47F42B2F55F4F27D1DBB2022BB9
:100A800024D12168324802F04DFA23689DF80720EE
:100A9000CAB902AE04F1200720686168324603C279
:100AA0000834BC421646F7D1099A002D41D0C2F352
:100AB000080121B96FEA52226FEA4222099202A983
:100AC0001846FFF707FE0AB0BDE8F0811A4B9A6A94
:100AD000D2B232B10DF1070201212046FFF74EFEDE
:100AE0000FE09A6A12F47F4F05D00DF10701012043
:100AF000FFF708FF05E09B6AB3F5803F99D3FFF746
:100B0000B5FE0346C2E70DF107020021E5E70DF14E
:100B100007010020ECE70F4889E70F4B0F49104809
:100B200017F4F87FA6F1100208BF194602F0FAF98F
:100B30007FE76FF30802C1E700ED00E0D84A000844
:100B4000044B00081C4B00083E4B00084D4B0008AE
:100B50006D4B00088A4B0008AA4A0008BF4A0008EB
:100B6000AF4B0008044B5A6942F010025A615A69AF
:100B700022F008025A61704700ED00E0EFF30880B0
:100B8000EFF3098101B57246FFF718FF01BD00BF01
:100B90000A4880F30888102080F3118808484FF431
:100BA0000461401880F30988EFF3148002210843A0
:100BB00080F31488BFF36F8F00F04AF80012002012
:100BC000400400201EF0040F0CBFEFF30880EFF389
:100BD0000980816911F8021C0229FFD001B5724613
:100BE00002F059FA01BD00BF40B2002807DB044AF9
:100BF0004109012300F01F00834042F82130704773
:100C000000E100E040B20028A8BF00F1604001F11F
:100C10000101B8BF064B4FEA0111ACBF00F56140BE
:100C200000F00F00C9B2B4BF195480F80013704728
:100C300014ED00E0044B054A23F07F039360BFF3FB
:100C40004F8FBFF36F8F70470000000800ED00E08A
:100C500008B5FFF7EFFF0B4AD2F8883023F4700392
:100C6000C2F88830EFF3148323F0040383F314886D
:100C7000BFF36F8FFFF706FDFFF710FD00F0B0F830
:100C800001F0CAF800ED00E042F8203C009B42F879
:100C90001C3C0A49019B42F8183C029B42F8143C58
:100CA00021F001014FF0807342F8043C42F8081C27
:100CB0000023203A02654367704700BF51060008D1
:100CC000094A0346906870B113F1160F006E05D003
:100CD000A0F14002934205D3834203D2814228BF50
:100CE0000020704700207047EC03002008B515462F
:100CF0000B4A0C4B9060026F1A600E4600F0A0F891
:100D00002C4686F309880020034B98472046002193
:100D100000220023014C2047BB3000085106000888
:100D2000EC03002098020020014B10221A6170474A
:100D300000ED00E0054B5A699B689A421FBF044AC8
:100D4000536843F080535360704700BFEC030020AA
:100D500000ED00E0084B9B6883420BD1EFF3058365
:100D600043B1064B5A6842F080525A605A6A22F4E4
:100D700000425A6202F071BFEC03002000ED00E077
:100D800014498A684FF030001044EFF3098C80E872
:100D9000F01F102080F31288BFF36F8F0E4F4FF0BB
:100DA00000664A698A603E60106F0C4C2060506F8C
:100DB0000023536780F3118804B5104600F040F813
:100DC000BDE8044002F1300090E8F01F8CF3098880
:100DD00070470000EC03002004ED00E098020020C2
:100DE000044800231021C2180133482B82F8001355
:100DF000F9D1704700E100E008B5EFF30583064A3A
:100E0000103B02EBC30152F8330049688847BDE844
:100E10000840FFF78FBF00BF884100080148006805
:100E20007047000098020020024B034A034801214A
:100E300000F076B8000002200000002014450008F1
:100E4000036E054A403B1360044B4021C2E9011385
:100E50001046012100F06EB89C02002000000B1526
:100E6000084AC2F898000B6823F01F03034343F0BD
:100E70001003C2F89C308B6843F00103C2F8A03025
:100E8000704700BF00ED00E02DE9F043DFF860801F
:100E900085B00E461F4604464FF00009B14523DADF
:100EA0006068D8B13FB1411E08421BD11F2819D933
:100EB0002368194216D12368019302F012F9A3683E
:100EC00003430393D8F89050C5F30725D0B2013DF2
:100ED000A84207D801A9FFF7C3FF421C09F1010985
:100EE0000C34DBE76FF01502104605B0BDE8F08367
:100EF00000ED00E0044B0522C3F89420BFF34F8FB0
:100F0000BFF36F8F704700BF00ED00E0BFF35F8F4E
:100F1000024B0022C3F89420704700BF00ED00E0B0
:100F200010B5034C01232278FFF7AEFF207010BDEF
:100F30001804002008B50B4A00231278FFF7A4FF1D
:100F400010F1160F07D0084A0021D2F89030C3F3F1
:100F50000723984200DB08BDC2F89800C2F8A01031
:100F60000130F2E71804002000ED00E02DE9F04325
:100F70005A4B5B4DD3F890302C68C3F307239C4247
:100F800085B000F2A780FFF7C1FF00200C26844245
:100F90001AD1544EDFF8449134706846FFF752FB83
:100FA000514C524D80460027B84514D133784B49F7
:100FB0000020D1F89020C2F307229342C0F284802F
:100FC000FFF798FF002045E0696806FB0011FFF776
:100FD00047FF0130DBE7009800EB07114FEA071CE1
:100FE000CB682340B3F5000F4DD00AD8B3F5001FEE
:100FF00033D0B3F5800F3BD0B3F5801F13D001374A
:10100000D2E7B3F1007F47D0B3F1805F4DD0B3F1A9
:10101000807FF4D150F80C3088684A6802F061F89B
:1010200040F0887009E050F80C3088684A6802F097
:1010300058F840F0885040F43020CDE90123039067
:10104000D9F890303078C3F30723013B984234D964
:101050006FF0150005B0BDE8F08350F80C308868DB
:101060004A6802F03EF840F0885040F40020E4E77F
:1010700050F80C3088684A6802F033F840F0C060DD
:1010800040F40030D9E750F80C3088684A6802F024
:1010900028F840F08270D0E750F80C3088684A6831
:1010A00002F01FF840F48020C7E750F80C30886841
:1010B0004A6802F016F82843BFE701A9FFF7D0FEFF
:1010C0003378013333709AE7C1F89830C1F8A00043
:1010D00001336EE74FF0FF30BCE700BF00ED00E0EA
:1010E00020450008180400200000F0FF0000021155
:1010F00008B5024B1B689847002008BDA8020020D5
:10110000034B044A1860937843F0020393707047CE
:10111000A80200200400002008B50649064821F076
:101120000701C1F1005202F5003201F0B8FE0020C3
:1011300008BD00BF47120020AC02002007B5084AD6
:1011400092E80300CDE9000106488268126822B1E6
:101150006946904703B05DF804FB6FF05700F9E76C
:1011600044440008AC3F00081F2809D8012303FAB3
:1011700000F0044B5B6998430CBF012000207047CE
:1011800000207047003C014000F01F021F284FF074
:10119000010303FA02F39DBF024A002053616FF07E
:1011A00015007047003C0140044B184400230133F4
:1011B0008B4200F8012BFADB704700BF4C00002087
:1011C0002DE9F041104F054600264FF001086B78DD
:1011D000F4B2A34201D8BDE8F0812B781C4420462C
:1011E000FFF7C2FF68B12046FFF7CEFF57F8343053
:1011F0003BB107EBC40204F01F04516808FA04F085
:1012000098470136E3E700BFB802002038B52B4B02
:1012100018680B88C3F30B03162B14460D464FEAD0
:10122000900219D80BB3013B152B1ED8DFE803F051
:101230000D3A0B3A36242C1D1D1D1D1D1D1D1D1D97
:101240001D1D1D1D380D4FF4FA4020602B68B3F5AD
:10125000805F2BD2002038BD402B25D008D823F04A
:101260000402302AF1D0382BEFD06FF08500F2E77E
:10127000442B07D0A82BF7E700F0D4F84FF4A8735D
:10128000C00858434008E0E700F0CCF84FF4A873DA
:10129000C00858430723B0FBF3F0D6E70848D4E76B
:1012A0005000D2E70020D0E71046CEE7C3F3133357
:1012B0000133B0FBF3F02060CCE700BF3800002022
:1012C00000127A00162808D8054BC34013F0010F0E
:1012D0000CBF6FF08500002070476FF085007047ED
:1012E000EA006000F8B54A4E4A4F00F0BFF83046B9
:1012F00001F0CCFF00F0EEFBBB68474AC3F30313D9
:101300001478D35C46FA04F420FA03F5A54202D21D
:10131000204600F027FC3B6843F480233B603B6899
:1013200043F480333B603B4B1A689103FCD55A6F02
:1013300042F001025A675A6F9207FCD59A6802F090
:101340000C02082A17D11A68970707D41A6842F0C6
:1013500001021A602F4A13689807FCD52D4B9A6832
:1013600022F003029A609A6812F00C0FFBD19A687F
:1013700022F0F0029A60274F3B6823F080733B60B5
:101380003B689901FCD4254AD2F8043823F4403351
:10139000C2F80438D2F8043823F0706343F0E063F5
:1013A000C2F8043800F042F83B6843F080733B60B9
:1013B000184B1A689201FCD59A6822F0F0029A60E4
:1013C0009A6822F0030242F002029A609A6802F0E0
:1013D0000C02082AFAD1A54202D3204600F0C2FB33
:1013E0000F4B1E600B4B9A6822F4E05242F4A0525D
:1013F0009A609A6822F4604242F400429A60D3F8FC
:101400008C2022F08072C3F88C200020F8BD00BF31
:10141000007A030A003802407A4C0008003002408B
:10142000380000200048704700127A000A4B0B4930
:101430005A6811400A4A0A435A605A68094922F414
:1014400040325A605A6822F0E0425A605A681140AD
:10145000054A0A435A607047003802400080BFFFC7
:10146000085440000080BFF008544007064B1A6C37
:1014700042F0805282B01A641B6C03F080530193D7
:10148000019B02B0704700BF0038024008B5074812
:1014900002F0B6FB38B10648FFF732FE0448FFF70A
:1014A0002BF8002008BD6FF01200FBE7E0400008B9
:1014B000B51400080A2838B5074D044604D1AB68B6
:1014C0000D215B6828469847AB6803485B68E1B22A
:1014D0009847204638BD00BFE0400008F7B50446F5
:1014E000436806691A48DD680F4659688368DB68F7
:1014F0000022019223B96FF00404204603B0F0BD2E
:1015000001AA98470028F6DB376206F110074FF072
:10151000FF324FF0FF33384600F018FD2B6823F000
:1015200001032B60204696F8521001F028FF019924
:1015300000F07CF8041E06DB96F851301BB12B68D6
:1015400043F001032B60384600F0CCFCD5E700BF28
:10155000AC3F000870B50446466805694FF0FF329D
:101560000021284602F06DFB33682046984700238F
:1015700085F8503085F852300122114605F11000EF
:1015800002F05FFB204600F033F83169144B9942BA
:1015900020D013D8134B99421ED0134BCB1A59426B
:1015A0005941890041F010012046FFF797FF0028BC
:1015B000A2BF012385F85030002070BD0B4B99422B
:1015C0000CD003F5C31303F5206399420CBF0A2125
:1015D0000021E7E70621E5E70221E3E70821E1E74B
:1015E00040420F00A0860100801A060040E133004F
:1015F00013B5446801AA6069002102F04AF9002885
:1016000010DB019B00221979186802F055F90028B7
:1016100008DB0548616883681B680BB1984708B10F
:101620006FF0040002B010BDAC3F000810B50269B5
:101630004368126ADB68C2F34202012A04D0022A1C
:1016400021D06FF0150010BD58681F4AB1FBF2F2AF
:1016500020F03F0010435860186A013220F03F002C
:1016600002431A62194AB1FBF2F140F6FC721142D0
:1016700008BF0421DA6922F44F4222F0FF020A4334
:10168000DA610020DFE758680F4AB1FBF2F220F080
:101690003F0010435860186A4FF49674624320F07C
:1016A0003F004FF47A74B2FBF4F2013202431A6243
:1016B000074A914289BF013248F20101B1FBF2F1C0
:1016C00041F40041D6E700BF40420F00400D030047
:1016D0007F4F1200F8B50C46036941681E682379F4
:1016E000012B35D09A1E55425541AD026279022A2E
:1016F0009CBF384F37F812C0A27988BF4FF4005C06
:10170000042A28D0003B18BF01231B03E279012AD9
:101710000A680CBF4FF440770027A642D1681DD15C
:1017200021F4B05129430B43D360136923F4405390
:1017300043EA0C03136143681A68536923F4407346
:101740003B43536131684068BDE8F84002F040B95E
:101750004FF4C065CAE74FF48053D7E701F4C06186
:101760008D421FBFD16821F4C0612943D160426816
:1017700011680A6902F4405294451FBF0A6922F4B5
:10178000405242EA0C020A6142681168CA6802F4D7
:10179000805293421FBFCA6822F480521343CB6029
:1017A00043681A68536903F440739F421FBF53692B
:1017B00023F440733B43536121683368994206D058
:1017C000406802F005F908B923683360F8BD0020CD
:1017D000FCE700BFA4460008F8B543681C6803692D
:1017E0001E680B79012B0D461AD0991E4A424A41B8
:1017F000920295F805C0AF79BCF1020F96BF32494D
:101800004FF4005131F81C10042F00D083B1A3F124
:10181000030EBEF1010F06D86FF085031846F8BD20
:101820004FF4C062E5E70BB1042FF5D04FF48053BD
:10183000B1F5805F3ED0B1F5405F3DD000290CBFCF
:10184000012103218C45E7D1002B37D0002A0CBFA2
:10185000042303239F42DFD1EB79C3B1012BDBD1FA
:101860001A4B9C4213D0A3F54C439C420FD003F576
:1018700080639C420BD003F580639C4207D003F544
:1018800080639C4203D003F544439C42C4D1E36887
:1018900023F40053E3602946FFF71CFF03460028AA
:1018A000BAD1E26842F40052E26095E8030086E8AB
:1018B0000300B3E70021C5E70221C3E7002A0CBFFC
:1018C00003230223C6E700BFA4460008001001401E
:1018D0004FF0E0230D4A9969126818699B69002945
:1018E00008BF1146002B08BF134610F4803F08487C
:1018F00001D1994205D20168114401604FF0E02105
:10190000096900681044C01A704700BFE80300204E
:10191000E0030020094B102283F82320084B44F2F7
:10192000A0121A60074B002018604FF0E02344F229
:101930009F125A61072298611A61704700ED00E01A
:10194000E8030020E0030020684620F007018D46F0
:10195000F1B502F035F90446FFF7BAFF124A134811
:10196000D2E9005103685B19114D41F10001C2E950
:101970000031D5E9006144F2A012002707609B1BEB
:10198000B3FBF2F002FB00F39B1941F10001C5E942
:101990000031084B21461F6000F090FFFFF7CAF9A5
:1019A000BDE8F1408546704788000020E003002034
:1019B00080000020E40300202DE9F041344E8046F1
:1019C00069B1B0F1FF3F0AD14FF0E022136923F073
:1019D000010313614FF07F433360BDE8F081FFF7EF
:1019E00077FF2C492C4A35684FF0E0239C69D1E9F8
:1019F0000037C31847F100070020B8F1FF3FC1E9E5
:101A00000037106025D02548D0E90020B3EB020C48
:101A100067EB0007002F37DB214B1B6844F2A01E49
:101A200013EB08034FEAE87040F10000A3FB0E320D
:101A30000EFB0022B3EB0C0340F21B4062EB0702EB
:101A4000834272F100001FDBB3F1807F72F100026C
:101A500001DB6FF07F434FF0E0223360013B96697A
:101A60005361002393610F4B4FF000725A60B442F0
:101A7000D1E900023ABF63199B1BA31B1B1842F15B
:101A80000002C1E90032A8E740F21A43E3E700BFD1
:101A9000E803002088000020E003002080000020F0
:101AA000E403002000ED00E010B5074B1C68074B75
:101AB0001B68E41AFFF70CFF44F2A0132044B0FBAC
:101AC000F3F0034B186010BD880000208000002058
:101AD000E403002008B520498B6803F00C03082BB1
:101AE00007D00C2B20D01D481D4A042B18BF1046D0
:101AF00008BD4A684B68496813F4800314BF17484F
:101B00001748C1F3881118BF002302F03F02A1FB60
:101B10000001FEF725FB104B5B68C3F30143013363
:101B20005B00B0FBF3F0E3E74A684B68496813F4E5
:101B3000800314BF09480A48C1F3881118BF002365
:101B400002F03F02A1FB0001FEF70AFB024B5B68BB
:101B5000C3F30273E5E700BF0038024000127A00C9
:101B60000024F400002800F08180424B1B6803F43D
:101B70004043B3F5404F30D103F10F6303F58C536D
:101B8000984207D83C4B984209D83C4B984208D918
:101B9000032300E00523012B38BF012309E00423C0
:101BA000F9E7374B98421AD8364B98424FF000036A
:101BB000F1D8304A126802F44042B2F5004F28D101
:101BC00002F10F6202F5A34290420AD9002B08BF2E
:101BD0000523012B38BF01231BE00023E9E7022383
:101BE000E7E7254A904203D9002B08BF0423F0E71A
:101BF000224A904203D9002B08BF0323E9E7204A79
:101C0000904203D9002BE4D1022302E01D4A904206
:101C1000DFD8184A126802F44042B2F5804F13D15F
:101C2000164A904206D9002B08BF0323012B38BF68
:101C3000012309E0124A904203D9002BF6D1022376
:101C400002E0104A9042F1D80F490A6822F00F02D0
:101C50001A430A600A6802F00F02934208D008682B
:101C600000F00F00C01A18BF012070470120704714
:101C70000020704700700040000E2707804A5D0575
:101C80000087930380C3C901003C024038B5EFF3DD
:101C90001185102383F31288BFF36F8F064B9C6866
:101CA00001F0C1FF85F31188BFF36F8F2046BDE8B7
:101CB0003840FFF74FB800BFEC03002038B50A4B9F
:101CC00053F82040013053F82050A54200D838BDC9
:101CD000606830B1037EDB0701D401F079FF08347E
:101CE000F3E723689847FAE78C46000870B5294B5C
:101CF000294C2A4D86B0012203201A70FFF7DEFF1F
:101D00000420FFF7DBFF2646AE4204F130040FD378
:101D100000F03AFC204CAC4226D300F049FCFEF720
:101D200097FB1F4A938923F00103938106B070BD8E
:101D300054F80C3C059354F8103C049354F8143CAC
:101D4000039354F8183C029354F81C3C019354F844
:101D5000203C009354E90A2354E90C0100F052F9A5
:101D600054F8303C5E65CEE7D4E90A23B3F1FF3F77
:101D700008BFB2F1FF3F05D052EA0301206803D14A
:101D800000F09CF93034C6E70649183000F0B6FC84
:101D9000F8E700BF19040020C8430008C843000842
:101DA000100100205B3D000870B5002386B00122C1
:101DB000CDE90423134E144D01930F22CDE90232D5
:101DC0001249142303FB005506EBC01604464FF4DA
:101DD000C07000FB04110E4B00954FF4A07230460A
:101DE00000F010F9337C0B4AEE6023F004033374E7
:101DF0004FF4046304FB033313442C746B6006B08C
:101E000070BD00BF90000020EC030020800C00207B
:101E10002D3C0008400400207FB50020FFF74EFF56
:101E2000284B83F30888284C636943F4007363618B
:101E30000025F02384F82230E57725766576A576AF
:101E400084F82050636A43F4E0236362FEF78AFE5D
:101E5000FEF76AFF4FF0FF33A362E362FFF786F8F5
:101E6000FEF7E2FF19481A4C00F01CF9FEF7D2FB0E
:101E70000120FFF723FF0220FFF720FF00F07CFB8B
:101E8000144B15495C61154B059301234FF4806297
:101E9000CDE90353CDE90155114B0095204600F0E3
:101EA000B1F8237C064623F004032046237401F096
:101EB0002DFF2846FFF778FF094A31462046FEF7F6
:101EC00015FF00BF800C002000ED00E09001002015
:101ED00010010020EC030020000E0020584C0008E8
:101EE000ED1C000870B5EFF31186102383F3128800
:101EF000BFF36F8F0468A0421AD0CCB1D4E900328E
:101F000013605A60237C002523F002032374C4E984
:101F10000055A56004F1180000F088FC2046A56774
:101F200001F0F4FE31460848BDE8704001F02DBFD5
:101F3000D0E902329A4218BF0133836086F31188D8
:101F4000BFF36F8F70BD00BF1A04002013B5EFF30D
:101F50001181102484F31288BFF36F8F846844B119
:101F6000013C846081F31188BFF36F8F002002B0C1
:101F700010BD52EA030406D181F31188BFF36F8FBD
:101F80006FF00F00F3E7CDE900230246014800F0AF
:101F90007FFAECE71A04002070B50546EFF31186CE
:101FA000102383F31288BFF36F8F00232C68A542A0
:101FB00018D0BCB1D4E9003213605A60227C0023EF
:101FC00022F00202C4E900332274A36004F1180075
:101FD00000F02CFC6FF00A03A367204601F096FE88
:101FE0000123E3E70022AA6023B986F31188BFF337
:101FF0006F8F70BD31460248BDE8704001F0C5BE2C
:102000001A0400202DE9F043073285B01F4622F064
:10201000070200F15803C0E916337F32109B838119
:1020200000250E4622F03F020F9981730423C0E978
:102030000655044685600374C573002100203F2ABD
:10204000C4E90A0106F14009A2F1400805D885F368
:102050001188BFF36F8F184602DFB5182946204656
:10206000FEF76CFB07300E9B20F00700A066C4E96A
:10207000189802930D9B01932D1A0C9B00932A46EE
:102080003B4631462046FEF7FFFD00236365044BC7
:102090009B6803B1DB6EE366284605B0BDE8F083BC
:1020A000EC0300200123037483810023C0E918336B
:1020B000C366014B98607047EC03002038B50446B6
:1020C000EFF31185102383F31288BFF36F8F037C26
:1020D0005B070FD5183000F0A9FB237C23F0040325
:1020E0002046237401F021FE29460548BDE838400A
:1020F00001F04BBE85F31188BFF36F8F38BD00BF71
:102100001A040020094A93686FF00A019967084988
:1021100058674B6843F080534B60002383F311886A
:10212000BFF36F8F9368986F704700BFEC03002078
:1021300000ED00E038B590F91020037C002A01463C
:1021400004DA03F07F03037401F0A8FD0D4D2A4665
:10215000AB6852F8184F944200D004B9EC688B4237
:1021600007D01A7CD20604D1DA897F2A01D9A26964
:102170002AB1A34202D0204600F060FA23466B61E8
:1021800038BD00BFEC03002070B590F91020037C2F
:10219000002A2FDBD9062DD11A4C63F07F0322468B
:1021A000037452F8183FE169934207D1C0E9002156
:1021B0000860E0610FE09942F8D01B68002BF5D071
:1021C00093F90E6090F90E50AE42F4DD5968C0E903
:1021D000003108605860A569954200D005B9E568EE
:1021E000A3681A7CD20606D1DA897F2A03D9AA69A4
:1021F0000AB9636170BDAB4202D0284600F01EFAF6
:102200006561F7E7EC030020034648B9EFF3058268
:1022100032B9064A51699268914201D0FFF772BF04
:1022200083F31188BFF36F8F704700BFEC0300206A
:1022300038B5184CA168E0690B68814214BF1A4692
:10224000002249680B605960A368E1692AB9124A03
:10225000C3E900210B60E3610AE092F90E5093F9A3
:102260000E00854212DD5168C3E900210B60536006
:10227000A569094B9D4200D005B9E568A3689D4258
:1022800002D0284600F0DAF9656138BD8A42DED016
:102290001268DBE7EC030020040400202DE9F0477E
:1022A000002A027C0CBF4FF010094FF0080919EA10
:1022B000020F04460E460F4628D149EA0203D2090E
:1022C00046D10374B9F1080F48D04FF00008DFF889
:1022D000F0A0534653F8185F9D4200D00DB9DAF8CC
:1022E0000C50DAF80830AB4202D0284600F0A6F9CC
:1022F000B9F1100FCAF8145008D0204600F0DAFEE9
:10230000B8F1000F02D02F48FFF7CCFE2C4B9B6892
:10231000A3424FD1EFF30583002B4BD1A289D20703
:1023200011D586F31188BFF36F8F83F31188BFF344
:102330006F8F0423184602DFEFF31187102383F316
:102340001288BFF36F8F3846BDE8F047FFF7DABE5B
:1023500003F07F03037401F0A1FCB3E7A36813B19A
:10236000204601F0A3FC04F1180000F05FFAA56D0F
:1023700004F15808A84511D04FF0000A75B128465D
:1023800001F094FC05F1180000F050FAC5F878A0AF
:102390002846FFF7F9FEA56DA845EFD1084B9B68CD
:1023A0009C4292D1EFF30588B8F1000818BF4FF0B6
:1023B00001088CE786F31188BFF36F8FBDE8F087C3
:1023C000EC0300209001002070B50F4D2B4606460F
:1023D00053F8184F9C4200D004B9EC68AB681A7CE3
:1023E000D20604D1DA897F2A01D9A2692AB1A3428F
:1023F00002D0204600F022F923466B613046BDE84A
:102400007040FFF701BF00BFEC03002070B5EFF391
:102410001186102383F31288BFF36F8F1A4CA168C3
:10242000E0690B68814214BF1A46002249680B60BC
:102430005960A368E1692AB9144AC3E900210B6015
:10244000E3610AE092F90E5093F90E00854216DD21
:102450005168C3E900210B605360A5690B4B9D4295
:1024600000D005B9E568A3689D4202D0284600F077
:10247000E5F865613046BDE87040FFF743BE8A422B
:10248000DAD01268D7E700BFEC0300200404002074
:10249000F8B5124B0C461146114A98681060DDE9F8
:1024A0000676EFF31182102282F31288BFF36F8F4A
:1024B0009D68284601F004FCB6F1FF3F08BFB7F164
:1024C000FF3F06D007493A46334605F1180000F0B1
:1024D00015F92046BDE8F840FFF714BEEC030020D4
:1024E0000C0400205B3D0008F8B550EA01030646E5
:1024F0000C4603D101F0D0FB0020F8BDEFF31187AB
:10250000102383F31288BFF36F8F174D174BA86802
:10251000186001F00CFCA8681549324623461830B3
:1025200000F0ECF8AB681A7C5F6742F004021A74A2
:102530006FF00A029A670F4A536843F08053536062
:102540000446002383F31188BFF36F8FAA68D2E992
:102550000A12B2F1004F08BF9942CDD101F048FCF8
:10256000201A20EAE070C8E7EC0300200C040020E9
:102570005B3D000800ED00E0024B03F11802C3E9E7
:1025800006227047EC030020EFF31181102383F340
:102590001288BFF36F8F054B9A68D37B013BD373CF
:1025A00081F31188BFF36F8F704700BFEC030020E9
:1025B000EFF31180102383F31288BFF36F8F034B67
:1025C0009A68D37B0133D373FFF7FEBEEC03002080
:1025D000014B9868704700BFEC030020027C12F0AA
:1025E0001F02034610D10A4988420DD009490868E4
:1025F00068B1D9897F2909D893F90E20064B1B6849
:102600009A42B8BF002070470020704710467047BC
:10261000900000203C00002010040020044BC01A51
:10262000044BC0105843044B01221A54704700BF9A
:1026300010020020ABAAAAAA1A040020F8B50C4B7D
:102640000C4D1E7C0C4FFFF7C9FF182303FB0655EA
:102650000446284600F0EAF834B1BB5D0749E21AA7
:10266000D317284600F04AF80023BB55F8BD00BF39
:10267000EC030020100200201A0400201D26000890
:1026800070B5EFF31186102383F31288BFF36F8FB9
:102690000F4D104BAC681868A04202D1FFF7CEFF77
:1026A00011E000221A602B7C0B4AD35C5BB1204600
:1026B000FFF794FF38B1237CDB0604D1FFF7B8FDA8
:1026C0006869A042EAD086F31188BFF36F8F70BDAE
:1026D000EC0300200C0400201A040020024B1868B0
:1026E000984208BF0020704744000020024B186841
:1026F00008B1FFF7D9B9704740000020B3F1FF3FA0
:1027000008BFB2F1FF3F2DE9F84F04469946154640
:102710001F4600F081808160EFF31188102383F35E
:102720001288BFF36F8FB9F1000FDFF8F4A025DB3B
:10273000FFF7DCFF3B4B1B68003B18BF012345192B
:1027400049EBE0795B19DAE9005749F10002C4E985
:1027500004325D19064642EB07074FF00109FFF707
:10276000BDFFDFF8C4E0DEF804A00346EBB9C4E91E
:1027700000EACAF80040CEF8044028E0DAE9001286
:102780006FF001035B1A4FF0FF3161EB02025B1B3C
:1027900062EB0902012B72F10001BCBF0123002290
:1027A000C0E904324FF00009D9E7D3E9041CD4E9A9
:1027B00004208A4270EB0C0B25DA891A5A686CEBFC
:1027C0000000C3E90410C4E9003214605C60FFF744
:1027D00085FF84420FD1134B1B6801330BD1B9F134
:1027E000000F02D1FFF782FF0646304601F0E9FAFA
:1027F0000021FFF7E1F888F31188BFF36F8F2846B7
:102800003946BDE8F88F521A60EB0C005345C4E915
:102810000420ACD01B68A9E700252F46EFE700BFD6
:10282000280200204000002044000020F8B50246A5
:10283000EFF31185102383F31288BFF36F8F0168C4
:1028400051B3FFF74BFF1C4B5B689A4208D0D1E9AC
:102850000434D2E90476DB1944EB0604C1E90434FC
:10286000D2E90031002400264FF0004790420B606F
:102870005960C2E90044C2E9046705D0002085F32D
:102880001188BFF36F8FF8BDFFF730FF01F099FAA1
:102890002146FFF791F8F1E7D0E90413B3F1004FB7
:1028A00008BF012904D100204FF00041C2E9040112
:1028B0006FF01500E3E700BF440000202DE9F84F5A
:1028C000DFF8BC902F4CC9F8000000232360FFF70D
:1028D00005FFDFF8B4800D4601264FF00047D9F818
:1028E0000020D8E900CE4FEAE27A50B1D0E90431B5
:1028F0009A427AEB010B1EDA9B1A61EB0A01C0E9DE
:10290000043112EB0C024EEB0A030026C8E9002347
:1029100030464FF0FF332360C9F8006001F051FAF0
:102920003146FFF749F885F31188BFF36F8FBDE893
:10293000F84FFFF7A5BE13EB0C0CA2EB0303C9F88D
:102940000030D0E90032D0F808A0136041EB0E014E
:102950005A600023C8E900C1C0E90033C0E9046738
:1029600085F31188BFF36F8FD047EFF311851023E4
:1029700083F31288BFF36F8FFFF7B0FEAFE700BF9E
:1029800014040020400000202802002010B5EFF3BE
:102990001184102383F31288BFF36F8FFFF7A6FE15
:1029A000054A0346D2E90001181841EBE37184F3AC
:1029B0001188BFF36F8F10BD280200202DE9F04F62
:1029C0008BB04368009383789C078046924640F121
:1029D000F98000250878002800F0F68025280AD024
:1029E0004B1C019301354146009B98470028C0F2DB
:1029F000E3800199EEE74E788B1C252E0193F1D0F0
:102A00000027B9463C460A221F2C22D8A6F12003F3
:102A1000102B20D8DFE803F0141F1F1A1F1F1F0BF5
:102A20001F1F1F121F171F1F090044F00104019BE5
:102A300013F8016B0193002EE6D13AE044F0020452
:102A400044F00404F3E744F00804F0E744F0100411
:102A5000EDE77F2C24D8A6F13003092B08D86006B7
:102A60004EBF02FB073702FB093944F02004DEE7C2
:102A70002A2E0DD161065AF8043B53D4002BA7BF70
:102A800044F020049946C3F1000944F02804CEE73D
:102A90002E2E05D1630600F1978044F04004C6E76E
:102AA0006C2E2ED028D8682E32D06A2E37D04C2EDD
:102AB00035D0002F46F02003B8BF24F04004A3F126
:102AC0006502BCBFA4B20027022A01D9612B2BD119
:102AD0000AF1070A2AF0070A9C4E0AF1080A07279A
:102AE000210760D506EB070B34465C455DD1AE1B74
:102AF000A219A9EB070959E1742E98D07A2E96D025
:102B0000D7E7260648BF44F4007444F080048EE7FB
:102B1000E00548BF44F4007444F4807487E744F44B
:102B2000207484E71F4682E7A6F16302122A00F2AE
:102B3000D880DFE812F013004D00D600D600D60092
:102B4000D6004D00D600D600D600D600D600E8004C
:102B5000D100D600D6001A00D600A0005AF8043BD7
:102B60008DF81030012704AEBAE75AF8046B784BA1
:102B7000002E08BF1E4614F0400F14BF39464FF018
:102B8000FF31304601F04EF90746A9E7009B414668
:102B90002020984700280FDB013CA742F6D34D4484
:102BA0002D1BA1469EE74C46F7E714F8010B009B4E
:102BB00041469847002898DA98F8023043F0040319
:102BC00088F802304FF0FF3528460BB0BDE8F08F93
:102BD000220630D5A3052AD50AF1070A2AF00703F1
:102BE0009A4659685AF8080B24F0100B00291FFA6E
:102BF0008BFB2FDA404261EB41014BF4806B04AC5C
:102C00000A23224601F01AF91BF0400FA0EB040240
:102C100000F08E802BF001049742A4B240F38F8025
:102C2000002E40F08E802BF01104A4B21DE05AF863
:102C3000040BC117D8E7E0055AF8041B01D4084675
:102C4000F7E7A2054BBF48B208B241F3C01141F308
:102C5000C031C9E750EA0103D1D16306CFD5002FB7
:102C6000CDD124F01104A4B23A463B4640F20641CD
:102C70000C4262D124E024F01004A4B20A2314F020
:102C8000800243D014F400711FBF0AF1070A2AF032
:102C900007029246516814BF5AF8080B5AF8040B01
:102CA00050EA01023ED124F0160B62061FFA8BFB9C
:102CB0003CD5002F3AD124F01704A4B23A463B4643
:102CC00021075AD4E10705D5994572DDA9EB030325
:102CD0009F184B469B464AE044F010041023782688
:102CE000CDE7782B04D1C6F1780343F01003C6E793
:102CF000009B4146252098470028FFF65DAF02352E
:102D00004146304670E608230026B8E714F4807187
:102D10005AF8040BC4D014F400711ABFC0B21146A3
:102D200080B2BDE724F006041FFA84FB04AC68E718
:102D300013465C46E10699D52EB90133C0E7134628
:102D4000F8E73B46F6E70233BAE700BF644C0008F9
:102D50005D4C0008CDE902324146009B2020984797
:102D60000028FFF629AFDDE902320BF1010BD9454E
:102D7000F0DCEB1A03EB0B055B46E10627D5CDE94A
:102D800002324146009B302098470028FFF614AFDE
:102D9000DDE902327EB901352F44791B8A4229DBF5
:102DA000144604AE9CBB2A44A9EB03091546914482
:102DB00042E017468EE7CDE9023202354146304601
:102DC000009B98470028DDE90232E5DAF4E640F29C
:102DD00006410C42E0D014F0020F14BF2B2020203B
:102DE00014F4806FCDE9023205F10105414618BFA8
:102DF0002D20E5E7CDE902324146009B302098477F
:102E00000028DDE9023205F10105C6DAD4E6013C0D
:102E1000CDE90232305D009B414698470028DDE94C
:102E20000232BFDAC8E6009B4146202098470028BE
:102E300005F10105FFF6C0AEA9EB0503002BF2DC9E
:102E4000D7E500BF704700EBC100408840087047DD
:102E5000F8B50346FFF7F7FFB0FA80F0C0F11F00A6
:102E600003EB800CCA00DCF81060171D0C4606321C
:102E70008DB256B9012101FA00F0D9680143D96039
:102E8000CCF81040DD539D52F8BDF1000431585A82
:102E9000D85303EBC0009E52C5805D52F4E7043A5C
:102EA0002DE9F843CC1D114424F0070421F0070656
:102EB000A6EB04084FEAD807B7FA87F2C2F1240557
:102EC000AD004FF000090735C2F12002ED080460A3
:102ED0004946A760C4F80C90920004F1100000F07D
:102EE00099FFAAB2530043F0010363807B1B9BB29E
:102EF00004EBC5015800A4F80090488024F8352060
:102F0000A6F8029024F8083004EBC70329465A8833
:102F100042F001025A802046BDE8F843FFF798BF0F
:102F2000002070470FB407B504A951F8040B0191B4
:102F3000FDF7E8FA03B05DF804EB04B070477047A2
:102F40006FF0570070476FF0570070476FF05700F1
:102F500070476FF0570070476FF0570070476FF081
:102F600057007047F0B5406802F4C0454468B5F5B5
:102F7000804F4FF0010000FA01F074D10729C2F32D
:102F800043255AD890FAA0F3B3FA83F3266A9B003C
:102F90000F2707FA03F326EA030690FAA0F3B3FA21
:102FA00083F39B0005FA03F3334323626568C2F39E
:102FB000C0338B4025EA00010B43636090FAA0F117
:102FC000B1FA81F1A5680326490006FA01F125EA64
:102FD000010590FAA0F1B1FA81F1C2F30143490071
:102FE0008B402B43A36090FAA0F1B1FA81F1E56820
:102FF000490006FA01F125EA010590FAA0F1B1FABB
:1030000081F1C2F3814349008B402B43E36090FA86
:10301000A0F3B3FA83F3216890FAA0F05B00B0FA52
:1030200080F006FA03F34000C2F3413221EA0303C1
:1030300082401A4322600020F0BD030A93FAA3F6EF
:10304000B6FA86F6676A93FAA3F3B6004FF00F0C50
:10305000B3FA83F30CFA06F69B0027EA06069D40B6
:1030600035436562A2E7B5F5005FA7D16668C2F394
:10307000C03505FA01F126EA000529436160002BFD
:103080009CD0D30256BF0304A061A36196E700F071
:10309000C1BE00F0B1BE01460068FDF71BBB08B51C
:1030A000FDF748FBBDE80840FDF744BE00210120C4
:1030B000FDF710BB6FF08500704761B662B680F314
:1030C0001188BFF36F8F704772B6002383F31188A6
:1030D000BFF36F8FBFF34F8F30BF62B6BFF36F8FF9
:1030E0007047202809D9B0F1004F08D80138B0FA4C
:1030F00080F0C0F11F0040007047082070473E205C
:10310000704708B5FDF7F4FF002008BD08B506229A
:1031100001210020FEF748F8002211460620FDF7A5
:1031200071FD012108460722FEF73EF800221146F4
:103130000720FDF767FD082201210220FEF734F881
:10314000002211460820FDF75DFD09220121032020
:10315000FEF72AF8002211460920FDF753FD0A2246
:1031600001210420FEF720F8002211460A20FDF775
:1031700049FD052108461722FEF716F800221146E0
:103180001720FDF73FFD282206210A20FEF70CF844
:10319000002211462820FDF735FD002008BD0B88D0
:1031A000C3F30B0303F57D62C2F30B02782A82B0EE
:1031B00014D803F1804303F50E3348681A680243BC
:1031C0001A600B88C3F30B0303F1804303F50E333E
:1031D00000201B680193019B02B070476FF08500CF
:1031E000FAE70B88C3F30B0303F57D62C2F30B020E
:1031F000782A9FBF03F1804303F50E3349681A68AC
:103200009DBF8A4300201A606FF08500704770B53B
:1032100008884A68C0F30B0094B2C2F30445FEF775
:1032200051F8A0B9FF2A11D004F18041C2F34156F0
:1032300001F50E3101360123B3400C68013BAB4070
:10324000120E24EA0303AA4013430B6070BD6FF013
:103250008500FBE70888C0F30B0008B500F57D6327
:10326000C3F30B03782B0AD800F1804000F50E3031
:103270004B68026893430CBF0220012008BDFEF793
:1032800021F800280CBF02200120F7E770470369EE
:1032900093F850201AB11B6A0B60002070476FF042
:1032A0000400704708B5002211461F20FDF7AAFC54
:1032B0001F20FDF799FC002220201146FDF7A2FCFB
:1032C000BDE808402020FDF78FBC08B5002211465C
:1032D0002120FDF797FC2120FDF786FC002222200B
:1032E0001146FDF78FFCBDE808402220FDF77CBCAD
:1032F0002DE9F74398460B7A066943F00403154617
:103300000B7207460C460B460122AA420AD906F167
:1033100010094FF0FF324FF0FF334846FEF716FE1C
:10332000002620E00AD2197A187D81EA000C1CF0F0
:10333000010F01D040071FD589071DD401320C337E
:10334000D2B2E2E7012D14BF04F114030023CDE94A
:103350000038384694E80E0000F061FA061E04DBDF
:10336000013D0C34EDB2002DECD14846FEF7BAFD1C
:10337000304603B0BDE8F0836FF01506F8E7426809
:103380000369D26883F8521019B9136823F01A033D
:103390001360704700F037B900F00CBA4368016958
:1033A000DB685A6822F4C0625A605A6822F4C0622C
:1033B0005A605A6822F400725A605A6822F4806295
:1033C0005A6091F851201AB95A6822F480725A60F2
:1033D0007047F8B54368DC68236823F00103236075
:1033E000FFF7DCFF27686668A368E568E069216A83
:1033F000626AD4F800C04CF4004CC4F800C0D4F8A1
:1034000000C09BB22CF4004CBFB2B6B243F4804370
:10341000ADB280B289B292B2C4F800C027606660D3
:10342000A360E560E06121626262F8BD38B543687F
:103430000569DC68FFF7B2FF95F851301BB92368C6
:1034400023F00103236038BD034600695B68826C8A
:10345000DB688AB1013A82641AB95A6822F4806240
:103460005A60C26C1969127821F0FF010A431A618F
:10347000C36C0133C36470475A6822F480625A6097
:10348000C26A910742BF1A6842F400721A605A6910
:10349000520748BF1B69FEF725BDF8B50369D3E99C
:1034A0000E5455EA04075E6B02460AD18EB15F6383
:1034B0000CB10021D9631046FFF7B8FF6FF004008C
:1034C0000BE00EB100215963002DF1D0002199636A
:1034D000EEE709B9FFF7AAFF0020F8BDC3685A68F4
:1034E00042F480725A605A6842F400725A605A6814
:1034F00042F480625A6070472DE9F0411F464368EC
:103500000469DD680E4690462046FEF745FD736867
:10351000A3643368E364337AE36287F0010700232E
:10352000C4E90C73C4E90E33A3626664A4F8248072
:103530002B6843F001032B602B6823F400632B609E
:103540002B6843F480632B60337A59070BD52B68C3
:103550009A0541BF23F400731B041B0C2B602B68DE
:1035600043F480732B60BDE8F081034600695B681B
:10357000826CDB68002A3DD0022A21D0032A2BD09E
:10358000012A2ED11A6822F480621A601A6822F485
:1035900000621A60C26A910742BF1A6842F4007260
:1035A0001A605A6822F480625A60826C013A82641E
:1035B000C26C1B691370C36C0133C364FEF792BC09
:1035C000426C5268022A1DD81A6822F480621A607E
:1035D0001A6842F400621A605A6822F480625A60E3
:1035E0007047013A8264C26C1B691370C36C01336B
:1035F000C3647047C26A920742BF1A6842F40072FD
:103600001A60DBE7704710B443680269DB685C69E5
:10361000E40785B001462CD5106A918C10F00100AA
:1036200013D0946AC91101F0060154B941F0F001B8
:1036300090621A6922F0FF020A431A6105B010BCB9
:10364000704741F0F1010020F2E7106B4900C9B268
:103650000028EED1186941F0010120F0FF0001437C
:103660001961926C022AE9D11A6842F400621A6068
:10367000E4E75C69240705D5196992F8242021F054
:10368000FF01D9E75C69A4073DD5106A116BC0073B
:1036900015D5A9B9906AD0B191625A690192019A7F
:1036A0009A690192019A1A68910541BF22F4007249
:1036B0001204120C1A601A6842F48072D7E731B112
:1036C0005A690292029A9B690293029BB6E7926C36
:1036D000012A0ED11A6822F480621A605A69039294
:1036E000039A9A690392039A5A6842F480625A6074
:1036F000A4E7022AF2D11A6822F480621A601A68DA
:1037000042F40062E9E75C6964073AD5146B24B1BE
:10371000084605B010BCFFF797BE916C022905D092
:10372000032920D005B010BCFFF71FBFD16A89075D
:1037300042BF196841F400711960916C01399164BC
:10374000D16C18690870D06C411CD164916C01393E
:1037500091641B694370D36C0133D364104605B088
:1037600010BCFEF7BFBB196821F480611960916C31
:1037700001399164D16C1B690B70D36C0133D36434
:103780005CE75869040602D5106B0028C0D158695F
:10379000000605D5106B18B95A6822F48062A6E7B6
:1037A0005B695B067FF54AAF136B002B7FF446AF76
:1037B0000846B7E708B543680169DB685A6912F43F
:1037C000806F5A6910D022F480625A611A6842F4FC
:1037D00000721A6001238B63FFF7E0FD0069FEF7BA
:1037E00081FB6FF0040008BD12F4007F5A6905D018
:1037F00022F400725A6101234B63EDE7D20542BF08
:103800005A6922F480725A615A6912F4006204D033
:103810005A6922F400625A61DEE71046E3E72DE9B7
:10382000FF4101AD85E80E009DF80C300A9EBDF801
:103830002C20076913F00103044614D12946FFF731
:103840005BFE6068FFF74AFE41F28832002338468B
:10385000FEF77CFBC0B12046FFF7BBFD6FF0040014
:1038600004B0BDE8F08143682946D3F80C800123F9
:10387000FFF742FE6068FFF731FED8F8043043F4EA
:10388000C063C8F80430DFE731462046FFF705FE85
:10389000E6E730B5036813600579046804EBC504F6
:1038A000A34202D36FF0010030BD5C798C4203F17A
:1038B0000803F0D10020F7E7F8B5044600EB8105D6
:1038C000AC4201D100200FE054F8046B06F01F0059
:1038D000C6F34317FCF76EFE38B101233246394672
:1038E000FFF740FB0028EBDAF8BD6FF01200FBE7B2
:1038F0004368C1F34B101B6801F01F01C05801233E
:103900008B400340003B18BF012313700020704719
:1039100010B54368C1F34B101A6801F01F018458B9
:1039200001238B4023438350002010BD10B5436812
:10393000C1F34B14186801F01F01235801228A407B
:1039400023EA02032350002010BD38B504460D467B
:10395000FFF7DEFF29462046FFF7E8FF002038BDCD
:1039600082B003680193019B43680193019B02B0FD
:10397000704708B54368186802680368C2F3C0025C
:1039800003F0010342EA430203689B07036848BF50
:1039900042F004025907036848BF42F02002DB05E9
:1039A00042BF6FF4807342F008020360D10701D573
:1039B000FFF7D6FF930701D5FFF7D2FF510701D5D7
:1039C000FFF7CEFF930601D5FFF7CAFF104608BDEB
:1039D00037B5034604680D4619B96FF0150003B0FA
:1039E00030BD406819698368DB6803B301AA984752
:1039F0000028F4DBE368019923F400431920E36015
:103A0000AA00AB0FA1FB0001FCF7AAFB6422B0FBEC
:103A1000F2F102FB11031B013233B3FBF2F303EBB0
:103A200001130F2BD9D99BB2A3600020D7E76FF009
:103A30005700D4E708B54368186803681A0701D52A
:103A4000FFF78EFF03689B0643BF43680B7000209F
:103A50004FF0FF3008BD10B543681B6810201A688E
:103A60001206FCD5EFF3118280F31288BFF36F8F3B
:103A70001C68240604D482F31188BFF36F8FEEE72D
:103A8000596082F31188BFF36F8F10BDF7B544689A
:103A900005466068216983681B68002B40D0984701
:103AA00000283BDB606A01AA0021FFF7F2FE002834
:103AB00034DB019B002219791868FFF7FDFE00280E
:103AC0002CDB6E682B6934681F68E36823F40053AD
:103AD000E360B06800F094F828B3D6E90201836887
:103AE000DB6803B1984704F10C0353E8003F43F04F
:103AF0000C0304F10C0141E80032002AF3D13946ED
:103B00002846FDF7E7FD88B9337E1BB1636943F0B2
:103B100008036361E36843F40053E36003B0F0BD5E
:103B20006FF05700FAE76FF01200F7E76FF015003B
:103B3000F4E703691B681B680B6043681B68DB685C
:103B400003F4C063B3F5806F2FD0A3F5C06CDCF134
:103B5000000343EB0C030B7143681B681B6903F400
:103B60004053B3F5805F22D0B3F5405F21D0002BE6
:103B70000CBF012303234B7143681B68DA68DB68C1
:103B8000D20403F4C06316D5002B0CBF0423032317
:103B90008B7143681B685B6903F44073A3F5407243
:103BA00053425341CB71002070470223D3E70023D7
:103BB000E1E70223DFE7002B0CBF03230223E7E743
:103BC000EFF31180102383F31288BFF36F8F7047D8
:103BD00010B5436904463BB90020E268537843F0CE
:103BE00001035370404210BD98470028F4D00028CC
:103BF000B8BF4042E368FF28A8BFFF201870ECE779
:103C000040B1C368587810F001001EBF1878B0FAB0
:103C100080F040097047EFF31183102383F312887B
:103C2000BFF36F8FFEE708B5FFF7F5FF10B510245F
:103C3000EFF3118384F31288BFF36F8FFFF744FA19
:103C4000F6E73AB18A4205D3C0E90212C0E90000A2
:103C5000002070476FF01500704738B58589EFF385
:103C60001181102282F31288BFF36F8F037C13F04F
:103C7000080404D081F31188BFF36F8F38BD01228F
:103C8000FEF70CFBEB07F9D584F31188BFF36F8FB8
:103C90000423184602DFF1E7FEF7B8BBD0E9003293
:103CA00013605A600023C0E90033704708B5FFF77E
:103CB000F5FF037C23F0020303740023836008BD37
:103CC00038B504460D46FEF735FA237C43F002036F
:103CD0002374D5B1A5602B689D4209D16B68C4E9F6
:103CE00000531C606C6010E06A689A42F6D01B6852
:103CF000002BF3D093F90E1094F90E209142F3DDCE
:103D00005A68C4E9003214605C6038BD10B5EFF346
:103D10001184102383F31288BFF36F8FFEF734FAF8
:103D200084F31188BFF36F8F10BDFEF72DBAFEF735
:103D300001BA08B5037C13F0280F01460CD1836843
:103D40000BB1FFF7B3FF0B7C23F004030B740846A1
:103D5000BDE80840FEF718BA08BD10B5EFF31184AE
:103D6000102383F31288BFF36F8FD0E90423B3F1DC
:103D7000004F08BF012A04D084F31188BFF36F8F6E
:103D800010BD1838FFF7D5FFF6E70846FEF73CBA36
:103D900038B505460C46FEF7A7FBB4F1FF3F08BF58
:103DA000B5F1FF3F0AD0C11709304FF00A024FF0BA
:103DB000000341F10001FCF7D3F938BD4FF0FF30AB
:103DC000FBE708B50246FEF789FC70B1D0E9043183
:103DD0009B1A61EBE272B3F1004F72F1000104DA59
:103DE000002AACBF1846002008BD6FF00040FBE77A
:103DF00008B5FEF7CBFD08BD0A44914200F1FF3340
:103E000000D1704710B511F8014B03F8014F9142F2
:103E1000F9D110BD02440346934200D1704703F824
:103E2000011BF9E710B5024601448A42134603D04C
:103E30001C780132002CF8D1181A10BDF0B5C3F16E
:103E400037070446FFB203F01F031046082BE6B203
:103E500033D0102B3ED06508A40844EA817445EAAB
:103E6000C1752D194FEA910242EB5102290941EA2D
:103E700002716D1842EB1212290A41EA02616D18B3
:103E800042EB1222290C41EA02416D1842EB124228
:103E9000AD1842F10002EC0844EA4274D10804EB88
:103EA0008402A6EB4205EDB2092D0CD90134A5F12F
:103EB0000A0541F10001EDB212E0E40844EA417460
:103EC00006F00705C908303554EA010200F8015B25
:103ED000BCD1F0BD240944EA017406F00F050909BC
:0C3EE000092D84BFED19EDB2EDE70000E4
:083EEC00A8C2FF7F01000000E5
:103EF40000000000AC3F0008350500080000000089
:103F040000000000C83F00080000000070400008E6
:103F1400000000008C40000800000000A8400008D9
:103F240000000000C44000080000000054400008E5
:103F34000000000038400008000000001C40000899
:103F4400000000000040000800000000E43F0008FA
:103F54000D310008000000000000000018410008B6
:103F640000000000E040000800000000FC400008E1
:103F74008D14000800000000000000003441000817
:103F840015190008000000001911000800000000C5
:103F9400000000006C4100080000000050410008CF
:083FA400DD040008000000002C
:103FAC00F04B000800000000F043000870000020F7
:103FBC0000000000E512000800000000174C00088B
:103FCC00B0450008E0430008760000200000000027
:103FDC0000000000000000004647000854440008A0
:103FEC000C4400085E0000203402002095050008F7
:103FFC000000000054470008684400080C44000806
:10400C006000002040020020950500080000000020
:10401C00624700087C4400080C4400086200002041
:10402C004C020020950500080000000070470008B5
:10403C00904400080C440008640000205802002042
:10404C0095050008000000007E470008A444000805
:10405C000C4400086600002064020020950500084E
:10406C00000000008C470008B84400080C4400080D
:10407C006800002070020020950500080000000078
:10408C009A470008CC4400080C4400086A00002041
:10409C007C0200209505000800000000A8470008DD
:1040AC00E04400080C4400086C000020880200204A
:1040BC009505000800000000D24B0008000000002D
:1040CC00000000006E000020000000003D11000800
:1040DC0000000000284C0008B445000830440008DB
:1040EC0078000020140000208D3A00080000000029
:1040FC00384C0008FC450008304400087A000020C9
:10410C00200000208D3A000800000000484C0008F8
:10411C0044460008304400087C0000202C0000209D
:10412C008D3A000800000000364700084C44000897
:10413C00000000005C0000200000000049050008A1
:10414C0000000000FD4B000840450008C843000873
:10415C0072000020380300205515000800000000F4
:10416C000A4C000878450008C84300087400002079
:0C417C008C030020551500080000000016
:1041880000000000AD30000800000000AD3000085D
:1041980000000000AD30000800000000AD3000084D
:1041A80000000000AD30000800000000AD3000083D
:1041B800784C0008C1110008764C0008C1110008AD
:1041C800744C0008C1110008724C0008C1110008A5
:1041D800704C0008C111000800000000AD30000854
:1041E80000000000AD30000800000000AD300008FD
:1041F80000000000AD30000800000000AD300008ED
:1042080000000000AD30000800000000AD300008DC
:1042180000000000AD30000800000000AD300008CC
:1042280000000000AD30000800000000AD300008BC
:1042380000000000AD3000086E4C0008C1110008F5
:1042480000000000AD30000800000000AD3000089C
:1042580000000000AD30000800000000AD3000088C
:1042680000000000AD30000800000000AD3000087C
:1042780000000000AD3000086C41000895330008CC
:104288006C41000899330008504100089533000834
:10429800504100089933000800000000AD300008C4
:1042A80000000000AD30000800000000AD3000083C
:1042B80000000000AD30000800000000AD3000082C
:1042C8006C4C0008C111000800000000AD30000867
:1042D80000000000AD30000800000000AD3000080C
:1042E80000000000AD30000800000000AD300008FC
:1042F80000000000AD30000800000000AD300008EC
:1043080000000000AD30000800000000AD300008DB
:1043180000000000AD30000800000000AD300008CB
:1043280000000000AD30000800000000AD300008BB
:1043380000000000AD30000800000000AD300008AB
:1043480000000000AD30000800000000AD3000089B
:1043580000000000AD30000800000000AD3000088B
:1043680000000000AD30000800000000AD3000087B
:1043780000000000AD30000800000000AD3000086B
:1043880000000000AD30000800000000AD3000085B
:1043980000000000AD30000800000000AD3000084B
:1043A80000000000AD30000800000000AD3000083B
:1043B80000000000AD30000800000000AD3000082B
:1043C800DD1400088F320008F132000800000000F8
:1043D8000000000000000000F13800081139000852
:1043E8002D3900084B3900089F310008E3310008D7
:1043F800000000000D1200085532000800000000FF
:104408000F320008412F0008472F00084D2F0008E1
:10441800532F00085F2F0008592F000800000000E4
:104428000000000000000000353A0008573A000874
:0C44380073390008D9170008333B000856
:1044440044000000004000003000000000000400B0
:10445400FFFF0000001C02400700000030000000C5
:1044640080000000FFFF000000180240060000006A
:104474003000000040000000FFFF00000014024074
:10448400050000003000000020000000FFFF0000D5
:104494000010024004000000300000001000000082
:1044A400FFFF0000000C0240030000003000000089
:1044B40008000000FFFF00000008024002000000A6
:1044C4003000000004000000FFFF00000004024070
:1044D400010000003000000002000000FFFF0000A7
:1044E4000000024000000000300000000100000055
:1044F400A84000088C4000087040000854400008A0
:10450400384000081C40000800400008E43F000850
:10451400000000200000000000000B060200000064
:104524002845000800000008C34B000824000206C8
:1045340000000020CB4B000820000B11CB320008F8
:10454400584500080100000000580040801A060089
:104554006045000840000000000040006845000875
:1045640001000000704500080200000025C8040096
:1045740005C80400A53200089045000801000000A9
:1045840000540040801A06009845000840000000CE
:1045940000002000A045000801000000A845000814
:1045A4000200000001C9040021C9040000380240CF
:1045B40000480040AC3F0008C83F00081204000057
:1045C400DC450008010000000000000000000000BD
:1045D40000000000E4450008400000000000040062
:1045E400EC45000801000000F4450008020000004A
:1045F400034F0400234F000000140140AC3F0008A7
:10460400C83F00088504000024460008010000009B
:104614000000000000000000000000002C4600081C
:10462400440000002000000034460008010000009F
:104634003C46000802000000C65104002651000058
:1046440000440040AC3F0008C83F000811040000CB
:104654006C4600080100000000000000000000009B
:104664000000000074460008400000000000020042
:104674007C46000801000000844600080200000097
:10468400A34E0400C34E0000F43E0008F43E0008AC
:10469400843F00088C3F0008A43F0008AC3F00089A
:1046A4000010000000304932432064657669636578
:1046B400206E6F742072656164790A004932432068
:1046C4005363616E6E657220537461727465640A1B
:1046D400000A5363616E6E696E672E2E2E0A0046C1
:1046E4006F756E642064657669636520617420303B
:1046F40078253032580A002A2A2A20426F6F7469BA
:104704006E67205A6570687972204F53206275690C
:104714006C642076342E342E302D343533352D67A9
:10472400643266386533303862646334202A2A2A56
:104734000A006D656D6F7279403430303234303038
:1047440030006770696F403430303231633030008C
:104754006770696F40343030323138303000677000
:10476400696F403430303231343030006770696FF3
:10477400403430303231303030006770696F40344B
:1047840030303230633030006770696F403430301D
:104794003230383030006770696F40343030323036
:1047A400343030006770696F40343030323030302C
:1047B400300072302F61313A20203078253038783B
:1047C400202072312F61323A202030782530387819
:1047D400202072322F61333A202030782530387807
:1047E4000A0072332F61343A20203078253038782B
:1047F400207231322F69703A202030782530387891
:10480400207231342F6C723A202030782530387879
:104814000A0020787073723A202030782530387876
:104824000A004661756C74696E6720696E737472F0
:10483400756374696F6E2061646472657373202894
:104844007231352F7063293A203078253038780A50
:1048540000556E68616E646C6564204952516E3A0D
:104864002025640A002A2A2A2A2A204D5055204647
:1048740041554C54202A2A2A2A2A0A0020205374FB
:1048840061636B696E67206572726F722028636F53
:104894006E746578742061726561206D69676874EF
:1048A400206265206E6F742076616C6964290A0049
:1048B4002020556E737461636B696E672065727234
:1048C4006F720A0020204461746120416363657340
:1048D400732056696F6C6174696F6E0A0020204DF5
:1048E4004D46415220416464726573733A203078B6
:1048F40025780A002020496E737472756374696F99
:104904006E204163636573732056696F6C617469CB
:104914006F6E0A002020466C6F6174696E672D709B
:104924006F696E74206C617A792073746174652088
:10493400707265736572766174696F6E20657272E8
:104944006F720A002A2A2A2A2A20555341474520F1
:104954004641554C54202A2A2A2A2A0A0020204457
:1049640069766973696F6E206279207A65726F0A5D
:10497400002020556E616C69676E6564206D656DFD
:104984006F7279206163636573730A0020204E6F30
:1049940020636F70726F636573736F7220696E73D7
:1049A4007472756374696F6E730A002020496C6CAD
:1049B4006567616C206C6F6164206F6620455843A5
:1049C4005F52455455524E20696E746F2050430A0D
:1049D400002020496C6C6567616C20757365206FDD
:1049E400662074686520455053520A0020204174A3
:1049F40074656D707420746F206578656375746573
:104A040020756E646566696E656420696E73747280
:104A1400756374696F6E0A002A2A2A2A2A2042556D
:104A240053204641554C54202A2A2A2A2A0A002077
:104A340020537461636B696E67206572726F720ACA
:104A4400002020507265636973652064617461207D
:104A5400627573206572726F720A002020424641AB
:104A64005220416464726573733A20307825780A61
:104A7400002020496D7072656369736520646174F8
:104A84006120627573206572726F720A002020497A
:104A94006E737472756374696F6E206275732065CA
:104AA40072726F720A00526573657276656420458E
:104AB4007863657074696F6E20280053707572692D
:104AC4006F757320696E74657272757074202849ED
:104AD40052512000535053454C20696E2074687223
:104AE400656164206D6F646520646F6573206E6F0B
:104AF4007420696E646963617465205053500A00C0
:104B04002A2A2A2A2A2048415244204641554C54F4
:104B1400202A2A2A2A2A0A00202042757320666144
:104B2400756C74206F6E20766563746F7220746187
:104B3400626C6520726561640A00202044656275B8
:104B440067206576656E740A0020204661756C7472
:104B540020657363616C6174696F6E202873656589
:104B64002062656C6F77290A00415243485F4558BB
:104B740043455054207769746820726561736F6E81
:104B84002025780A0A002A2A2A2A2A2044656275DE
:104B940067206D6F6E69746F7220657863657074D9
:104BA400696F6E202A2A2A2A2A0A002A2A2A2A2AED
:104BB40020257320256429202A2A2A2A2A0A004625
:104BC4004C4153485F30005352414D5F3000696E91
:104BD400746572727570742D636F6E74726F6C6C21
:104BE4006572403430303133633030007263634077
:104BF400343030323338303000693263403430304E
:104C04003035383030006932634034303030353438
:104C140030300072657365742D636F6E74726F6CDF
:104C24006C65720073657269616C40343030303485
:104C34003830300073657269616C40343030313122
:104C44003430300073657269616C40343030303414
:104C5400343030006D61696E00286E756C6C29000B
:104C64002A666C6F61742A000A06050504010301B3
:104C74000201010100010000000000000000010227
:084C8400030406070809000003
:104C8C00212F000800000000033100080000000084
:104C9C00000000001800002000C201000001030009
:104CAC002400002000C2010000010300300000209D
:104CBC0000C20100000103000024F400C800000041
:104CCC00FFFFFFFF4400002044000020FFFFFFFF18
:0C4CDC00FFFFFFFFFFFFFFFFFFFFFFFFD8
:104CE80000000000000000000000000000000000BC
:104CF80000000000000000000000000000000000AC
:044D080000000000A7
:044D0C0015E015E0B9
:0400000508000B9153
:00000001FF
